:020000040800F2
:100000000000032095050008191C00081B1C0008AF
:100010001D1C00081F1C0008211C00080000000017
:100020000000000000000000000000001166000851
:10003000231C000800000000A166000805670008F6
:10004000E5050008E5050008E5050008E5050008E8
:10005000E5050008E5050008E5050008E5050008D8
:10006000E5050008E5050008E5050008E5050008C8
:10007000E5050008E5050008E5050008E5050008B8
:10008000E5050008E5050008E5050008E5050008A8
:10009000E5050008E5050008E5050008E505000898
:1000A000E5050008E5050008E5050008E505000888
:1000B000E5050008E5050008E5050008E505000878
:1000C000E5050008E5050008E5050008E505000868
:1000D000E5050008E5050008E5050008E505000858
:1000E000E5050008E5050008E5050008E505000848
:1000F000E5050008E5050008E5050008E505000838
:10010000E5050008E5050008E5050008E505000827
:10011000E5050008E5050008251C0008E5050008C0
:10012000E5050008E5050008E5050008E505000807
:10013000E5050008E5050008E5050008E5050008F7
:10014000E5050008E5050008E5050008E5050008E7
:10015000E5050008E5050008E5050008E5050008D7
:10016000E5050008E5050008E5050008E5050008C7
:10017000E5050008E5050008E505000800000000A9
:10018000E5050008E5050008E5050008E5050008A7
:10019000E5050008E5050008E5050008E505000897
:0C01A000311C0008E50500083D1C0008AB
:1001B00010B5054C237833B9044B13B10448AFF3A1
:1001C00000800123237010BD6C010020000000009E
:1001D00050C1010808B5034B1BB103490348AFF3F5
:1001E000008008BD000000007001002050C101081F
:1001F00001F0FF01102A2BDB10F0070F08D010F8D8
:10020000013B013A8B422DD010F0070F42B3F6D1DB
:10021000F0B441EA012141EA014122F007047FF0F4
:1002200000070023F0E80256083C85EA010586EA4B
:10023000010685FA47F5A3FA87F586FA47F6A5FA87
:1002400087F68EB9EED1F0BC01F0FF0102F0070293
:1002500032B110F8013B013A83EA010313B1F8D13E
:100260000020704701387047002D06BF354603381F
:10027000073815F0010F07D1013015F4807F02BF58
:10028000013015F4C03F0130F0BC0138704700BFA9
:1002900053B94AB9002908BF00281CBF4FF0FF31ED
:1002A0004FF0FF3000F074B9ADF1080C6DE904CEE9
:1002B00000F006F8DDF804E0DDE9022304B0704741
:1002C0002DE9F047089D04468E46002B4DD18A4209
:1002D000944669D9B2FA82F252B101FA02F3C2F13C
:1002E000200120FA01F10CFA02FC41EA030E9440CD
:1002F0004FEA1C48210CBEFBF8F61FFA8CF708FBEE
:1003000016E341EA034306FB07F199420AD91CEBC5
:10031000030306F1FF3080F01F81994240F21C81F7
:10032000023E63445B1AA4B2B3FBF8F008FB10333F
:1003300044EA034400FB07F7A7420AD91CEB040474
:1003400000F1FF3380F00A81A74240F20781644444
:10035000023840EA0640E41B00261DB1D4400023C9
:10036000C5E900433146BDE8F0878B4209D9002D2D
:1003700000F0EF800026C5E9000130463146BDE8B7
:10038000F087B3FA83F6002E4AD18B4202D3824221
:1003900000F2F980841A61EB030301209E46002DD0
:1003A000E0D0C5E9004EDDE702B9FFDEB2FA82F225
:1003B000002A40F09280A1EB0C014FEA1C471FFA83
:1003C0008CFE0126200CB1FBF7F307FB131140EA6A
:1003D00001410EFB03F0884208D91CEB010103F137
:1003E000FF3802D2884200F2CB804346091AA4B2F9
:1003F000B1FBF7F007FB101144EA01440EFB00FECD
:10040000A64508D91CEB040400F1FF3102D2A64531
:1004100000F2BB800846A4EB0E0440EA03409CE7D0
:10042000C6F12007B34022FA07FC4CEA030C20FA7D
:1004300007F401FA06F31C43F9404FEA1C4900FA9D
:1004400006F3B1FBF9F8200C1FFA8CFE09FB18111A
:1004500040EA014108FB0EF0884202FA06F20BD98D
:100460001CEB010108F1FF3A80F08880884240F2DD
:100470008580A8F102086144091AA4B2B1FBF9F021
:1004800009FB101144EA014100FB0EFE8E4508D91C
:100490001CEB010100F1FF346CD28E456AD90238A1
:1004A000614440EA0840A0FB0294A1EB0E01A14286
:1004B000C846A64656D353D05DB1B3EB080261EBF4
:1004C0000E0101FA07F722FA06F3F1401F43C5E9CE
:1004D000007100263146BDE8F087C2F12003D84004
:1004E0000CFA02FC21FA03F3914001434FEA1C4746
:1004F0001FFA8CFEB3FBF7F007FB10360B0C43EA38
:10050000064300FB0EF69E4204FA02F408D91CEBE7
:10051000030300F1FF382FD29E422DD902386344E5
:100520009B1B89B2B3FBF7F607FB163341EA034185
:1005300006FB0EF38B4208D91CEB010106F1FF38D4
:1005400016D28B4214D9023E6144C91A46EA0046CB
:1005500038E72E46284605E70646E3E61846F8E65D
:100560004B45A9D2B9EB020864EB0C0E0138A3E7A6
:100570004646EAE7204694E74046D1E7D0467BE787
:10058000023B614432E7304609E76444023842E7FF
:10059000704700BFDFF834D0002103E00C4B5B58FC
:1005A000435004310B480C4B42189A42F6D30B4A85
:1005B00002E0002342F8043B094B9A42F9D303F0CE
:1005C000D5FA1AF05FFD00F04FFE704700000320DF
:1005D00080810E08000000206C0100206C010020CA
:1005E00058270120FEE700F041BC00F0B5BC704781
:1005F00010B5042104461AF0CDFC204610BD0000C1
:1006000038B50C4B0C4C18800C4B82201980636859
:10061000984740F6110398420AD1094D23682C608F
:10062000822098472B688220DB689847002038BDDD
:100630000120FCE788010020540000208A010020EE
:100640008C0100204FF4A071F020FFF7D9BF00000B
:10065000F7B52D4D2B6804461B698220984780B260
:100660002080002843D02B680DF106025B6901A9A8
:1006700082209847BDF80620A2F5B47292B20A2AE9
:1006800037D90B23B2FBF3F2204B1B889A4201D9D6
:10069000013B9AB2BDF8043040F6B8318B422AD8FB
:1006A000C3F571630E339BB20F21B3FBF1F318490D
:1006B00009888B4201D94B1E9BB2164E164D3068ED
:1006C0002F68834281B28CBF591AC91AB8B2BA4294
:1006D0008CBF101A801A89B280B201440529C8BFA4
:1006E00033603368C8BF2A6063802B68A38003B07F
:1006F000F0BD0022CEE7C3F56D6308339BB20E2B2D
:10070000D2D80023D9E700BF8C0100208A01002045
:1007100088010020900100209401002037B5684630
:100720000D461446FFF794FFBDF8000030B1BDF848
:1007300002302B60BDF804302360012003B030BDCF
:10074000704770477047012380F8741080F8753047
:100750007047002070470000034B4164003918BF08
:1007600001211970704700BFB32401200020704799
:10077000836B0BB10846184770474FF6FF70704700
:10078000406803689B69184770477047704700F0DE
:1007900083BC08B503680446D3F8803098472368C3
:1007A00020469B6F984700F0EBF8236820461B6FAC
:1007B0009847292000F07AFF00F0E2F823682046ED
:1007C0001B6F9847F8E710B5044608F051FE236800
:1007D0002046D3F8AC30BDE81040184700F04EBCBE
:1007E00000F052BC00F07EBC00F024BC00F07EBCE7
:1007F00000F086BC00F028BC07F0C6BF10B57C2115
:1008000004461AF0C7FB204610BD90F877301BB1A4
:10081000406803681B6818471846704710B590F881
:10082000341090F874400C4B8C421A7809D03AB9C5
:100830000A4A0B491488088810800C8001221A701B
:1008400010BD002AFCD0054A05491488088810808C
:100850000C800022F3E700BFAC240120A824012073
:10086000AA24012070B50D46194635B9094B0A4A2C
:100870000A4840F2BB211AF0BBFBC0E90F52084BFB
:10088000003A18BF01221A700368BDE87040D3F81F
:100890008C301847CCC1010804C2010852C20108BB
:1008A000B224012008B5094B1B888B4203D8084BA2
:1008B0001B88934205D9074B074A08489E211AF026
:1008C00097FB074B1980074B1A8008BDA82401200D
:1008D000AA24012097C20108FAC2010852C20108E5
:1008E000AE240120B0240120012108B500220846D1
:1008F00005F05EFB0A4B186028B90A4B0A4A292109
:100900000A481AF075FB00220421012005F016FCAC
:10091000074B186018B9074B034A2D21F0E708BDB3
:100920009C01002018C4010861C4010890C401089A
:100930009801002012C50108024B4FF0FF311868E2
:1009400005F08CBB9C010020014B186805F0C0BB72
:100950009C010020024B0021186805F07FBB00BFFE
:100960009C010020FFF7F0BF034804490068002302
:100970001A4605F029BC00BF9801002004000020A1
:1009800013B5084C00231A4601A9206805F05EFC47
:1009900020684FF0FF33002201A905F057FC02B098
:1009A00010BD00BF9801002003685B6C1847012050
:1009B000704703689B6A184782B0002301930D4B70
:1009C0001A6B42F400021A631A6B02F400020192DD
:1009D000019A1A6942F400021A611A6922F40002AB
:1009E0001A61054B054A1A61054B4FF080629A6007
:1009F00002B0704700380240A4140020450A0008E5
:100A000000E100E040F2EF3070470000054B03606A
:100A1000054B4FF08062C3F88820BFF34F8FBFF3C0
:100A20006F8F7047E4C6010800E100E010B504468E
:100A30004FF45A61FFF7EAFF20461AF0ABFA20465E
:100A400010BD0000024B1B68586803685B691847BB
:100A5000B424012070B5044625460A4B0C3000260C
:100A600060602672667245F8203B6022294608F0D5
:100A700067FE04F55A63EE602435AB42FBD1204695
:100A800070BD00BFE4C6010808B50B290BD8DFE82C
:100A900001F01206100A0A0A0A08080808080120CC
:100AA00008BD0520FCE7054B054A064867211AF0FA
:100AB0009FFA0020F4E70220F2E700BF54C50108C6
:100AC0006FC50108B9C5010808B50A2909D8DFE8CA
:100AD00001F010060E0808080806060606000120A8
:100AE00008BD054B054A064888211AF081FA002006
:100AF000F6E70220F4E700BF54C5010839C6010833
:100B0000B9C501082DE9F8434F7F0C4639468146A7
:100B1000FFF7BAFF94F81E80054641464846FFF7A6
:100B2000B3FF414606464846FFF7CEFFA18A628BD7
:100B3000424B521A1A649A61228B521A1A61E28A43
:100B4000586342EA01425A6420696268D863DA60F5
:100B5000216894F81CC080294FEA0C6226D010D876
:100B6000202945EA020461D040295FD004295DD0E4
:100B7000324B2A4342F400324745DA615AD0304AB8
:100B800040E0B1F5807F07D0B1F5007FF0D142F4AD
:100B9000003242F0090203E042F4003242F00A025D
:100BA000DA61E2681A625E6258612AE0A4682A4348
:100BB00042F40032211DD962DA6122785E62586106
:100BC00042B1012A21D01F4B1F4A20484FF489719E
:100BD0001AF00EFADA69618822F47F42013922F0B4
:100BE000100242EA0122DA610120144BDA6942F074
:100BF0002002DA61DA699206FCD410229A60002899
:100C0000BDD0134A1A60BDE8F8836288D969541EC2
:100C100021F47F4222F0100242EA0422BCF1FF00DC
:100C200042F0100218BF0120DA61DEE744F400341C
:100C3000DC61B8E740F20122E4E700BF00B0024007
:100C40000102010084C601089EC60108B9C5010859
:100C50000102020070B50C46897FFFF735FFA68AB6
:100C6000E18A628B154B2569586341EA0641921B64
:100C70005964DD631A642668E168082E0DD19A6113
:100C80001A615862207F0E4A42EA0062DA610D4A18
:100C900019625D61DD601A6070BD0022D8611A6161
:100CA00048090A0A02F4784200F4FC600243C1F3E6
:100CB000C4010A439A63044AEDE700BF00B0024052
:100CC0000900010001020200010203007047002335
:100CD000037170477047012070470C2070470C2348
:100CE00003FB0100083070470C2303FB01000830B0
:100CF0007047012070474FF42A7070474FF42A73F1
:100D000003FB0100083070474FF42A7303FB010016
:100D100008307047012070471020704700EB011029
:100D20000830704700EB01100830704710B50821FB
:100D300004461AF02FF9204610BD084601F0C2B84B
:100D400010B5034B0360044607F044FA204610BD7B
:100D50009CC7010810B50446FFF7F2FF2046142196
:100D60001AF018F9204610BD10B5034B0360044675
:100D700007F030FA204610BD68C7010810B50446D8
:100D8000FFF7F2FF20464FF42C711AF003F92046CA
:100D900010BD000010B5034B0360044607F01AFABB
:100DA000204610BD34C7010810B50446FFF7F2FF16
:100DB000204618211AF0EEF8204610BD10B5084B59
:100DC0000360044600F53770FFF7BAFF04F12C000A
:100DD000FFF7CAFF04F11400FFF7DCFF204610BD47
:100DE000D0C7010808B50248FFF7E8FF08BD00BFFB
:100DF000A401002010B50446FFF7E0FF204640F2B2
:100E00004C411AF0C7F8204610BD000038B5044622
:100E10000D461548042103F03DF930B9237923B973
:100E20002B70FF232371012038BD0F48082103F0E8
:100E300031F908B923793BB10B48042103F02AF9B1
:100E4000012806D00020EFE70123FF222B7022713A
:100E5000E9E70548082103F01DF90128F2D1002334
:100E600023711846E0E700BF001802402DE9F34166
:100E700000F05AFF054600F05BFF002401462346C0
:100E80002846224600940DF03DFF274B274A284D67
:100E90001A60204602F058F826480DF07FFE2B78A5
:100EA000BFF35B8FDB0735D428461AF075F888B39B
:100EB000214C224B236004F53D7604F1140004F12B
:100EC0002C0804F537776060C4F80880E760266175
:100ED00007F082F91A4B6361404607F07DF9194B20
:100EE000E362384607F078F9174BC4F8DC3204F5B2
:100EF0003C7002F065FB224604F53C71304602F07E
:100F000071F9304600F0DEFF10481AF08FF82846DD
:100F10001AF04EF80E4C2046FFF739FC0D4B63617A
:100F200002B0BDE8F08100BF1025012010140020A0
:100F3000A001002008000020A4010020D0C7010863
:100F400034C7010868C701089CC70108E50D0008FF
:100F5000941300200C0000200148FFF71ABC00BFCA
:100F60009413002070B5234C234E244B244D236052
:100F70003046FFF76FFD284611F070F8214B2248EC
:100F8000DC60224C03600022F0204FF4807120804E
:100F9000C3E912121E4C1F492080C3E919121E4CCE
:100FA0001A864FF080714FF4A07059670121C3E990
:100FB0000422C3E90622C3E90822C3E90A22C3E9DD
:100FC0000E22C3E91022C3E91422C3E916221A66CD
:100FD00083F86C201A67C3E9016583F878102080D4
:100FE0000E4C83F8341020800D4802700D4A1A60B0
:100FF00070BD00BFF0050020F4050020BCC1010851
:101000001414002094130020B4240120A8240120EB
:10101000AE24012001000001AA240120B0240120F7
:10102000AC24012048C301080148FFF7EFBC00BF12
:10103000F4050020034B902283F85A2383F85823A9
:10104000704700BF00E100E0094A0A49D3680A4836
:10105000C3F30A03013B9BB20B801169C1F30A0180
:10106000013901801364536B43F0010353637047EC
:1010700000680140901400208E140020014BD3F82A
:10108000AC00704700680140024B0122C3F8AC106D
:101090005A6270470068014070B5044607F0C9FB0A
:1010A00023685D6E0AF01CFE01462046A8472368AF
:1010B000054AD3F888502046AC460023BDE870406E
:1010C000A2F51631604700BF005802D007F098BB68
:1010D00090F84B3013B1024B01221A7007F09CBB01
:1010E0008C14002007F056BB07F0AFBC034B4FF049
:1010F00080629A604FF080729A60704700E100E071
:10110000084B4FF08062C3F88820BFF34F8FBFF3C6
:101110006F8F4FF08072C3F88820BFF34F8FBFF3FB
:101120006F8F704700E100E010B5144C236823B3C3
:10113000134B144A1B6C11888B4213D1124B198824
:1011400003F08CFD226892F86630013382F8663035
:10115000FFF70AFC206808F08BF9BDE8104000207A
:10116000FFF7EEBA03F07AFD206803681B6A984720
:10117000BDE810400020FFF7E4BA10BDB424012000
:1011800000680140901400208E14002007B5064B23
:10119000ADF806001B68054801220DF1060104F0B8
:1011A0005EFA03B05DF804FB18000020141600205E
:1011B000F0B5A1B0102200210AA819F0A5FF142251
:1011C000002103A819F0A0FF0021302214A819F073
:1011D0009BFF0024224B01941A6C42F080521A6447
:1011E0001B6C03F080530193019B1E4B02941A6801
:1011F00042F440421A601B6803F440430293012208
:10120000029B4FF48033CDE9082302254FF480037D
:10121000CDE90E5308274FF4A873042608A8CDE99A
:1012200010731295139603F037FD0F23CDE90335A4
:101230004FF4A0514FF48053CDE9061303A80521C4
:10124000059403F001FFC023189314A84FF4003352
:1012500014971A961D9303F0C1FF21B0F0BD00BF93
:10126000003802400070004080B59AB002F08CFC5B
:10127000FFF79EFF142200210DA8002419F044FF5F
:10128000B84B00941A6BB848B84D42F020021A636C
:101290001A6B02F020020092009A01941A6B42F03D
:1012A00080021A631A6B02F080020192019A029482
:1012B0001A6B42F004021A631A6B02F004020292E3
:1012C000029A03941A6B42F001021A631A6B02F03D
:1012D00001020392039A04941A6B42F002021A6309
:1012E0001A6B02F002020492049A05941A6B42F0FF
:1012F00040021A631A6B02F040020592059A0694A6
:101300001A6B42F010021A631A6B02F01002069276
:10131000069A07941A6B42F008021A631B6B03F0DB
:101320000803079322460421079B02F0B9FE2246D8
:101330008F484FF4405102F0B3FE012602274FF0D0
:10134000040889480F940DA9CDE90D86109702F085
:10135000B9FD0C2387480DA9CDE90D34CDE90F6700
:1013600002F0B0FD0DA94FF440538148CDE90D3690
:10137000CDE90F4702F0A6FD7F48804B036002F0E5
:1013800095FC7F4A7F4B2C62C5E9002328464FF429
:101390008043C5E90434C5E90244C5E9064403F0C5
:1013A00061F81021284603F09DFA2146284603F0F3
:1013B000B8FA7548754984624FF48273C0E9001326
:1013C0004FF400751823C0E906530A23704DC36219
:1013D000C0E90244C0E90444C0E9084404F002F949
:1013E0006C4B0D974FF0100CC5E900364023C5E952
:1013F00004C34FF4C073C5E906344FF40063C5E974
:1014000008344FF40053AB624FF0030A07230DA9D1
:101410002846CDE90E3810934FF00809C5E9024877
:10142000CDE911A7139704F003F84FF6FF7209A94D
:101430002846CDE90A96089409960C9404F018F809
:10144000304602F0CDFB4FF6FF7209A92846CDE9E0
:101450000979CDE90B6404F00BF84FF6FF7209A986
:101460002846CDE909A9CDE90B8404F001F84FF431
:101470000C730893089B0C934FF6FF7209A928463A
:10148000CDE909890B9603F0F3FF40F26A51284633
:1014900004F005F8342221460DEB020019F034FE69
:1014A0003D4D3E4BAC86C5E900340923C5E9053600
:1014B0001D2340F20D1EC5E9073A40F24313C5E96A
:1014C00009E3284640F2471340F21718C5E90B8399
:1014D000C5E902442C6185F8364003F0C7FAFF21C4
:1014E000F022CDE912144FF4806905214FF4A07366
:1014F000CDE90E24CDE91491CDE916420DA922467D
:101500002846CDE91037264D18930D94ADF8644068
:101510008DF8664003F075FB224B2B601B689847E3
:101520002B68214DDB689847204BC5E90A47C5E980
:101530000C442846C5E90034C5E9027402F0C6FB34
:101540003146284602F07AFCFFF74DF804F0A0FC83
:10155000174A1848214604F0D5FC174B186004F0D0
:10156000B1FCFEE70038024000080240E41400200D
:10157000000C0240001802409C1400200030024081
:10158000005C0040A08601001416002000500140BD
:10159000E0150020400100A038150020006801403F
:1015A000981400201C000020A414002000B0024069
:1015B00004C80108EB050008941400207047704728
:1015C0007FB5094B8DF817201B6802930DF11702A8
:1015D0000123009201930A460146044802F0EAFF03
:1015E00007B05DF804FB00BF14000020E4140020E5
:1015F0007FB500238DF81730084B1B6802930A460D
:1016000001230DF11701009101930146044803F0F5
:1016100061F89DF8170007B05DF804FB1400002086
:10162000E41400201FB5084C24680092CDE9013471
:101630000A4601230146054803F04CF8003818BF5C
:10164000012004B010BD00BF14000020E4140020ED
:1016500002F0C6BA08B506480022042102F020FDB7
:10166000BDE8084002480122042102F019BD00BF74
:101670000008024038B50B4D044601220A484FF4D9
:10168000005102F00DFD00220421284602F008FD61
:101690002046FFF77BFD28460122BDE838400421A3
:1016A00002F0FEBC00080240000C024038B50B4DB1
:1016B000044600220A484FF4005102F0F1FC0022D7
:1016C0000421284602F0ECFC2046FFF75FFD284687
:1016D0000122BDE83840042102F0E2BC00080240CB
:1016E000000C0240F7B5144E144F05460C46304628
:1016F0000022042102F0D4FC00224FF400513846AD
:1017000002F0CEFC2846FFF741FD0D4B0D481B684B
:10171000224601A904F041F9384601224FF4005154
:10172000019C02F0BDFC30460122042102F0B8FC0D
:10173000204603B0F0BD00BF00080240000C02408C
:10174000180000201416002002F04ABA0268034B69
:101750009A4201D102F032BA704700BF0010004037
:1017600082B00E4B00220092596C41F480415964C2
:10177000596C01F48041009100990192196C41F07B
:10178000805119641B6C03F080530193019B0F215E
:101790006FF0010002B002F049BA00BF0038024009
:1017A0000268094B9A4282B00BD100230193074B88
:1017B0001A6B42F480521A631B6B03F4805301933B
:1017C000019B02B0704700BF003002400038024069
:1017D00007B50F4B02689A4216D10022A3F5F043D9
:1017E0000192196B41F4000119631B6B03F40003B0
:1017F000019305215A20019B02F018FA5A2003B0E8
:101800005DF804EB02F044BA03B05DF804FB00BFDE
:1018100000B002402DE9F043044689B014220021B3
:1018200003A819F071FC2268244B9A4243D1244C3E
:10183000244800250095236B43F004032363236BA6
:1018400003F004030093009B0195236B43F0010315
:101850002363236B03F001030193019B4FF01209F3
:101860004FF400734FF001080327042603A9CDE9C4
:101870000339CDE90587079602F024FB4FF4807306
:101880001148079603A9CDE90339CDE9058702F090
:1018900019FB0295236C43F400032364236C03F4C7
:1018A00000030293029B236A43F400032362236A2A
:1018B00023F40003236209B0BDE8F083005C00401C
:1018C000003802400008024000000240F0B5044623
:1018D0008DB01422002107A819F016FC2268574B7E
:1018E0009A4240F0A88003F55043002500955A6CB9
:1018F000534842F080625A645A6C02F0806200924F
:10190000009A01951A6B42F020021A631A6B02F0DA
:1019100020020192019A02951A6B42F001021A63A9
:101920001A6B02F001020292029A03951A6B42F0BE
:1019300002021A631A6B02F002020392039A0495E0
:101940001A6B42F040021A631A6B02F040020492D2
:10195000049A05951A6B42F004021A631A6B02F09E
:1019600004020592059A06951A6B42F008021A6362
:101970001B6B03F00803069302240E26069B0A94B1
:101980004FF4806307A9CDE907340B9602F09AFA69
:1019900041F658032B480B9607A9CDE907340927D0
:1019A000CDE9095402F08EFA032327480B9707A9C3
:1019B000CDE90734CDE9095402F084FA4FF470639D
:1019C00021480B9607A9CDE90734CDE9095402F067
:1019D00079FA4FF40C631D480B9607A9CDE907343B
:1019E000CDE9095402F06EFAC02319480B9607A9F5
:1019F000CDE90734CDE9095402F064FA082315480B
:101A00000B9607A9CDE90734CDE9095402F05AFA3B
:101A10004FF4A0530D480B9707A9CDE90734CDE942
:101A2000095402F04FFA58202A46052102F0FEF828
:101A3000582002F02DF90DB0F0BD00BF0068014044
:101A4000001402400000024000040240001802405E
:101A500000080240000C024010B5044688B0142271
:101A6000002103A819F050FB2268144B9A4223D19D
:101A700003F56843002101915A6C114842F4801229
:101A80005A645A6C02F480120192019A02911A6B04
:101A900042F020021A631B6B03F020030293029BA7
:101AA0004FF4607202230321CDE903230523CDE91E
:101AB000061303A902F006FA08B010BD0050014059
:101AC000001402402DE9F04186B0002303932B4B14
:101AD0001C68002C4FD14FF00108C3F80080284B40
:101AE00000949A6B274842EA08029A639B6B03EAC8
:101AF00008030093022703260C25009B01A94FF63B
:101B00003F03CDE90137CDE9046502F0DBF91E485A
:101B1000059501A9CDE90187CDE9034602F0D2F987
:101B200048F233131948059501A9CDE90137CDE9EC
:101B3000034602F0C7F94FF683731548059501A9CE
:101B4000CDE90137CDE9034602F0BCF94CF203734D
:101B50001048059501A9CDE90137CDE9034602F00A
:101B6000B1F960230C48059501A9CDE90137CDE90C
:101B7000034602F0A7F906B0BDE8F0816C1600201C
:101B800000380240001402400008024000180240E1
:101B900000100240000C02400004024030B5014633
:101BA00089B00022362002F041F8362002F070F8A9
:101BB0000025154B02951A6C144C42F010021A6461
:101BC0001B6C03F01003029301A903A8029B03F00E
:101BD000E7FA03F0D5FA0E4B236040F2E733E360F7
:101BE00040000C4BB0FBF3F00138606020462561EB
:101BF000A56004F091F820B9204603F071FF09B008
:101C000030BD0120FBE700BF003802407016002005
:101C10000010004040420F007047FEE7FEE7FEE77D
:101C2000FEE77047014803F06FBF00BF7016002049
:101C3000014802F089BF00BF38150020014802F0BA
:101C400073B800BFA41400200120704708B519F034
:101C500001FA162303604FF0FF3008BD08B519F0F4
:101C6000F9F916230360FEE770B50D4614460E46DB
:101C7000731B9C4201DC204670BDAFF3008006F868
:101C8000010BF5E770B50D4614460E46731B9C42DA
:101C900001DC204670BD16F8010BAFF30080F5E7BC
:101CA0004FF0FF3070474FF400534B6000207047F7
:101CB00001207047002070470A4A116808B50346A2
:101CC00009B9094911601068694603448B4206D975
:101CD00019F0C0F90C2303604FF0FF3008BD13600A
:101CE000FCE700BFB016002058270120704710B550
:101CF0000421044619F04EF9204610BD08B5032909
:101D00000FD8DFE801F0020A060A01F069F900685D
:101D100008BD01F065F98068FAE701F061F94068F3
:101D2000F6E70020F4E70000004870473CC80108CF
:101D30000F20704713B5002451B1036801948DF84A
:101D4000034001AA9C680DF10303A04702B010BD37
:101D50000846FBE740897047808970478088704754
:101D600083798088184480B27047C07900F07F0082
:101D70007047C079C0097047704710B50821044604
:101D800019F008F9204610BD7047704700F59673AA
:101D90000868496803C370477047704741607047DF
:101DA00070470000064BC0F848310023C0F84C31A2
:101DB00000F5A073C0F84401C0F83C31704700BF83
:101DC000C52100080123037270477047704710B4A3
:101DD000C26841685410034601EB6200D20748BF55
:101DE0000A599B685DF8044B48BFD35818474368AD
:101DF0002BB183682BB9C06800F00100704718460A
:101E000070470120704710B50C21044619F0C2F844
:101E1000204610BD10B51021044619F0BBF820462D
:101E200010BD10B54FF4AC71044619F0B3F820465C
:101E300010BD08B509F054FFBDE808400AF02EBBFC
:101E400010B50446D0F83C0158B10368DB689847E8
:101E500038B1D4F83C0103689B6898470023C4F864
:101E60003C3110BDF8B5044617460E4609F06EFF2A
:101E7000104B0025C4E954760F4E1C60C4E952553E
:101E80000E4B306823600E4BC4E9503503680121C6
:101E90009B68C4E94E559847284601F055F83368C9
:101EA00093F876200AB1D86C00B9986811F021FF38
:101EB0002046F8BD00250120B4240120B8CE010839
:101EC000A0CE0108064BC0F848310023C0F84C31C1
:101ED00000F5A073C0F84401C0F83C31704700BF62
:101EE000C5210008064BC0F848310023C0F84C312A
:101EF00000F5A073C0F84401C0F83C31704700BF42
:101F000079200008064BC0F848310023C0F84C3156
:101F100000F5A073C0F84401C0F83C31704700BF21
:101F20002D1F000803685B6A184700002DE9F14F78
:101F3000D0E9545A0746A86803681B6A9847B0F569
:101F4000887F05D2444B454AA321454819F050F8F3
:101F5000686803681B6A98470F2803D8414B3F4ABB
:101F6000A421F2E7E86803681B6A98470B2803D8A6
:101F70003D4B3A4AA521E8E7DFF8F49009F0B0FEBE
:101F800009F0CAFED9F8000010B10368DB68984771
:101F9000D9F8000010B103681B689847DFF8D480B7
:101FA000D8F8000010B103685B699847D7F838018A
:101FB00010B103685B689847D8F8000010B1036857
:101FC0001B689847D7F8380110B103689B68984799
:101FD000E8680021FFF7A6FF4FF0000B234B0360DA
:101FE0000446C0F804B080F808B0A86803685946F1
:101FF0005B6A9847064601F027F968680368594606
:102000005B6A98473146054601F004F9C9F800407B
:10201000C7F83851C8F80060E5B12B1DCAF8003088
:102020003368C5F808A03046DB68F56398472B682D
:1020300028461B689847214630460BF041FA236832
:1020400020461B69984723685B69204601B0BDE8BC
:10205000F04F18472B46E1E778C9010806CA010886
:102060000CCB010853CB0108F6CB010804CF0108C3
:10207000F4240120F02401202DE9F14FD0E9545A35
:102080000746A86803681B6A9847B0F52A7F05D2FF
:10209000444B454AA321454818F0AAFF68680368E5
:1020A0001B6A98470F2803D8414B3F4AA421F2E707
:1020B000E86803681B6A98470B2803D83D4B3A4AE7
:1020C000A521E8E7DFF8F49009F00AFE09F024FE04
:1020D000D9F8000010B10368DB689847D9F8000010
:1020E00010B103681B689847DFF8D480D8F8000067
:1020F00010B103685B699847D7F8380110B10368DD
:102100005B689847D8F8000010B103681B689847CF
:10211000D7F8380110B103689B689847E868002138
:10212000FFF700FF4FF0000B234B03600446C0F89D
:1021300004B080F808B0A868036859465B6A9847FD
:10214000064601F0E9F86868036859465B6A9847F3
:102150003146054601F090F8C9F80040C7F83851FB
:10216000C8F80060E5B12B1DCAF800303368C5F827
:1021700008A03046DB68F56398472B6828461B6843
:102180009847214630460BF09BF9236820461B698F
:10219000984723685B69204601B0BDE8F04F1847B7
:1021A0002B46E1E778C9010899CC01080CCB01085E
:1021B00053CB0108F6CB010804CF0108F424012019
:1021C000F02401202DE9F14FD0E9545A0746A868C0
:1021D00003681B6A9847DB2805D8454B454AA3216D
:1021E000454818F005FF686803681B6A98470F2880
:1021F00003D8424B3F4AA421F2E7E86803681B6A10
:1022000098470B2803D83E4B3A4AA521E8E7DFF868
:10221000F89009F065FD09F07FFDD9F8000010B1D4
:102220000368DB689847D9F8000010B103681B68A1
:102230009847DFF8D880D8F8000010B103685B69D0
:102240009847D7F8380110B103685B689847D8F809
:10225000000010B103681B689847D7F8380110B127
:1022600003689B689847E8680021FFF75BFE4FF022
:10227000000B244B03600446C0F804B080F808B09B
:10228000A868036859465B6A9847064601F0C4F996
:102290006868036859465B6A98473146054601F00D
:1022A000A1F9C9F80040C7F83851C8F80060E5B195
:1022B0002B1DCAF800303368C5F808A03046DB682B
:1022C000F56398472B6828461B6898472146304697
:1022D0000BF0F6F8236820461B69984723685B6972
:1022E000204601B0BDE8F04F18472B46E1E700BF9C
:1022F00078C9010897CD01080CCB010853CB010820
:10230000F6CB010804CF0108F4240120F0240120B9
:102310000020704781807047C180704701817047FD
:10232000418170477047704770477047704710B4DD
:10233000C4880368121B84885B6D091B12B25DF8A8
:10234000044B09B218474FF6FF7383814FF0FF33F8
:1023500003621368C361106070477047704770472D
:102360007047704790F825201AB190F8242002B1E8
:102370001860704770477047704730B4C26844684F
:102380005510034604EB6200D20748BF62599B68B0
:1023900030BC48BFD358184743682BB183682BB96A
:1023A000C06800F001007047184670470120704770
:1023B00010B51021044618F0EDFD204610BD10B5F3
:1023C0004FF48871044618F0E5FD204610BD90F8E2
:1023D000252012B103685B691847704708B500F102
:1023E0009803994205D109F07BFCBDE80840FFF74E
:1023F00079BDCC30814205D109F072FCBDE80840BE
:10240000FFF760BD08BD70B5036804461B6B154639
:1024100098472368294620465B6BBDE87040184703
:102420000022C0E90122C0E90322C0E90522C0E977
:1024300007224FF480728284014A0260704700BF15
:1024400028CF010810B526220446002118F05CFEB2
:102450002046FFF7E5FF0023A36284F82C30012318
:1024600084F82430044B23604FF6FF73E385238602
:1024700084F83230204610BD7CE201082DE9F0439B
:10248000044685B0254600260AF06EFE494BE663F9
:1024900045F8403B31462622284618F035FE2846AE
:1024A000FFF7BEFF04F16C074FF0FF08424B2364B7
:1024B00026224FF6FF73314684F86680A6663846BA
:1024C000ADF80C3018F020FE3846FFF7A9FF3B4B63
:1024D000E366BDF80C30A4F8923003A904F1980922
:1024E00084F89480384607F088FE04F1CC0848460A
:1024F000FFF7A8FF4046FFF7A5FF314BC4E9403482
:10250000304B3246C4E9423631462846FFF77BFF5E
:102510002846F021FFF702FF28464FF4A071FFF78D
:10252000FFFE4FF07F433246A36631463846FFF741
:102530006AFF0C230DEB03013846ADF80C3007F0B1
:102540005CFE4846A0226121FFF75DFF04F580761E
:10255000032303AA02A94846ADF80830ADF80C30B1
:1025600007F066FC4046C4F8C060D5226121FFF741
:102570004AFF042303AA02A94046ADF80830ADF88B
:102580000C3007F055FC201D2946C4F8F46001907A
:1025900005F0A6FE0198394605F0A2FE01984946CD
:1025A00005F09EFE0198414605F09AFE204605B0D2
:1025B000BDE8F083A8CF0108B0E1010854E30108A9
:1025C00090CF0108DD230008006A7047406A704719
:1025D00070478B8880690A68DB0A50F82300104432
:1025E000704710B5C2B1137BB3B1547BD27A2402C9
:1025F00004F4E0641443C26998B202EB84021388C5
:102600008B4202D192F9020010BD05D8013880B288
:1026100004320028F3D1F7E70020F5E710B52821B0
:10262000044618F0B7FC204610BD000030B589B054
:102630000446BDF850500695BDF84C5005959DF8E0
:10264000405004959DF83C5003959DF838500295F4
:102650009DF8345001959DF8305000950AF090FB9C
:10266000064B2360119BA361129BE361159B2362C0
:10267000169B6362204609B030BD00BFDCCF010865
:1026800030B50368018185B06D460146D3F88430CA
:1026900004462846984795E807003C3484E807003C
:1026A00005B030BD30B50368418185B06D46014647
:1026B000D3F8843004462846984795E807003C3410
:1026C00084E8070005B030BD00220280428082808D
:1026D000C280704780F83610704770B503680446B2
:1026E0001B6B154698472368294620465B6EBDE85C
:1026F0007040184700207047806C704770477047E3
:1027000070477047704770477047704730B4C26871
:1027100044685510034604EB6200D20748BF625973
:102720009B6830BC48BFD358184743682BB18368B7
:102730002BB9C06800F001007047184670470120AF
:10274000704781857047808D704710B54C210446D5
:1027500018F020FC204610BD10B54421044618F0A6
:1027600019FC204610BD10B51021044618F012FCCB
:10277000204610BD10B54FF42271044618F00AFC33
:10278000204610BD08B590F828300BB1FFF71FFEAA
:1027900008BD11B90368DB6A1847012902D1036833
:1027A0001B6BF9E7704700000368828D70B55E6BA4
:1027B000114B1B6804468DB22BB9104B104AAE2149
:1027C000104818F015FC10490988914203D80F4BA6
:1027D0000B4AAF21F4E713F812200D4B1B6853F896
:1027E00022000368DB6A9847281A01B23346204664
:1027F000BDE87040184700BF042501202CD0010817
:102800006ED001089CD0010808250120E3D0010802
:102810000C25012000F5DC72914210B504D103684B
:10282000BDE810405B6B184700F5F673994205D17F
:1028300009F056FABDE81040FFF764BB10BD90F8F0
:1028400029302DE9F0410446002B40D0438D858D81
:1028500001339BB2AB42438539D35B1B828E866BBF
:102860009DB2038ED21A12B2C38D00212846B04702
:10287000638EE28EE76BD21A0646E38D12B2002118
:102880002846B847628E218E0244314412B209B202
:102890002046FFF74CFDA38DE18D628D0B449A42DB
:1028A00015D3002384F82930638509F019FA2146ED
:1028B00009F01CFA206C50B10368DB68984730B10E
:1028C000206C036821469B68BDE8F0411847BDE8CD
:1028D000F08100224FF0FF31C0E900218260704793
:1028E00070B504461D46BDF91060FFF78CFD2368E6
:1028F000294620469B6B9847236831462046DB6B70
:10290000BDE870401847000038B5262204460D4641
:10291000002118F0F9FB2046FFF782FD064B2360EB
:102920002B88E384FF23204684F82830294607F0CB
:1029300064FC204638BD00BF54E301082DE9F04F88
:102940002DED088B04468BB0274600250AF00CFCC1
:10295000D84BE56347F8403B26222946384618F015
:10296000D3FB3846FFF75CFDD34B2364FF2384F889
:10297000663004F16C030BEE103A4FF48073A4F848
:102980009030CE4BE36604F198034FF6FF7A08A926
:102990001846C4E91C55C4E91E55C4E92055C4E9CC
:1029A0002255A566C4F8945008EE103AADF820A060
:1029B000FFF7AAFF04F1C40308A9184608EE903AED
:1029C000ADF820A0FFF7A0FF04F1F00308A9184616
:1029D00009EE103AADF820A0FFF796FFB84BC4F807
:1029E000F03004F59A7308A91846C4E94755C4E9BC
:1029F0004955C4E94B5584F81951A4F81A5109EE08
:102A0000903AADF820A0FFF77FFF04F5B07308A956
:102A100018460AEE103AADF820A0FFF775FF04F54E
:102A2000C673184608A904F5DC790AEE903A04F555
:102A3000F678ADF820A0FFF767FF4846FFF702FDE4
:102A400004F508764046FFF7FDFC2622294630466D
:102A500018F05AFB3046FFF7E3FC9A4BC4F84832B3
:102A60004FF47F03C4F85432974BC4F820324FF030
:102A7000FF33C4E99835954BA4F84CA2C4E99E34C1
:102A8000934BC4F850524FF4A07AC4E9A035CDF866
:102A900000A0F0232A4629463846A4F85852C4F824
:102AA0005C52C4F86852FFF71BFF4FF07F431BEEE8
:102AB000100AA366CDF800A0F0232A462946FFF7A6
:102AC0000FFF844A18EE100A2946FFF79CFC18EE07
:102AD000100A08A9ADF8205007F08FFB2A4618EE1F
:102AE000900A2946FFF78FFC18EE900A08A9ADF866
:102AF000205007F082FBBB2219EE100A6721FFF776
:102B000082FC4FF0090B19EE100A08A9ADF820B0AD
:102B100007F073FB704A594619EE900AFFF773FCF1
:102B20004FF00E0A19EE900A08A9ADF820A007F0A0
:102B300064FB6FF048021AEE100A3C21FFF763FCB9
:102B40000A231AEE100A08A9ADF8203007F055FB49
:102B5000624A1AEE900A6721FFF755FC0A231AEE23
:102B6000900A08A9ADF8203007F047FB5946122219
:102B70004846FFF748FC04F51E7B022308AA07A974
:102B80004846ADF81C30ADF8203007F051F95246F8
:102B9000BB214046C4F8E0B1FFF735FC042308AA86
:102BA00007A94046ADF81C30ADF8203007F040F9D9
:102BB0002E2352460093382181233046C4F814B2A4
:102BC000FFF78EFE4FF07F43C4F85032D4F8203226
:102BD000A4F854520DF1080A5046D3F88430314617
:102BE00098479AE8070004F5177383E807003C4B01
:102BF0001B6804F51B7A2BB93A4B3B4AAE213B4884
:102C000018F0F6F93A4B1B881BB93A4B364AAF21FC
:102C1000F5E7394B2946186800F0D2F9374A0346E0
:102C2000052150460BF0ACFF264B0893251D0123D0
:102C300008A93046C4F868A2ADF8243007F09AF825
:102C40003946284605F04CFB1BEE101A284605F0C5
:102C500047FB18EE101A284605F042FB18EE901AB2
:102C6000284605F03DFB19EE101A284605F038FB02
:102C700019EE901A284605F033FB1AEE101A284672
:102C800005F02EFB1AEE901A284605F029FB49465E
:102C9000284605F025FB4146284605F021FB28463D
:102CA000314605F01DFB20460BB0BDEC088BBDE89E
:102CB000F08F00BF48D20108B0E1010804D9010833
:102CC000BCD1010870C901082CD1010830D201081B
:102CD00015280008C0FEFFFF46FEFFFFF8FEFFFFBD
:102CE000042501202CD001086ED001089CD00108D9
:102CF00008250120E3D001081025012021D1010879
:102D00007047000030B5154D2C78BFF35B8F14F081
:102D100001048DB01ED1284618F03EF9D0B13F23F2
:102D200007930F4B06930F4B0F491048089401224D
:102D3000CDE904430423CDE90132CDE909440A2356
:102D400003940094FFF772FC094818F06FF92846C5
:102D500018F02EF905480DB030BD00BFB4160020A4
:102D6000940A0208A00A0208D8090208B81600202E
:102D7000012D00087047000030B5154D2C78BFF3C9
:102D80005B8F14F001048DB01ED1284618F004F9B1
:102D9000D0B13F2307930F4B06930F4B0F491048B9
:102DA00008940122CDE904430423CDE90132CDE9A1
:102DB0000944142303940094FFF738FC094818F0E1
:102DC00035F9284618F0F4F805480DB030BD00BFBD
:102DD000E0160020980A0208A40A0208E80902087E
:102DE000E4160020752D00087047000030B5154D21
:102DF0002C78BFF35B8F14F001048DB01FD12846EF
:102E000018F0CAF8D8B13F2307930F4B06930F4B26
:102E10000F4910480894CDE9044304220123CDE969
:102E2000012300930B222823CDE909440394FFF7E3
:102E3000FDFB094818F0FAF8284618F0B9F80548DB
:102E40000DB030BD0C1700209C0A0208A80A020829
:102E5000F809020810170020E92D0008002070472B
:102E6000002070470EB403B503AB002153F8042BC8
:102E7000019309F0B7FD02B05DF804EB03B07047B1
:102E80000CB407B504AB53F8042B019309F0AAFD69
:102E900003B05DF804EB02B070470000436C10B55E
:102EA000044673B3038F2BB9184B194AC021194834
:102EB00018F09EF8C38E00EB43035B8C0BB30BF052
:102EC00097F8238F012B03D8134B144AC521EEE743
:102ED000E28E531C9BB2092B194688BFA3F10A014D
:102EE00004EB410140F63F10498C814209D10A2B85
:102EF00004EB420228BF002304EB4303508C5884A8
:102F000051842046BDE810400AF056BF80D2010827
:102F100089D2010834D301087ED301088CD301087B
:102F20000AF002BF10B586B002AC84E806001A466B
:102F30000AAB05930193099B00932146089B08F077
:102F4000F1F906B010BD000038B518BB124B13489C
:102F50001B681349B3B11A689C681A4402605A6826
:102F60001A440A601C440F4B00221A8000F038F803
:102F7000054600F033F80C4B1C600C4B1D600C4BED
:102F8000188007E00B4B03600B4B0B600B4B1C686E
:102F9000002CE8D138BD00BF381700203C170020B6
:102FA0004017002044170020042501200C25012093
:102FB00008250120B40A0208AC0A0208C00A020867
:102FC000044B1B6853F82100034B1B6803EB4000C4
:102FD000704700BF401700203C17002002207047B8
:102FE000004870474817002010B5FFF7C5FE044C95
:102FF0002060FFF7FBFE6060FFF784FEA06010BD5D
:103000004817002070477047704730B4C268446862
:103010005510034604EB6200D20748BF62599B6813
:1030200030BC48BFD358184743682BB183682BB9CD
:10303000C06800F0010070471846704701207047D3
:1030400010B51021044617F0A5FF204610BD10B59D
:10305000DC21044617F09EFF204610BD98308842C0
:1030600008B505D108F03CFEBDE80840FEF73ABFC0
:1030700008BD00002DE9F043044685B02646002532
:103080000AF072F8474BE56346F8403B2946262292
:10309000304618F039F83046FFF7C2F904F16C07F2
:1030A000414B23644FF0FF084FF6FF792622294653
:1030B00084F86680A5663846ADF80C9018F024F8C0
:1030C0003846FFF7ADF9394BE366BDF80C30A4F88C
:1030D000923084F8948003A904F19808384607F0E8
:1030E0008CF829462622404618F00EF84046FFF795
:1030F00097F9012384F8BC302D4BC4F898302D4B40
:10310000C4F8C050C4E933342B4B84F8C450C4E92C
:1031100035352A4629463046A4F8C690A4F8C8900A
:1031200084F8CA90FFF76FF93046F021FFF7F6F800
:1031300030464FF4A071FFF7F3F84FF07F432A4673
:10314000A36629463846FFF75EF90D2303A93846E2
:10315000ADF80C3007F051F840468F225721FFF7A9
:1031600052F9082303AA0DEB03014046ADF80830DD
:10317000ADF80C3006F05CFE04F1CC03C4F8C030AE
:10318000201D3146019005F0ABF80198394605F055
:10319000A7F80198414605F0A3F8204605B0BDE820
:1031A000F08300BF80D40108B0E1010854E30108B6
:1031B0007CE2010868D401085D300008704710B552
:1031C0004FF4AC71044617F0E5FE204610BD10B573
:1031D0000446D0F8540100F0F6F92046BDE810404E
:1031E00008F0FEBB10B50446FEF73CFE014B236021
:1031F000204610BDB4D401087047043870477047AA
:1032000010B51021044617F0C5FE204610BDA0F1F0
:103210000400F5E710B500228260044AC16002F1A3
:10322000080420320460426010BD00BFF8D40108D9
:1032300070477047FFF79FB810B54FF48871044688
:1032400017F0A8FE204610BD10B50446FFF716F98A
:10325000014B2360204610BD28D501087047043873
:103260007047704710B51021044617F093FE2046B2
:1032700010BDA0F10400F5E710B500228260044AF9
:10328000C16002F1080420320460426010BD00BF3A
:1032900054D501087047704790F8A03283F00103BD
:1032A00080F8A0327047FFF72DBA10B54FF42A719D
:1032B000044617F06FFE204610BD034607B593F88D
:1032C000A022F0305AB1B3F9F4102D31E52906DC13
:1032D000B3F9F620019009B2FFF729F8019803B07D
:1032E0005DF804EB09F09FBC034607B593F8A022F4
:1032F000F0305AB1B3F9F4102D39002906DDB3F9D5
:10330000F620019009B2FFF712F8019803B05DF8BA
:1033100004EB09F088BC000010B50446FFF70EFB73
:103320000D4B23600D4BC4F890320423A4F8943263
:103330000B4B1A68C4F896225A681B89A4F89E326F
:1033400000210123A4F88812C4F89A2284F8A0323C
:10335000C4F8A412204610BD88D501080200FFFF62
:1033600068C1010810B50B460446064A052100F560
:103370001B700BF005FC04F50870BDE8104009F067
:1033800052BC00BF7CD50108CB8810B51A440B682D
:103390000C4620469B6DB1F9041012B29847236881
:1033A00020465B69BDE810401847D0F8A4220523E9
:1033B00092FBF3F303EB8303D31A10B500EB430046
:1033C0000B680C469B6DB0F996126FF023022046F5
:1033D0009847236820465B69BDE810401847D0F83D
:1033E000A4320522013393FBF2F202EB82029B1A14
:1033F00010B500EB43000B680C469B6DB0F99612BC
:103400006FF0090220469847236820465B69BDE8B3
:103410001040184738B590F8A03204460D467BB3EB
:10342000B0F99E30B0F99C102B44B3F5A07F0ADBB5
:10343000B0F888320133A0F88832D0F8A4320133D2
:10344000C0F8A4320F4B1AB204F19800FEF76FFFD8
:10345000B4F9CA30B4F9C8105A19B2F5A07F0ADB22
:10346000B4F88832074A0133A4F88832D4F8A43279
:103470000133C4F8A43212B204F1C400FEF757FFBE
:1034800038BD00BFC0FEFFFF10B50446B0F988127A
:10349000FFF768FFD4F8A432092B07DDB4F89432A3
:1034A0000133A4F894320023C4F8A43294F8A03273
:1034B000002B73D0B4F96631B3F5A07F04F5B07179
:1034C00072DAB4F994222046FFF75EFFB4F9923124
:1034D000B3F5A07F04F5C6716ADAB4F994222046E8
:1034E000FFF752FFB4F93A31B3F5A07F04F59A71B2
:1034F00062DA04222046FFF747FFB4F9F430B4F94A
:1035000064219B1A002BB8BF5B42222B10DCB4F95C
:10351000F630B4F966219B1A002BB8BF5B42482BEA
:1035200006DC002384F8A03208F0DAFBFEF7EAFCA0
:10353000B4F9F430B4F990219B1A002BB8BF5B4268
:10354000222B10DCB4F9F630B4F992219B1A002B2F
:10355000B8BF5B42482B06DC002384F8A03208F099
:10356000BFFBFEF7CFFCB4F9F430B4F938219B1A55
:10357000002BB8BF5B42092B10DCB4F9F630B4F96C
:103580003A219B1A002BB8BF5B42212B06DC00239B
:1035900084F8A03208F0A4FBFEF7B4FC2046042116
:1035A000BDE81040FFF736BF2046FFF7FEFE8DE76F
:1035B0002046FFF7FAFE95E72046FFF710FF9CE74D
:1035C00000220260704770477047043870477047A8
:1035D00010B51021044617F0DDFC204610BDA0F107
:1035E0000400F5E710B500228260044AC16002F1D0
:1035F000080420320460426010BD00BFC0D501083D
:1036000070477047FFF7FFBC10B5DC21044617F088
:10361000C1FC204610BD000010B50446FFF72AFD8E
:10362000014B2360204610BDF0D50108F020704703
:103630004FF4A07070472920FEF738B82820FEF715
:1036400035B808B5FEF706F8CA20FEF72FF8C320F4
:10365000FEF710F80820FEF70DF85020FEF70AF8E4
:10366000CF20FEF723F80020FEF704F8C120FEF774
:1036700001F83020FDF7FEFFED20FEF717F864207B
:10368000FDF7F8FF0320FDF7F5FF1220FDF7F2FF2D
:103690008120FDF7EFFFE820FEF708F88520FDF711
:1036A000E9FF0020FDF7E6FF7820FDF7E3FFCB20E0
:1036B000FDF7FCFF3920FDF7DDFF2C20FDF7DAFFD9
:1036C0000020FDF7D7FF3420FDF7D4FF0220FDF7DF
:1036D000D1FFF720FDF7EAFF2020FDF7CBFFEA201E
:1036E000FDF7E4FF0020FDF7C5FF0020FDF7C2FF56
:1036F000B120FDF7DBFF0020FDF7BCFF1B20FDF72D
:10370000B9FFB620FDF7D2FF0A20FDF7B3FFA220D4
:10371000FDF7B0FFC020FDF7C9FF1020FDF7AAFF9D
:10372000C120FDF7C3FF1020FDF7A4FFC520FDF762
:10373000BDFF4520FDF79EFF1520FDF79BFFC7202D
:10374000FDF7B4FF9020FDF795FF3620FDF7AEFFA3
:10375000C820FDF78FFFF220FDF7A8FF0020FDF73E
:1037600089FFB020FDF7A2FFC220FDF783FFB6203E
:10377000FDF79CFF0A20FDF77DFFA720FDF77AFFEC
:103780002720FDF777FF0420FDF774FF2A20FDF7BF
:103790008DFF0020FDF76EFF0020FDF76BFF00207E
:1037A000FDF768FFEF20FDF765FF2B20FDF77EFF9B
:1037B0000020FDF75FFF0020FDF75CFF0120FDF713
:1037C00059FF3F20FDF756FFF620FDF76FFF012060
:1037D000FDF750FF0020FDF74DFF0620FDF74AFFE3
:1037E0002C20FDF763FFC820FDF7AEFF2620FDF774
:1037F0005DFF0120FDF73EFFE020FDF757FF0F20A2
:10380000FDF738FF2920FDF735FF2420FDF732FFB3
:103810000C20FDF72FFF0E20FDF72CFF0920FDF7F0
:1038200029FF4E20FDF726FF7820FDF723FF3C20DF
:10383000FDF720FF0920FDF71DFF1320FDF71AFFFC
:103840000520FDF717FF1720FDF714FF1120FDF7E6
:1038500011FF0020FDF70EFFE120FDF727FF0020FC
:10386000FDF708FF1620FDF705FF1B20FDF702FFFF
:103870000420FDF7FFFE1120FDF7FCFE0720FDF7F9
:10388000F9FE3120FDF7F6FE3320FDF7F3FE42206E
:10389000FDF7F0FE0520FDF7EDFE0C20FDF7EAFE3A
:1038A0000A20FDF7E7FE2820FDF7E4FE2F20FDF7B4
:1038B000E1FE0F20FDF7DEFE1120FDF7F7FEC82028
:1038C000FDF742FF2920FDF7F1FEBDE808402C205E
:1038D000FDF7ECBE08B5FDF7BDFE0321D320FDF7D3
:1038E00001FF80B208BD10B5C4B2022203212046F8
:1038F000FDF766FE0A20FDF7ABFE204600220321FD
:10390000FDF75EFEBDE810400220FDF7A1BE38B510
:103910000446E4B2FDF752FE00212046FDF768FEA2
:10392000012105462046FDF763FE40EA052080B2EE
:1039300038BD10B5C4B240212046FDF759FE03063C
:1039400007D54C212046FDF753FE003818BF012053
:1039500010BD01224B212046FDF732FE20460022F9
:103960004B21FDF72DFE0020F2E773B50423C4B20E
:103970000E461546D7210DEB03022046FDF752FEF9
:10398000019B1BBA1A0DC3F30B23328020462B80F8
:1039900001224B21FDF714FE00224B212046FDF7AA
:1039A0000FFE02B070BD000010B50A4B1A789042AD
:1039B00004460DD0597888420AD00AB141B9012293
:1039C0009C54FDF7FBFD2046BDE81040FFF78BBF80
:1039D00010BD00BF5417002010B5C4B20921204605
:1039E000FDF706FE40F00100C2B209212046BDE805
:1039F0001040FDF7E5BD10B5C4B209212046FDF722
:103A0000F7FD092100F0FE022046BDE81040FDF759
:103A1000D7BD38B5C4B20D4620460A21FDF7E8FDF2
:103A20002843C2B20A212046BDE83840FDF7C8BD90
:103A300007B50190FDF7C3FD01981F21FFF7E9FFCE
:103A4000019803B05DF804EBFFF7C6BF38B5C4B208
:103A50000D4620460A21FDF7CBFD20EA0500C2B243
:103A60000A212046BDE83840FDF7AABD10B504463E
:103A7000FFF7C1FF20461F21BDE81040FFF7E6BF5A
:103A800010B5C0B20C460B21FDF7B2FD204010BDB1
:103A90001F21FFF7F5BF0A46C0B20B21FDF790BD0D
:103AA0001F21FFF7F8BF38B5C4B20D4620461721D5
:103AB000FDF79EFD20EA0500C2B217212046BDE8B1
:103AC0003840FDF77DBD70B5C4B2064604212046DE
:103AD000FDF78EFD042100F0FB0205462046FDF7B0
:103AE0006FFD3046F021FFF7DEFF05F0F8022046BB
:103AF0000421FDF765FD492220212046FDF760FDE8
:103B00000220FDF7A5FD204601222121FDF758FDE9
:103B100020469A224121FDF753FD204601224A21E9
:103B2000FDF74EFD204601224B21FDF749FD2046C1
:103B300000224B21FDF744FD204601225621FDF7CE
:103B40003FFD204601225821FDF73AFD2046012283
:103B50004021FDF735FD2046FF220B21FDF730FD0A
:103B6000BDE870400220FDF773BD0000054BD3F89F
:103B7000882042F47002C3F888204FF000629A60F7
:103B8000704700BF00ED00E008B50B4B1A6842F427
:103B900000721A601A6842F480621A601A6842F46D
:103BA00080721A60032000F02FF80020FDF7F6FF66
:103BB000FDF7D6FD002008BD003C0240034A044B3F
:103BC00011681B780B441360704700BF5817002022
:103BD00080000020014B1868704700BF5817002074
:103BE00038B50446FFF7F6FF631C1CBF054B1B7876
:103BF000054618BFE418FFF7EDFF431BA342FAD3B5
:103C000038BD00BF800000200749CA6822F4E06286
:103C10000302120403F4E063120C134343F0BF6386
:103C200043F40033CB60704700ED00E0164B30B535
:103C3000DC68C4F30224C4F10705231D042D28BF4A
:103C40000425062B4FF0FF338CBF033C002403FAFE
:103C500005F521EA0501A34022EA0302A14000285C
:103C600041EA0203ACBF00F16040084A4FEA031387
:103C7000B8BF00F00F00DBB2AABF00F561401354DB
:103C800080F8003330BD00BF00ED00E014ED00E02F
:103C9000002808DB4209012300F01F0003FA00F0AE
:103CA000014B43F82200704700E100E010B50446E4
:103CB00050B1437903F0FF0213B90271FDF770FDB3
:103CC00001236371002010BD0120FCE710B50446FC
:103CD00030B390F8393003F0FF021BB980F8382078
:103CE000FDF776FD22686168022384F83930136895
:103CF00023F440330B431360536BA16823F0070395
:103D00000B435363136CE16823F47F5323F03F03A9
:103D10000B43136400200123E06384F8393010BDA5
:103D20000120FCE770477047036870B55E681D6846
:103D3000F207044614D5E90512D51A6822F48072F8
:103D40001A60C26B42F00102C26301229A6004232E
:103D500080F83930002380F83830436903B1984740
:103D6000B20616D5AB0414D523681A6822F40052A3
:103D70001A6020229A60E36B43F00203E36304239A
:103D800084F83930002384F8383063690BB1204659
:103D90009847300716D5290514D523681A6822F4E8
:103DA00000621A6008229A60E36B43F00403E36345
:103DB000042384F83930002384F8383063690BB168
:103DC0002046984772070BD56B0509D523681A68FA
:103DD00022F480621A6004229A602046FFF7A2FF54
:103DE000B00714D5A90512D523681A6822F4007209
:103DF0001A6002229A60E36BE363012384F839308E
:103E0000002384F8383023690BB120469847F20626
:103E100013D5EB0411D523681A6822F480521A6076
:103E200010229A60E36BE363012384F839300023A6
:103E300084F838302046FFF776FF70BDF0B590F873
:103E40003830012B4FF002032BD0012280F839309B
:103E500080F8382000EB0113D3E907425D6A184F60
:103E600044EA0242093C012C9CBF05F07F431A43FF
:103E70004FEA0116036888BF42EA056299B9596A98
:103E800039400A435A62012C82699A6103D8426A16
:103E900022F07F429A62012380F83930002380F8B3
:103EA00038301846F0BDD96939400A43DA618219C1
:103EB000012C92691A619CBF25F07F451D62EAE7DB
:103EC000F0FFFC002DE9F74FDFF8C0816D4ADFF805
:103ED000C09100230D6801249C4004EA0506AC4310
:103EE00040F0B7804C6824F0100C4FEA430E0325D5
:103EF0000CF1FF3705FA0EF5012F6FEA050511D811
:103F0000876807EA050ACF6807FA0EF747EA0A0743
:103F10008760476827EA060AC4F300179F4047EA0C
:103F20000A074760C76807EA050A8F6807FA0EF7AD
:103F300047EA0A07BCF1020FC76016D14FEAD30A5D
:103F400000EB8A0A03F0070BDAF820704FEA8B0BBC
:103F50004FF00F0C0CFA0BFC27EA0C0C0F6907FA58
:103F60000BF747EA0C07CAF8207007683D4004F0D9
:103F7000030707FA0EF73D430560E50069D54FF0EA
:103F8000000BCDF804B0D8F844703F4D47F480479B
:103F9000C8F84470D8F8447007F480470197019F2F
:103FA00023F0030707F1804707F59C3703F0030E62
:103FB000D7F808A04FEA8E0E4FF00F0C0CFA0EFC4B
:103FC000A8422AEA0C0C4BD005F58065A84249D0DE
:103FD00005F58065A84247D005F58065A84245D023
:103FE00005F58065A84243D0484543D005F50065F6
:103FF000A84241D005F58065A8423FD005F580650F
:10400000A8423DD005F58065A8420CBF09250A25C8
:1040100005FA0EF545EA0C05BD601568F74314F482
:10402000803F0CBF3D4035431560556814F4003F98
:104030000CBF3D4035435560956814F4801F0CBF9C
:104040003D4035439560D568A40254BF3D4035439B
:10405000D5600133102B7FF43DAF03B0BDE8F08F86
:104060005D46D5E70125D3E70225D1E70325CFE754
:104070000425CDE70525CBE70625C9E70725C7E7D2
:104080000825C5E7003C014000000240003802401E
:10409000001402400369194214BF01200020704738
:1040A0000AB1816170470904FBE701684B6913F4A9
:1040B00080634FF0000210D06FF480634B612023C7
:1040C000026380F83D3080F83E20036C80F83C208D
:1040D00043F00403036401207047184670472DE93C
:1040E000F84606460F4691461D464FEA114A336888
:1040F000BAF1010F0CBF5C699C6927EA0404A4B201
:10410000B4FA84F46409A14501D0002017E06A1CC8
:10411000EED0FFF75FFD089BC01AA84201D8002D22
:10412000E5D100232022336386F83D2086F83E3017
:10413000326C86F83C3042F0200232640120BDE847
:10414000F8862DE9F04104460F4616469846256844
:10415000686927EA000080B2B8B16B695A0516D5C4
:104160002B6843F400732B606FF480636B61202233
:104170000023236384F83D2084F83E30226C42F013
:104180000402226484F83C300120BDE8F081731CF5
:10419000DED0FFF71FFDA0EB0800B04201D8002ED3
:1041A000D5D100232022236384F83D2084F83E30BB
:1041B000226C42F02002E4E770B504460D46164634
:1041C00021684B6913F0400301D0002010E04A69D8
:1041D000D2060ED56FF010024A612022236384F8C4
:1041E0003D2084F83E30226C226484F83C3001206B
:1041F00070BDFFF7EFFC801BA84201D8002DDFD176
:1042000000232022236384F83D2084F83E30226C72
:1042100042F02002E8E770B504460D4616462368D2
:104220005B695B0701D5002070BD2046FFF73DFFAD
:10423000A8B96A1CF3D0FFF7CDFC801BA84201D8B7
:10424000002DECD100232022236384F83D2084F844
:104250003E30226C84F83C3042F02002226401207F
:10426000E2E770B504460D46164623685B691B06F7
:1042700001D5002070BD2046FFF717FFA8B96A1CC2
:10428000F3D0FFF7A7FC801BA84201D8002DECD18A
:1042900000232022236384F83D2084F83E30226CE2
:1042A00084F83C3042F0200222640120E2E7000062
:1042B0002DE9F0431546026885B0DDE90C78994692
:1042C000136843F4807313600E463B46CDF80080BC
:1042D00000224FF001110446FFF701FF236838B1B7
:1042E0001B68DB0502D54FF40073236403200AE04A
:1042F00006F0FE061E61194943463A462046FFF77E
:1043000020FF18B1012005B0BDE8F08323680390B9
:104310005A6903929B690393424639462046039BA0
:10432000FFF79FFF40B1236C042B01BF2268136885
:1043300043F400731360E5E7B9F1010F236802D17C
:10434000EDB21D61DFE72A0A1A613946424620466E
:10435000FFF787FF0028E6D12368F1E7020001009C
:104360002DE9FF479A46036815461A6842F48062B1
:104370001A601A68DDE90C7842F480721A600E4601
:104380003B46CDF8008000224FF001110446FFF7B4
:10439000A6FE236848B11B68DB0502D54FF4007305
:1043A0002364032004B0BDE8F0875FFA86F906F0C5
:1043B000FE061E612A4943463A462046FFF7C1FEE3
:1043C00008B10120EEE7236803905A6903929B69C4
:1043D0000393424639462046039BFFF742FF40B114
:1043E000236C042B01BF2268136843F4007313602D
:1043F000E7E7BAF1010F23681AD1EDB21D61424619
:1044000039462046FFF72DFF0028E9D122681368BE
:1044100043F4807313604FF001110246CDF8008021
:104420003B462046FFF75BFE226860B11368B3E7A6
:104430002A0A1A61394642462046FFF712FF002831
:10444000CED12368D9E749F00103136104494346FB
:104450003A462046FFF775FE003818BF0120A1E755
:104460000200010070B5044608B9012070BD90F843
:104470003D3003F0FF021BB980F83C20FDF7CAF97C
:10448000242384F83D3023681A6822F001021A6060
:104490001A6842F400421A601A6822F400421A6054
:1044A00000F06EFE3F4B65689D4294BF3E4B3F4B14
:1044B00098428CBF00230123002BD6D12268394EAD
:1044C00053683B49B0FBF1F123F03F030B43B54286
:1044D000536088BF4FF49676136A88BF714323F008
:1044E0003F0384BF4FF47A76B1FBF6F101311943F3
:1044F0001162D169431E2B4821F44F41854221F0BE
:10450000FF0132D86D0040F6FC70B3FBF5F30133C8
:10451000034242D0C3F30B030B43D361D4E907300A
:104520001168034321F0C0010B4313609168D4E983
:10453000030321F40341034321F0FF010B43936084
:10454000D4E90530D168034321F0FF010B43D36068
:10455000136843F00103136000202023206484F8D3
:104560003D30206384F83E0080E7A06850B905EB39
:104570004505B3FBF5F30133C3F30B037BB143F400
:104580000043C9E719204543B3FBF5F30133C3F3F7
:104590000B0323B143F44043BEE70423BCE70123EC
:1045A000BAE700BFA08601007F841E00FF083D001F
:1045B00040420F002DE9F743044699460C9E0F46F2
:1045C0009046FFF707FB94F83D30202B054603D0BB
:1045D000022003B0BDE8F08300903C49192301227A
:1045E0002046FFF77CFD0028F2D194F83C30012BE7
:1045F000EED02068012384F83C300368D9075EBF01
:10460000036843F001030360036823F4006303605D
:10461000212384F83D30402384F83E300023236476
:104620000A9B6362BDF82C306385638D2385284B1C
:10463000E362CDE900654B46424639462046FFF726
:1046400037FE00282AD00120C3E7FFF70AFE40B159
:10465000236C042B01BF2268136843F400731360BA
:10466000F1E7636A27681A4612F8011B3961626232
:10467000628D218D013A92B262857A69481E80B2BC
:10468000520720850AD548B15A783A6102336362ED
:10469000638D013B02399BB221856385238D2A46B8
:1046A00031462046002BD0D1FFF7B5FD0028CFD1F1
:1046B0002268136843F400731360202384F83D30AC
:1046C00084F83C0084F83E0083E700BF020010003D
:1046D0000000FFFF2DE9F043044687B09946109F84
:1046E0000D469046FFF776FA94F83D30202B0646AB
:1046F00004D00225284607B0BDE8F0830090764933
:10470000192301222046FFF7EAFC0028F1D194F892
:104710003C30012BEDD02068012384F83C30036845
:10472000DB075EBF036843F001030360036823F403
:1047300000630360222384F83D30402384F83E3038
:10474000002323640E9B6362BDF83C306385638D58
:104750002385624BE3622946CDE900764B4642460B
:104760002046FFF7FDFD054608B10125C2E7228D71
:104770002368B2B902905A6902929A690292029A27
:104780001A6842F400721A60DFF85481238D002BFE
:104790002CD1202284F83D2084F83C3084F83E302F
:1047A000A8E7012A0AD11A6822F480621A600390ED
:1047B0005A6903929A690392039AE1E7022A0ED199
:1047C0001A6822F480621A601A6842F400621A6061
:1047D00004905A6904929B690493049BD4E7059062
:1047E0005A6905929B690593059BCDE7032B56D823
:1047F000012B15D1324639462046FFF7DDFC002853
:10480000B3D123681A69636A1A70636A01336362F9
:10481000238D013B2385638D013B9BB26385B5E707
:10482000022B00963B464FF000024146204619D12C
:10483000FFF755FC002898D123681A6842F40072EB
:104840001A601A69636A1A70626A531C6362238D64
:10485000013B2385638D013B9BB2638523681B6904
:104860005370D2E7FFF73BFC00287FF47EAF23684C
:104870001A6822F480621A601A69636A1A70636A9D
:10488000009601336362238D013B2385638D013BD9
:104890009BB2638502463B4641462046C8E7324606
:1048A00039462046FFF788FC00287FF45EAF236876
:1048B0001A69636A1A70626A531C6362238D013B32
:1048C0002385638D013B9BB2638523685969490742
:1048D0007FF55CAFC3E700BF020010000000FFFFE0
:1048E0000400010010B590F83D30202BDCB216D149
:1048F000242380F83D3003681A6822F001021A6010
:104900005A6A22F010025A625A6A114359621A68AE
:1049100042F001021A6080F83D40002010BD0220E4
:10492000FCE730B590F83D30202BDCB216D10268A0
:10493000242380F83D30136823F001031360556A87
:104940004FF6F0732B400B439BB25362136843F056
:104950000103136080F83D40002030BD0220FCE7D9
:104960000068D1F800C0D201843283182DE9F043E9
:10497000C6685D684C68D1F8189005F470455D60B4
:10498000C5680CF10107C5F30B45C6F30B463D4462
:10499000264445EA06455D60C568CE68C5F30A054C
:1049A0002E449D6805F470459D60C7688D68C7F307
:1049B0000A0701353D4445EA06459D601D690E69BB
:1049C00025F007051D614FF0000E1E619D6991F8ED
:1049D000327091F83180C3F818E091F8305045EA10
:1049E000096545EA082545EA07459D615D6925F0A9
:1049F000FF055D614D695D61DD6925F4E06525F0C8
:104A00000705DD61D1E907573D43DD619D6A4D6AC8
:104A1000C3F828E09D621EB3012E23D0B51E022DDF
:104A200022D9072E0CBF02250125DE6A06F0E026FA
:104A3000DE62A4EB0C048E6AC96A6C436E430334D5
:104A400044EA0644DC621C6B24F4FF6424F007048F
:104A50001C631963835843F001038350BDE8F0835E
:104A60000425E2E70325E0E70225DEE738B5044642
:104A7000002863D090F8A13003F0FF021BB980F842
:104A8000A020FCF723FF022384F8A13023689A6951
:104A900022F070429A61D4E901200243E0689969EA
:104AA0000243206902430A439A619A682449606973
:104AB0000A409A609A6842EA0042A06902439A60FA
:104AC000DA68E0690A40DA60DA6842EA0042206A9D
:104AD0000243DA601A69606A0A401A611A6942EA96
:104AE0000042A06A02431A615A69114059615A6929
:104AF000E16A42EA0142216B0A435A61D96A94F899
:104B0000360094F8355001F07F41D962D96A94F8A3
:104B100034200A4342EA052242EA0042DA625A6B32
:104B200042F006025A639A6942F001029A6100203B
:104B30000123C4F8A40084F8A13038BD0120FCE7AB
:104B400000F800F070477047036870B59E6B5D6BAE
:104B50007207044614D5690712D55A6B22F0040275
:104B60005A630422DA63D0F8A43043F00103C0F89A
:104B7000A430002380F8A12080F8A030FFF7E2FFE6
:104B8000B20716D5AB0714D523685A6B22F0020280
:104B90005A630222DA63D4F8A4301343C4F8A43071
:104BA000042384F8A130002384F8A0302046FFF7C6
:104BB000C9FFF00710D5E9070ED523685A6B22F01C
:104BC00001025A630122DA63002384F8A12084F8E9
:104BD000A0302046FCF7A8FA320711D52B070FD5D5
:104BE00023685A6B22F008025A630822DA63012311
:104BF00084F8A130002384F8A0302046FFF7A3FFFB
:104C000070BD2DE9F04190F8A030012B06460F460B
:104C100094464FF002001FD04FF0010886F8A080A4
:104C200086F8A10034240D4604FB02640FCD38340D
:104C30000FC40FCD0FC40FCD0FC42B6823603046B7
:104C400062463946FFF78CFE33680020C3F82480A3
:104C500086F8A18086F8A000BDE8F08190F8A03029
:104C6000012B4FF0020312D080F8A13003685A6B79
:104C700022F001025A63074A11645A6B42F00102A2
:104C80005A63012380F8A130002380F8A030184631
:104C9000704700BF006801402DE9F341044640B36E
:104CA0000368DD0710D4236898075ED423681A07C9
:104CB00000F1A08023685B0700F1C080A069002894
:104CC00040F0288100202BE08F4B9A6802F00C0204
:104CD000042A07D09A6802F00C02082A0BD15A68FD
:104CE000510208D5884B1B689A03DCD56368002BFA
:104CF000D9D1012014E06268B2F5803F13D11A685F
:104D000042F480321A60FEF765FF7F4E0546336835
:104D10009B03C8D4FEF75EFF401B6428F7D903202D
:104D200002B0BDE8F081784DB2F5A02F2B6807D115
:104D300043F480232B602B6843F480332B60E2E73D
:104D400023F480332B602B6823F480232B60002A0C
:104D5000D9D1FEF73FFF06462B689F03A3D5FEF788
:104D600039FF801B6428F7D9D9E7674B9A6812F09E
:104D70000C0F07D09A6802F00C02082A11D15B6868
:104D80005E020ED4604A13689D0702D5E368012BCA
:104D9000AFD11368216923F0F80343EAC10313601C
:104DA00084E7E268594BB2B101221A60FEF712FFA4
:104DB000554D06462B68980707D52B68226923F0C6
:104DC000F80343EAC2032B6070E7FEF703FF801B82
:104DD0000228EFD9A3E71A60FEF7FCFE4A4E05460B
:104DE000336899077FF562AFFEF7F4FE401B022897
:104DF000F6D994E76269454B82B10122C3F8802E4F
:104E0000FEF7E8FE404E0546736F9F073FF552AF31
:104E1000FEF7E0FE401B0228F6D980E7C3F8802E9B
:104E2000FEF7D8FE384E0546736F98077FF542AF00
:104E3000FEF7D0FE401B0228F6D970E7324B1A6C01
:104E400012F0805228D101921A6C42F080521A64FA
:104E50001B6C03F080530193019B01272C4D2B68A1
:104E6000D9051BD5A368284D012B27D12B6F43F003
:104E700001032B67FEF7AEFE234E054641F288384C
:104E8000336F9B0739D5002F3FF418AF1E4A136CC0
:104E900023F08053136411E70027DFE72B6843F406
:104EA00080732B60FEF796FE06462B68DA05D9D490
:104EB000FEF790FE801B0228F7D930E7052B04D1BE
:104EC0002B6F43F004032B67D0E72A6F22F0010217
:104ED0002A672A6F22F004022A67002BCAD1FEF744
:104EE00079FE41F2883806462B6F9807CBD5FEF73E
:104EF00071FE801B4045F7D911E7FEF76BFE401BA2
:104F00004045BDD90BE700BF0038024000004742D2
:104F100000700040334DAB6803F00C03082B3DD00C
:104F2000314B002202281A662BD1FEF753FE0646AB
:104F30002B6899011FD4D4E907321343626A43EA0C
:104F40008213E26A43EA0263A26A5208013A43EA20
:104F500002436B60244B234D01221A66FEF73AFE92
:104F600004462B689A013FF5ADAEFEF733FE001BF9
:104F70000228F6D9D3E6FEF72DFE801B0228D7D9EA
:104F8000CDE6FEF727FE04462B689B017FF59AAE1F
:104F9000FEF720FE001B0228F6D9C0E601283FF4E8
:104FA000BFAE6B68E26903F4800191427FF4A1AE69
:104FB000216A03F03F028A427FF49BAE616A47F6A2
:104FC000C0721A408A427FF494AEA16A03F4403260
:104FD0008A427FF48EAEE26A03F0706393423FF43C
:104FE00071AE86E60038024000004742134908B51A
:104FF0008B6803F00C03042B1CD0082B1CD14A68CF
:105000004B68496813F4800314BF0D480D48C1F381
:10501000881118BF002302F03F02A1FB0001FBF73B
:1050200037F9064B5B68C3F3014301335B00B0FB08
:10503000F3F008BD0248FCE70248FAE700380240F6
:1050400000127A000024F4002DE9F0410D460446D8
:1050500010B90120BDE8F081444B1A6802F00F023C
:105060008A4228D3226897072DD4D00741D43F4BDA
:105070001A6802F00F02AA4266D8226851076CD45F
:10508000130707D53A4A2169936823F4604343EA3A
:10509000C1039360FFF7AAFF354B364A9B68C3F301
:1050A0000313D35CD840344B1860344B1868FCF7BA
:1050B00075FD0020CEE7CAB21A701B6803F00F031B
:1050C0008B42C6D1CEE72A4B12F0040F1EBF99685F
:1050D00041F4E0519960160742BF996841F460417C
:1050E00099602349A0688B6823F0F00303438B6029
:1050F000BBE762681E4B012A1CD11B6813F4003FFA
:10510000A7D01B4EB36823F003031343B360FEF72D
:1051100061FD41F288380746B368626803F00C030A
:10512000B3EB820FA3D0FEF755FDC01B4045F3D96A
:1051300003208FE7911E01291B6802D813F0007F1E
:10514000DEE713F0020FDBE7EAB21A701B6803F028
:105150000F03AB427FF47DAF8FE70549E0688B68B2
:1051600023F4E05303438B608AE700BF003C024016
:10517000003802401CD601087C000020840000207A
:10518000044B054A9B68C3F38223D35C034A10682F
:10519000D8407047003802402CD601087C0000201F
:1051A0000F2303600B4B9A6802F0030242609A6877
:1051B00002F0F00282609A6802F4E052C2609B68DA
:1051C000DB0803F4E0530361034B1B6803F00F0398
:1051D0000B60704700380240003C0240036813F047
:1051E000430FF7B5044640F08C80236813F00C0F92
:1051F00045D08B4B8B4D00221A67FEF7EBFC064621
:105200002B689F0000F1CF8021684E0715D5D4E9A7
:105210000403D5F888201B0602F0E04243EA80131D
:105220001343C5F88830D5F88C30226A23F4F8533C
:10523000013A43EA0223C5F88C300D0714D5794AA8
:10524000A369D2F8881020691B0701F0706143EA56
:1052500080130B43C2F88830D2F88C30616A23F493
:1052600040330B43C2F88C306D4B6E4E01221A67EF
:10527000FEF7B0FC05463368980040F19B80236838
:105280009B0633D500230193664B674D1A6C42F0A1
:1052900080521A641B6C03F080530193019B2B68AE
:1052A00043F480732B60FEF795FC06462B68D90506
:1052B00040F187805B4D2B6F13F4407340F0888082
:1052C000A36A03F44072B2F5407F564A40F0A480CE
:1052D000916823F0704021F4F81120F440700143EC
:1052E0009160116FC3F30B030B431367206810F039
:1052F00010001FBF4D4B94F82C20C3F8E021002074
:105300004FE0474B474E00229A66FEF763FC054686
:1053100033681F013FD42168CD0741BFD4E9012381
:105320001B0743EA8213C6F88430880715D53D4A27
:10533000E368D2F8840065681B0600F0E04043EAA9
:1053400085130343C2F88430D2F88C00E36920F05F
:105350001F00013B0343C2F88C3049060AD5E368BD
:1053600062681B0643EA8213A26843EA02732D4A6D
:10537000C2F884302A4B2B4E01229A66FEF72AFC93
:10538000054633681A013FF530AFFEF723FC401B9A
:105390000228F6D904E0FEF71DFC401B0228B7D90D
:1053A000032003B0F0BDFEF715FC801B02287FF63A
:1053B00027AFF5E7FEF70EFC401B02287FF65BAF38
:1053C000EEE7FEF707FC801B02287FF66FAFE7E7EA
:1053D000A26A02F4407293423FF472AF2B6F104AFC
:1053E0000121C2F8401E23F440730021C2F8401E80
:1053F0002B672B6FDA077FF563AFFEF7EBFB41F20C
:10540000883706462B6F9B073FF55AAFFEF7E2FB46
:10541000801BB842F6D9C3E7916821F4F8115FE721
:105420000000474200380240007000400010474230
:1054300038B50D460446C8B190F82C3003F0FF0291
:105440001BB980F82D20FCF73DFB022384F82C309B
:10545000211D206800F07CFC62682068294600F06D
:10546000ADFC012384F82C30002038BD0120FCE77E
:1054700038B590F82C30022B04460D46D8B20DD02A
:10548000022384F82C30206800F0D4FC2B68022B17
:105490000CBF0523012384F82C30002038BD10B543
:1054A00090F82C30022B0446D8B209D0022384F89D
:1054B0002C30206800F0E5FC012384F82C3000201B
:1054C00010BDF8B504460E4615461F46226893687F
:1054D00036EA030301D000202DE06B1CF7D0FEF765
:1054E00079FBC01B8542F1D823685A6822F0E0029C
:1054F0005A606268B2F5827F0AD1A268B2F5004FA5
:1055000002D0B2F5806F03D11A6822F040021A600F
:10551000A26AB2F5005F07D11A6822F400521A603D
:105520001A6842F400521A60012384F851300023B3
:1055300084F850300320F8BD38B513464268B2F500
:10554000827F04461FD18268B2F5004F02D0B2F5C7
:10555000806F07D125682868B2F5806F20F0400081
:10556000286007D00A4680212046FFF7AAFF20B90D
:10557000002038BD0A460121F6E7636D43F02003A1
:1055800063650320F5E70A460121EEE737B51346C8
:10559000124A1568124AB5FBF2F54FF47A72554378
:1055A00042680195B2F5827F04460BD10A468021FC
:1055B000FFF787FF78B1636D43F020036365032035
:1055C00003B030BD019B33B1019B013B01932368C4
:1055D0009B681B06F6D40020F2E700BF7C00002089
:1055E00000366E0110B50446002836D000238362D1
:1055F00090F8513003F0FF021BB980F85020FCF7FF
:105600002BFA2168A269022384F851300B6823F039
:1056100040030B60D4E901300343E0680343206991
:10562000034360690343E0690343206A0343A06ABC
:10563000034302F4007003430B60120C636A02F030
:1056400004021A434A60CB6923F40063CB61002053
:105650000123606584F8513010BD0120FCE72DE97D
:10566000F3411E4690F85030012B04460D46174674
:1056700000F09D80012380F85030FEF7ABFA94F8DB
:105680005130012B8046D8B240F08F80002D5AD087
:10569000002F58D0032384F85130A26825630023DB
:1056A0006365C4E91033E786A363E387A3872368B0
:1056B000A786B2F5004F08BF1A68E16804BF42F43C
:1056C00080421A601A6852065EBF1A6842F04002B1
:1056D0001A60B1F5006F626841D10AB1012F07D19C
:1056E00035F8022BDA602563E38E013B9BB2E3863B
:1056F000E38E9BB2A3B9424631462046FFF746FFF0
:1057000000284FD1A36833B901932368DA68019266
:105710009B680193019B606D003818BF012012E067
:1057200022689368980705D5236B33F8021BD16074
:105730002363D9E7FEF74EFAA0EB0800B0420BD383
:10574000711CD5D00320012384F85130002384F844
:10575000503002B0BDE8F081002EC9D1F2E70AB1A5
:10576000012F08D12A781A73236B01332363E38E48
:10577000013B9BB2E386E38E9BB2002BBBD0236838
:105780009A68920702D5226B1278ECE7FEF722FAAC
:10579000A0EB0800B04202D3731CECD0D2E7002E7D
:1057A000E9D1CFE720236365ACE70220CBE70220F5
:1057B000CFE72DE9F7431E4690F850300A9F012BA2
:1057C00004460D46914600F0E680012380F85030F3
:1057D000FEF700FA94F851306268012B8046D9B286
:1057E0000AD0B2F5827F40F0D480A368002B40F04D
:1057F000D080042940F0CD80002D40D0B9F1000FB9
:105800003DD0002E3BD094F85130C4F83890042B92
:105810001CBF052384F8513000236365C4E91033AD
:105820002368E687E6861968A687490658BF19687F
:10583000256358BF41F04001A68658BF1960E16852
:10584000B1F5006F52D10AB1012E07D135F8022B04
:10585000DA60E38E2563013B9BB2E3860125E38E8C
:105860009BB273B9E38F9BB25BB94246394620467F
:10587000FFF78CFE002800F0818020236365012063
:105880002BE021688B689E070DD5E38E9BB253B148
:105890004DB1236B33F8022BCA602363E38E013BC7
:1058A0009BB2E38600258A6812F001020CD0E38FD8
:1058B0009BB24BB1A36BC96823F8021BA363E38FB0
:1058C000013B9BB2E3871546FEF784F9A0EB080085
:1058D000B842C4D3781CC2D00320012384F85130CD
:1058E000002384F8503003B0BDE8F0830AB1012EE4
:1058F00008D12A781A73236B01332363E38E013BAB
:105900009BB2E38601252DE02268936899070ED5A6
:10591000E38E9BB25BB155B1236B1B781373236B82
:1059200001332363E38E013B9BB2E38600252268AB
:10593000916811F001010DD0E38F9BB253B1A36BBD
:10594000D2681A70A36B0133A363E38F013B9BB250
:10595000E3870D46FEF73EF9A0EB0800B8420AD3F4
:105960007B1CB9D1E38E9BB2002BCDD1E38F9BB2D0
:10597000002BC9D179E7002FF4D1ADE7A368002B44
:10598000ABD123680190DA6801929B680193019B77
:10599000A3E70220A1E70220A5E72DE9F7431D4672
:1059A0004368B3F5827F0446894617460CD1836865
:1059B00053B9042380F85130134600950A46FFF787
:1059C000F8FE03B0BDE8F08394F85030012B00F0EE
:1059D0008480012384F85030FEF7FCF894F85130AD
:1059E000012B8046D8B276D1B9F1000F5AD0002FE2
:1059F00058D0A268C4F83890042384F851300026A7
:105A000023686665B2F5004FE787E68608BF1A6827
:105A1000266308BF22F48042C4E91066A686A787E1
:105A200008BF1A601A6856065EBF1A6842F0400244
:105A30001A60E368F3B1E38F9BB2FBB123689A6805
:105A4000D20739D5DA68A36B23F8022BA363E38F5F
:105A5000013B9BB2E387EEE723689A68D00718D52D
:105A6000A26B1B7B1370A36B0133A363E38F013B1A
:105A70009BB2E387E38F9BB2002BEDD142462946D0
:105A80002046FFF759FD18BB606D003818BF012094
:105A900008E0FEF79FF8A0EB0800A84209D3691CB4
:105AA000E8D00320012384F85130002384F85030DB
:105AB00087E7002DDED1F4E7FEF78CF8A0EB0800B5
:105AC000A84202D36B1CB6D0EBE7002DB3D1E8E7B8
:105AD00020236365D8E70220E4E7022071E77047DE
