:020000040800F2
:100000000000032089050008691C00086B1C00081B
:100010006D1C00086F1C0008711C00080000000027
:10002000000000000000000000000000B16D0008AA
:10003000731C000800000000416E0008A56E000857
:10004000D9050008D9050008D9050008D905000818
:10005000D9050008D9050008D9050008D905000808
:10006000D9050008D9050008D9050008D9050008F8
:10007000D9050008D9050008D9050008D9050008E8
:10008000D9050008D9050008D9050008D9050008D8
:10009000D9050008D9050008D9050008D9050008C8
:1000A000D9050008D9050008D9050008D9050008B8
:1000B000D9050008D9050008D9050008D9050008A8
:1000C000D9050008D9050008D9050008D905000898
:1000D000D9050008D9050008D9050008D905000888
:1000E000D9050008D9050008D9050008D905000878
:1000F000D9050008D9050008D9050008D905000868
:10010000D9050008D9050008D9050008D905000857
:10011000D9050008D9050008751C0008D905000894
:10012000D9050008D9050008D9050008D905000837
:10013000D9050008D9050008D9050008D905000827
:10014000D9050008D9050008D9050008D905000817
:10015000D9050008D9050008D9050008D905000807
:10016000D9050008D9050008D9050008D9050008F7
:10017000D9050008D9050008D905000800000000CD
:10018000D9050008D9050008D9050008D9050008D7
:10019000D9050008D9050008D9050008D9050008C7
:0C01A000811C0008D90500088D1C000817
:1001B00010B5054C237833B9044B13B10448AFF3A1
:1001C00000800123237010BD6401002000000000A6
:1001D00038CB010808B5034B1BB103490348AFF303
:1001E000008008BD000000006801002038CB010835
:1001F00001F0FF01102A2BDB10F0070F08D010F8D8
:10020000013B013A8B422DD010F0070F42B3F6D1DB
:10021000F0B441EA012141EA014122F007047FF0F4
:1002200000070023F0E80256083C85EA010586EA4B
:10023000010685FA47F5A3FA87F586FA47F6A5FA87
:1002400087F68EB9EED1F0BC01F0FF0102F0070293
:1002500032B110F8013B013A83EA010313B1F8D13E
:100260000020704701387047002D06BF354603381F
:10027000073815F0010F07D1013015F4807F02BF58
:10028000013015F4C03F0130F0BC0138704700BFA9
:1002900053B94AB9002908BF00281CBF4FF0FF31ED
:1002A0004FF0FF3000F06EB9ADF1080C6DE904CEEF
:1002B00000F006F8DDF804E0DDE9022304B0704741
:1002C0002DE9F047089D04468C46002B40F08380C2
:1002D0008A42174647D9B2FA82F242B1C2F12000EF
:1002E00024FA00F09140974040EA010C94404FEA14
:1002F0001748230CBCFBF8F61FFA87FE08FB16C153
:1003000043EA014306FB0EF1994209D9FB1806F1B5
:10031000FF3080F01981994240F21681023E3B4441
:100320005B1AA4B2B3FBF8F008FB103344EA0344B1
:1003300000FB0EFEA64509D93C1900F1FF3380F001
:100340000581A64540F2028102383C4440EA06405D
:10035000A4EB0E0400261DB1D4400023C5E90043E0
:100360003146BDE8F08702B9FFDEB2FA82F2002A18
:1003700050D1CB1B4FEA174E1FFA87F80126B3FB6B
:10038000FEFC210C0EFB1C3341EA034108FB0CF37D
:100390008B4207D979180CF1FF3002D28B4200F260
:1003A000E9808446C91AA3B2B1FBFEF00EFB10111E
:1003B00043EA014408FB00F8A04507D93C1900F1C5
:1003C000FF3302D2A04500F2D9801846A4EB0804FE
:1003D00040EA0C40BFE78B4209D9002D00F0B18004
:1003E0000026C5E9000130463146BDE8F087B3FA82
:1003F00083F6002E4AD18B4202D3824200F2B880AB
:10040000841A61EB030101208C46002DA8D0C5E9B8
:10041000004CA5E7C2F1200320FA03F6974001FA49
:1004200002F04FEA174ED9403043030CB1FBFEF601
:100430001FFA87F80EFB161143EA014306FB08F189
:10044000994204FA02F409D9FB1806F1FF3C80F046
:100450008D80994240F28A80023E3B445B1A81B211
:10046000B3FBFEF00EFB103341EA034100FB08F33F
:100470008B4207D9791800F1FF3C73D28B4271D9B6
:1004800002383944CB1A40EA064678E7C6F1200C18
:1004900003FA06F422FA0CF31C4320FA0CF701FAD3
:1004A00006F34FEA144E21FA0CF11F433B0CB1FB4B
:1004B000FEF91FFA84F80EFB191143EA014109FB0A
:1004C00008FA8A4502FA06F200FA06F308D961181A
:1004D00009F1FF3048D28A4546D9A9F102092144E1
:1004E000A1EB0A01BFB2B1FBFEF00EFB101147EA0F
:1004F000014700FB08F8B84507D9E71900F1FF31BB
:100500002ED2B8452CD90238274440EA0940A7EB3F
:100510000807A0FB02894F45C64649461AD317D0A3
:100520005DB1B3EB0E0267EB010707FA0CFCF2407A
:100530004CEA0202F740C5E9002700263146BDE833
:10054000F0872E4628460BE70646E9E61846FDE604
:100550004345E5D2B8EB020E69EB04010138DFE751
:100560000846D2E760468DE78146B9E7664675E7FB
:1005700030464AE7ACF1020C394413E702383C44F8
:1005800024E700BF704700BFDFF834D0002103E04C
:100590000C4B5B58435004310B480C4B42189A42A9
:1005A000F6D30B4A02E0002342F8043B094B9A427F
:1005B000F9D303F0ABFD1BF04FFA00F073FE704768
:1005C0000000032064050F080000002064010020E3
:1005D00064010020BC270120FEE700F079BC00F098
:1005E000E7BC704710B5042104461BF0BDF9204656
:1005F00010BD000038B50C4B0C4C18800C4B822001
:1006000019806368984740F6110398420AD1094D52
:1006100023682C60822098472B688220DB689847EB
:10062000002038BD0120FCE7800100204C000020A4
:1006300082010020840100204FF4A071F020FFF718
:10064000D9BF0000F7B52D4D2B6804461B698220E9
:10065000984780B22080002843D02B680DF1060215
:100660005B6901A982209847BDF80620A2F5B47203
:1006700092B20A2A37D90B23B2FBF3F2204B1B8824
:100680009A4201D95A1E92B2BDF8043040F6B831F0
:100690008B422AD8C3F571630E339BB20F21B3FB93
:1006A000F1F3184909888B4201D94B1E9BB2164EB3
:1006B000164D30682F68834281B28CBF591AC91A0F
:1006C000B8B2BA428CBF101A801A89B280B2014403
:1006D0000529C8BF33603368C8BF2A6063802B68B0
:1006E000A38003B0F0BD0022CEE7C3F56D630833ED
:1006F0009BB20E2BD2D80023D9E700BF8401002083
:100700008201002080010020880100208C0100204F
:1007100037B568460D461446FFF794FFBDF8000054
:1007200030B1BDF802302B60BDF8043023600120E9
:1007300003B030BD704770477047012380F87410D4
:1007400080F875307047002070470000034B41640B
:10075000003918BF01211970704700BFB72201206E
:1007600000207047836B0BB10846184770474FF65F
:10077000FF707047406803689B691847704770476F
:10078000704700F0B7BC08B503680446D3F8803062
:100790009847236820469B6F984700F021F923680B
:1007A00020461B6F9847292000F094FF00F018F9AD
:1007B000236820461B6F9847F8E710B5044609F0F8
:1007C0002BFA23682046D3F8AC30BDE81040184718
:1007D00000F082BC00F086BC00F0A6BC00F058BC63
:1007E00000F0A4BC00F0ACBC00F05CBC70B50D46E1
:1007F000194635B9094B0A4A0A4840F2BB211BF099
:10080000E1F8C0E90F52084B003A18BF01221A70F4
:100810000368BDE87040D3F88C301847B4CB0108AA
:10082000ECCB01083ACC0108B622012008B5094BEF
:100830001B888B4203D8084B1B88934205D9074B72
:10084000074A08489E211BF0BDF8074B1980074B4B
:100850001A8008BDAC220120AE2201207FCC010805
:10086000E2CC01083ACC0108B2220120B4220120D6
:1008700008F06ABB10B57C2104461BF075F82046D1
:1008800010BD90F877301BB1406803681B681847AB
:100890001846704710B590F8341090F874400C4B1F
:1008A0008C421A7809D03AB90A4A0B491488088848
:1008B00010800C8001221A7010BD002AFCD0054A5D
:1008C00005491488088810800C800022F3E700BFD7
:1008D000B0220120AC220120AE220120012108B566
:1008E0000022084605F040FF064B4FF0FF3118602C
:1008F00005F090FF00220421012005F0FBFF024BD0
:10090000186008BD940100209001002008B5074B35
:10091000186828B9064B074A074831211BF052F8DE
:10092000BDE808404FF0FF3105F074BF940100208E
:1009300000CE010811CE01084ECE010808B5064BC5
:10094000186828B9054B064A06483A211BF03AF8C0
:10095000BDE8084005F098BF9401002000CE0108D2
:10096000B6CE01084ECE010808B5074B186828B965
:10097000064B074A074847211BF024F8BDE808400A
:10098000002105F047BF00BF9401002000CE010800
:10099000F3CE01084ECE010808B5064B186828B9F9
:1009A000054B064A064854211BF00CF8BDE80840E8
:1009B00005F06ABF9401002000CE010833CF010882
:1009C0004ECE0108044B186820B1002303491A4693
:1009D00005F0D6BF704700BF900100200400002042
:1009E00013B5084C206858B100231A4601A906F037
:1009F00009F820684FF0FF33002201A906F002F841
:100A000002B010BD9001002003685B6C1847002005
:100A1000704703689B6A184740F26F3070470000C8
:100A200010B5074C074B2360204603F075FC064BBE
:100A30002361064B6361064B4FF080629A6010BDE4
:100A4000B426012000B00240710A0008550A0008CF
:100A500000E100E008B5034A034B044836211AF0D0
:100A6000B1FF00BF77CF0108AEFA0108AACF010895
:100A7000024B1B68586803685B691847B82201205D
:100A8000084B10B503600446074803F00FFD074B01
:100A90004FF08062C3F88820BFF34F8FBFF36F8F92
:100AA000204610BD18D00108B426012000E100E066
:100AB00010B50446FFF7E4FF20464FF45A611AF0E0
:100AC00053FF204610BD0000044B1B6893F87620AE
:100AD0000AB1D86C00B99868704700BFB8220120ED
:100AE0002DE9F7430D68202D0C4600F0A180402D24
:100AF00000F09E802A1F56425641B5F5807F00F0D7
:100B00009980A5F500735D425D41FFF7DDFF036845
:100B10009B6A98472368B3F5807F014600F09C806C
:100B200000F28A80202B00F09A80402B00F0978002
:100B3000042B00F0888010290CBF4FF0020C4FF0FE
:100B4000010C00224D4BB4F81480D3F800E0678B01
:100B5000DEF800905A60102929F440390CBF0220B9
:100B60000120A7EB080749EA02029860DF60CEF88F
:100B70000020DEF83420C3F82CC022F00702024324
:100B8000CEF83420DEF8402022F47F5222F03F02DB
:100B90003A43CEF84020228BA2EB08029A6206B9B3
:100BA0009DB3227FFF2A15BF4FF0020C4FF0000CBF
:100BB000C3E90CC2C3F830C00DB310294FEA026E6E
:100BC00050D1E1684FF01F0801EA0802C1F3C42CBC
:100BD000C2EB0222B2FBF8F242EA0E02CCEB0C2C82
:100BE000C1F34511BCFBF8FC42EA0C42C1EB012108
:100BF0004FF03F0CB1FBFCF142EA01225A63C3E91A
:100C0000067000211D4803F011FD1C48012103F06E
:100C10000DFDA38AE28A06B945B3CDE90032236906
:100C2000616816481A4603F0C1FB03B0BDE8F083C3
:100C3000012666E7012568E7B3F5007F7FF47BAF07
:100C40004FF0090C05E010280CBF4FF0020C4FF0DC
:100C5000010C4FF4003275E74FF00A0CF9E74FF042
:100C6000000CF6E7E2684EEA0202C7E7009261680C
:100C70002269024803F07CFBD7E700BFB4260120BD
:100C8000F7B50D46FFF720FF03689B6A98471028C9
:100C9000297F68D1EA6802F01F03C3EB03231F20FA
:100CA000B3FBF0F4C2F3C42344EA0164C3EB0323AF
:100CB000C2F34512B3FBF0F344EA0344C2EB022251
:100CC0003F230221B2FBF3F244EA02242B682848B6
:100CD0006E8B0268082BAB8AA6EB03061368C6600E
:100CE0000CBF4FF400374FF4403723F440333B43FD
:100CF000C0E901711360536B23F007030B43536387
:100D0000136C23F47F5323F03F033343B7F5003FC5
:100D100013641CD10123C0E90C340923C0E9066126
:100D2000C362002103F082FC0121114803F07EFC24
:100D3000B7F5003FAA8AE98A0DD12B690C48CDE9A5
:100D400000211A46194603F031FB03B0F0BD002321
:100D5000C1628362E8E70091134621462A6904488C
:100D600003F006FBF1E7EC6844EA01640121ADE71A
:100D7000B426012070B5044625460A4B0C300026E7
:100D800060602672667245F8203B6022294609F0B1
:100D9000ABF804F55A63EE602435AB42FBD1204634
:100DA00070BD00BF18D00108012070470C207047AB
:100DB0000C2303FB0100083070470C2303FB0100E8
:100DC00008307047012070474FF4447070474FF46B
:100DD000447303FB0100083070474FF4447303FB76
:100DE000010008307047012070471020704700EB69
:100DF00001100830704700EB0110083070470846BA
:100E000001F086B810B5034B0360044607F0C2FD3D
:100E1000204610BDD0D0010810B50446FFF7F2FF00
:100E2000204614211AF0A0FD204610BD10B5034B3A
:100E30000360044607F0AEFD204610BD9CD00108BB
:100E400010B50446FFF7F2FF20464FF446711AF042
:100E50008BFD204610BD000010B5034B0360044617
:100E600007F098FD204610BD68D0010810B5044673
:100E7000FFF7F2FF204618211AF076FD204610BD3C
:100E800010B5084B0360044600F55170FFF7BAFF38
:100E900004F12C00FFF7CAFF04F11400FFF7DCFF98
:100EA000204610BD04D1010808B50248FFF7E8FF4D
:100EB00008BD00BF9C01002010B50446FFF7E0FF0D
:100EC000204640F2B4411AF04FFD204610BD00000C
:100ED0002DE9F34100F04EFF054600F04FFF0024DE
:100EE000014623462846224600940EF0F5FB254B8A
:100EF000254A264D1A60204602F0E8F924480EF0F3
:100F000037FB2B78BFF35B8FDB0735D428461AF00D
:100F10002DFD88B31F4C204B236004F5577604F158
:100F2000140004F12C0804F551776060C4F80880BF
:100F3000E760266107F030FD184B6361404607F01B
:100F40002BFD174BE362384607F026FD154BC4F81E
:100F5000443304F5567002F0D0FD224604F5567174
:100F6000304602F047FC304600F0D2FF28461AF027
:100F700009FD0D481AF044FD0C4802B0BDE8F041EF
:100F8000FFF7FFBB142301207014002098010020FC
:100F9000080000209C01002004D1010868D001084D
:100FA0009CD00108D0D00108A90E0008F41300203D
:100FB0000148FFF7E8BB00BFF413002070B5244CD4
:100FC000244E254B254D23603046FFF7D3FE28469F
:100FD00011F02EFD224B2348DC6000224FF480717B
:100FE000C3E91212204C21490360F020C3E9191211
:100FF00020804FF080711E4C59670121C3E9042203
:10100000C3E90622C3E90822C3E90E22C3E910227C
:10101000C3E91422C3E916221A8583F82A20DA626A
:101020001A861A6683F86C201A67C3E9016583F88B
:10103000781020800F4C83F834104FF4A07020807B
:101040000D4C20800D4802700D4A1A6070BD00BF23
:101050005006002054060020A4CB01087414002080
:10106000F4130020B8220120AC220120010000016D
:10107000B2220120AE220120B4220120B0220120A0
:1010800030CD01080148FFF7FBBC00BF540600202B
:10109000034B902283F85A2383F85823704700BFEC
:1010A00000E100E0094A0A49D3680A48C3F30A0389
:1010B000013B9BB20B801169C1F30A010139018028
:1010C0001364536B43F0010353637047006801409E
:1010D000EE140020EC140020014B986A704700BF0A
:1010E00084680140024B0122996243F8602C7047EA
:1010F0008468014038B5044607F07BFF23685D6EC5
:101100000BF0D8FA01462046A8472368054AD3F8D1
:101110008850A2F5163100232046A847002384F802
:101120004A3038BD005802D007F014BF034B4FF0CF
:1011300080629A604FF080729A60704700E100E030
:10114000084B4FF08062C3F88820BFF34F8FBFF386
:101150006F8F4FF08072C3F88820BFF34F8FBFF3BB
:101160006F8F704700E100E0134B144A1B6C11882D
:101170008B4210B5124C13D1124B198804F062F94E
:10118000226892F86630013382F86630FFF71AFC65
:10119000206808F041FDBDE810400020FFF7CABA02
:1011A00004F050F90020FFF7C6FA20680368BDE894
:1011B00010401B6A184700BF00680140EE14002071
:1011C000B8220120EC14002007B5064BADF806004C
:1011D0001B68054801220DF1060104F032FE03B040
:1011E0005DF804FB10000020A8250120F0B5A1B097
:1011F000102200210AA81AF071FC1422002103A871
:101200001AF06CFC0021302214A81AF067FC0024AC
:10121000224B01941A6C42F080521A641B6C03F04A
:1012200080530193019B1E4B02941A6842F4404282
:101230001A601B6803F4404302930122029B4FF49F
:101240008033CDE9082302254FF48003CDE90E5306
:1012500008274FF4A873042608A8CDE91073129547
:10126000139604F00DF90F23CDE903354FF4A05187
:101270004FF48053CDE9061303A80521059404F02B
:10128000D5FAC023189314A84FF4003314971A9674
:101290001D9304F095FB21B0F0BD00BF0038024063
:1012A0000070004080B59AB002F03EFFFFF79EFF4D
:1012B000142200210DA800241AF010FCB44B009455
:1012C0001A6BB448B44D42F020021A631A6B02F054
:1012D00020020092009A01941A6B42F080021A6375
:1012E0001A6B02F080020192019A02941A6B42F08A
:1012F00004021A631A6B02F004020292029A039427
:101300001A6B42F001021A631A6B02F00102039297
:10131000039A04941A6B42F002021A631A6B02F0E9
:1013200002020492049A05941A6B42F040021A6376
:101330001A6B02F040020592059A06941A6B42F06D
:1013400010021A631A6B02F010020692069A0794B2
:101350001A6B42F008021A631B6B03F00803079331
:1013600022460421079B03F08FFA22468B484FF454
:10137000405103F089FA012602274FF004088548FE
:101380000F940DA9CDE90D86109703F093F90DA9DF
:101390004FF440538148CDE90D36CDE90F4703F0B6
:1013A00089F97F487F4B036002F064FF7E4A7F4BE0
:1013B0002C62C5E9002328464FF48043C5E9043474
:1013C000C5E90244C5E9064403F040FC1021284663
:1013D00003F07CFE2146284603F097FE74487549C9
:1013E00084624FF48273C0E900134FF40075182330
:1013F000C0E906530A23704DC362C0E90244C0E944
:101400000444C0E9084404F0DFFC6C4B0D974FF036
:10141000100CC5E900364023C5E904C34FF4C0737E
:10142000C5E906344FF40063C5E908344FF40053AE
:10143000AB624FF0030A07230DA92846CDE90E3809
:1014400010934FF00809C5E90248CDE911A7139799
:1014500004F0E0FB4FF6FF7209A92846CDE90A9691
:10146000089409960C9404F0F5FB304602F088FECF
:101470004FF6FF7209A92846CDE90979CDE90B6439
:1014800004F0E8FB4FF6FF7209A92846CDE909A947
:10149000CDE90B8404F0DEFB4FF40C730893089B3A
:1014A0000C934FF6FF7209A92846CDE909890B96DE
:1014B00004F0D0FB40F26A51284604F0E2FB3422EB
:1014C00021460DEB02001AF009FB3D4D3D4BAC8669
:1014D000C5E900340923C5E905361D2340F20D1E78
:1014E000C5E9073A40F24313C5E909E3284640F24B
:1014F000471340F21718C5E90B83C5E902442C6174
:1015000085F8364003F0A6FEFF21F022CDE9121443
:101510004FF4806905214FF4A073CDE90E24CDE985
:101520001491CDE916420DA922462846CDE910377F
:10153000254D18930D94ADF864408DF8664003F086
:1015400054FF224B2B601B6898472B68204DDB68AB
:101550009847204BC5E90A47C5E90C442846C5E928
:101560000034C5E9027402F0D7FE3146284603F084
:101570005DF8FFF732F805F067F8174A174821467B
:1015800005F09CF8164B186005F078F8FEE700BFF0
:10159000003802400008024054250120000C02409F
:1015A0000026012000300240005C0040A0860100BF
:1015B000A825012000500140F4260120400100A090
:1015C0000826012000680140F014002014000020CB
:1015D000B426012000B002401CD10108DF0500083C
:1015E000B0260120704770477FB5094B8DF8172052
:1015F0001B6802930DF117020123009201930A4622
:101600000146044803F0CAFB07B05DF804FB00BFC5
:101610000C000020542501207FB500238DF81730E1
:10162000084B1B6802930A4601230DF11701009134
:1016300001930146044803F041FC9DF8170007B0F0
:101640005DF804FB0C000020542501201FB5084C58
:1016500024680092CDE901340A4601230146054879
:1016600003F02CFC003818BF012004B010BD00BFEF
:101670000C0000205425012002F082BD08B5064868
:101680000022042103F000F9BDE8084002480122CD
:10169000042103F0F9B800BF0008024038B50B4D33
:1016A000044601220A484FF4005103F0EDF80022ED
:1016B0000421284603F0E8F82046FFF785FD284678
:1016C0000122BDE83840042103F0DEB800080240E2
:1016D000000C024038B50B4D044600220A484FF476
:1016E000005103F0D1F800220421284603F0CCF881
:1016F0002046FFF769FD28460122BDE83840042155
:1017000003F0C2B800080240000C0240F7B5144EC6
:10171000144F05460C4630460022042103F0B4F86D
:1017200000224FF40051384603F0AEF82846FFF788
:101730004BFD0D4B0D481B68224601A904F014FD1A
:10174000384601224FF40051019C03F09DF83046C9
:101750000122042103F098F8204603B0F0BD00BF39
:1017600000080240000C024010000020A8250120C3
:1017700002F006BD0268034B9A4201D102F0EEBCB2
:10178000704700BF0010004082B00E4B0022009254
:10179000596C41F480415964596C01F480410091C5
:1017A00000990192196C41F0805119641B6C03F08F
:1017B00080530193019B0F216FF0010002B002F0F2
:1017C00005BD00BF003802400268094B9A4282B052
:1017D0000BD100230193074B1A6B42F480521A631A
:1017E0001B6B03F480530193019B02B0704700BF51
:1017F000003002400038024007B50F4B02689A42A1
:1018000016D10022A3F5F0430192196B41F40001B7
:1018100019631B6B03F40003019305215A20019BFC
:1018200002F0D4FC5A2003B05DF804EB02F000BDD6
:1018300003B05DF804FB00BF00B002400268064B35
:101840009A4207D1054A136B23F4000313635A200D
:1018500002F0FCBC704700BF00B0024000380240FC
:101860002DE9F043044689B01422002103A81AF0A0
:1018700035F92268244B9A4243D1244C2448002550
:101880000095236B43F004032363236B03F00403ED
:101890000093009B0195236B43F001032363236BAB
:1018A00003F001030193019B4FF012094FF4007301
:1018B0004FF001080327042603A9CDE90339CDE938
:1018C0000587079602F0F6FE4FF4807311480796DD
:1018D00003A9CDE90339CDE9058702F0EBFE0295B6
:1018E000236C43F400032364236C03F4000302938A
:1018F000029B236A43F400032362236A23F4000358
:10190000236209B0BDE8F083005C0040003802406B
:101910000008024000000240F0B504468DB01422D9
:10192000002107A81AF0DAF82268574B9A4240F0D3
:10193000A98003F55043002400945A6C534842F0A8
:1019400080625A645A6C02F080620092009A01949C
:101950001A6B42F020021A631A6B02F02002019205
:10196000019A02941A6B42F001021A631A6B02F098
:1019700001020292029A03941A6B42F002021A6365
:101980001A6B02F002020392039A04941A6B42F05B
:1019900040021A631A6B02F040020492049A059402
:1019A0001A6B42F004021A631A6B02F004020592E9
:1019B000059A06941A6B42F008021A631B6B03F037
:1019C0000803069302250E26069B0B964FF48063B0
:1019D00007A9CDE90735CDE9094502F06BFE41F6CF
:1019E00058032B480B9607A9CDE907350927CDE900
:1019F000094502F05FFE032326480B9707A9CDE9AE
:101A00000735CDE9094502F055FE4FF470632148D2
:101A10000B9607A9CDE90735CDE9094502F04AFE45
:101A20004FF40C631C480B9607A9CDE90735CDE9A7
:101A3000094502F03FFEC02318480B9607A9CDE9DF
:101A40000735CDE9094502F035FE082314480B9609
:101A500007A9CDE90735CDE9094502F02BFE4FF482
:101A6000A0530D480B9707A9CDE90735CDE90945E6
:101A700002F020FE58202246052102F0A7FB582044
:101A800002F0D6FB0DB0F0BD00680140001402402A
:101A9000000002400004024000180240000802401A
:101AA000000C024010B5044688B01422002103A89F
:101AB0001AF014F82268154B9A4224D103F56843B2
:101AC00000220192596C41F480115964596C01F45F
:101AD0008011019101990292196B41F02001196363
:101AE0001B6B059203F0200302934FF46071029B7D
:101AF0000223CDE9031303200523CDE9060303A93F
:101B0000034802F0D7FD08B010BD00BF00500140EF
:101B1000001402402DE9F0412C4B1C6886B0002CCB
:101B200050D14FF00108C3F80080294B00949A6B04
:101B3000284842EA08029A639B6B039403EA08036D
:101B40000093022703260C25009B01A94FF63F03B3
:101B5000CDE90137CDE9046502F0ACFD1E480595DD
:101B600001A9CDE90187CDE9034602F0A3FD48F2C2
:101B700033131A48059501A9CDE90137CDE903468C
:101B800002F098FD4FF683731548059501A9CDE93C
:101B90000137CDE9034602F08DFD4CF20373114885
:101BA000059501A9CDE90137CDE9034602F082FD93
:101BB00060230D48059501A9CDE90137CDE903461C
:101BC00002F078FD06B0BDE8F08100BFF4140020FB
:101BD0000038024000140240000802400018024091
:101BE00000100240000C02400004024030B50146E3
:101BF00089B00022362002F0E9FA362002F018FB04
:101C00000025154B02951A6C144C42F010021A6410
:101C10001B6C03F01003029301A903A8029B03F0BD
:101C2000B1FE03F09FFE0E4B236040F2E733E3600A
:101C300040000C4BB0FBF3F001386060204625619A
:101C4000A56004F045FC20B9204604F025FB09B04E
:101C500030BD0120FBE700BF0038024028270120EB
:101C60000010004040420F007047FEE7FEE7FEE72D
:101C7000FEE77047014804F023BB00BF282701207E
:101C8000014803F055BB00BF08260120014802F0BF
:101C900043BC00BFB42601200120704708B519F0ED
:101CA000C3FE162303604FF0FF3008BD08B519F0DE
:101CB000BBFE16230360FEE770B50E4614460025F2
:101CC000A54201DB204670BDAFF3008070550135A1
:101CD000F6E770B50E4614460025A54201DB204606
:101CE00070BD705DAFF300800135F6E74FF0FF3057
:101CF00070474FF400534B6000207047012070473D
:101D00000020704708B50A4B1968024609B909490D
:101D100019601868694602448A4206D919F084FE9F
:101D20000C2303604FF0FF3008BD1A60FCE700BFD2
:101D3000F8140020C0270120704710B50421044684
:101D400019F012FE204610BD08B503290FD8DFE8B0
:101D500001F0020A060A01F005FB006808BD01F067
:101D600001FB8068FAE701F0FDFA4068F6E7002021
:101D7000F4E700000048704754D101081120704773
:101D800013B5002451B1036801948DF8034001AAF2
:101D90009C680DF10303A04702B010BD0846FBE7A5
:101DA0004089704780897047808870478379808830
:101DB000184480B27047C07900F07F007047C07946
:101DC000C0097047704710B50821044619F0CCFDD2
:101DD000204610BD7047704700F596730868496843
:101DE00003C37047704770474160704770470000F9
:101DF000064BC0F848310023C0F84C3100F5A07301
:101E0000C0F84401C0F83C31704700BFD52000083D
:101E10000123037270477047704710B4C26841686D
:101E20005410034601EB6200D20748BF0A599B6871
:101E30005DF8044B48BFD358184743682BB18368FB
:101E40002BB9C06800F001007047184670470120A8
:101E5000704710B50C21044619F086FD204610BDD0
:101E600010B51021044619F07FFD204610BD10B5B5
:101E70004FF4AC71044619F077FD204610BD08B54B
:101E80000AF018FCBDE808400AF0F2BF10B504469D
:101E9000D0F83C0158B10368DB68984738B1D4F8F2
:101EA0003C0103689B6898470023C4F83C3110BD8F
:101EB000F8B5044617460E460AF032FC104B0025D2
:101EC000C4E954760F4E1C60C4E952550E4B30687D
:101ED00023600E4BC4E95035036801219B68C4E9B7
:101EE0004E559847284601F0F1F9336893F876206B
:101EF0000AB1D86C00B9986812F0E5FB2046F8BD2D
:101F000004230120B8220120FCD80108E4D80108EC
:101F1000064BC0F848310023C0F84C3100F5A073DF
:101F2000C0F84401C0F83C31704700BFD52000081C
:101F3000064BC0F848310023C0F84C3100F5A073BF
:101F4000C0F84401C0F83C31704700BF3922000896
:101F5000064BC0F848310023C0F84C3100F5A0739F
:101F6000C0F84401C0F83C31704700BF9D23000811
:101F7000064BC0F848310023C0F84C3100F5A0737F
:101F8000C0F84401C0F83C31704700BF012500088B
:101F900003685B6A184700002DE9F84F0746906810
:101FA000DDF828A0994603681B6A884614469847BE
:101FB000DB2805D8414B424AA321424819F002FDD3
:101FC000606803681B6A98470F2803D83E4B3C4A59
:101FD000A421F2E7E06803681B6A98470B2803D83E
:101FE0003A4B374AA521E8E70AF064FB0AF07EFB8A
:101FF000D9F8000010B10368DB689847D9F80000F1
:1020000010B103681B689847386810B103685B69B2
:102010009847D8F8000010B103685B6898473868A3
:1020200010B103681B689847D8F8000010B1036826
:102030009B689847E0680021FFF7AAFF4FF0000B6C
:10204000234B03600546C0F804B080F808B0A068D0
:10205000036859465B6A9847064601F0ADFD606823
:10206000036859465B6A98473146044601F08AFD89
:10207000C9F80050C8F800403E60E4B1231DCAF81A
:1020800000303368C4F808A03046DB68F463984732
:10209000236820461B689847294630460BF0FAFE15
:1020A0002B6828461B6998472B6828465B69984728
:1020B0002046BDE8F88F2346E1E700BFB8D201080B
:1020C00046D3010846D401088DD4010830D5010853
:1020D00048D9010807B5D0F854310093D0F8502101
:1020E000044B00F59C710448FFF756FF03B05DF800
:1020F00004FB00BFF8220120F42201202DE9F84F53
:1021000007469068DDF828A0994603681B6A884650
:1021100014469847B0F5C67F05D2414B414AA321EA
:10212000414819F04FFC606803681B6A98470F2804
:1021300003D83E4B3B4AA421F2E7E06803681B6AE0
:1021400098470B2803D83A4B364AA521E8E70AF00E
:10215000B1FA0AF0CBFAD9F8000010B10368DB68D5
:102160009847D9F8000010B103681B689847386891
:1021700010B103685B699847D8F8000010B1036894
:102180005B689847386810B103681B689847D8F8AF
:10219000000010B103689B689847E0680021FFF7D2
:1021A000F7FE4FF0000B234B03600546C0F804B068
:1021B00080F808B0A068036859465B6A98470646ED
:1021C00001F0C8FC6068036859465B6A984731466D
:1021D000044601F0A5FCC9F80050C8F800403E6074
:1021E000E4B1231DCAF800303368C4F808A03046B3
:1021F000DB68F4639847236820461B6898472946A4
:1022000030460BF047FE2B6828461B6998472B6821
:1022100028465B6998472046BDE8F88F2346E1E7EA
:10222000B8D20108D3D5010846D401088DD40108DD
:1022300030D5010848D9010807B5D0F854310093CA
:10224000D0F85021044B00F59C710448FFF756FF6D
:1022500003B05DF804FB00BFF8220120F422012046
:102260002DE9F84F07469068DDF828A099460368E5
:102270001B6A884614469847B0F5447F05D2414B07
:10228000414AA321414819F09DFB606803681B6A1D
:1022900098470F2803D83E4B3B4AA421F2E7E06859
:1022A00003681B6A98470B2803D83A4B364AA52186
:1022B000E8E70AF0FFF90AF019FAD9F8000010B1BE
:1022C0000368DB689847D9F8000010B103681B6801
:1022D0009847386810B103685B699847D8F80000E0
:1022E00010B103685B689847386810B103681B68D1
:1022F0009847D8F8000010B103689B689847E068D9
:102300000021FFF745FE4FF0000B234B036005460D
:10231000C0F804B080F808B0A068036859465B6A4A
:102320009847064601F000FB6068036859465B6AFF
:1023300098473146044601F0A7FAC9F80050C8F89A
:1023400000403E60E4B1231DCAF800303368C4F891
:1023500008A03046DB68F4639847236820461B6872
:102360009847294630460BF095FD2B6828461B6997
:1023700098472B6828465B6998472046BDE8F88F48
:102380002346E1E7B8D20108D7D6010846D40108B0
:102390008DD4010830D5010848D9010807B5D0F817
:1023A00054310093D0F85021044B00F59C7104483F
:1023B000FFF756FF03B05DF804FB00BFF8220120D1
:1023C000F42201202DE9F84F07469068DDF828A097
:1023D000994603681B6A884614469847B0F5B47F4F
:1023E00005D2414B414AA321414819F0EBFA6068FC
:1023F00003681B6A98470F2803D83E4B3B4AA42129
:10240000F2E7E06803681B6A98470B2803D83A4B49
:10241000364AA521E8E70AF04DF90AF067F9D9F83C
:10242000000010B10368DB689847D9F8000010B1CC
:1024300003681B689847386810B103685B69984760
:10244000D8F8000010B103685B689847386810B18D
:1024500003681B689847D8F8000010B103689B68B0
:102460009847E0680021FFF793FD4FF0000B234BE6
:1024700003600546C0F804B080F808B0A06803689F
:1024800059465B6A9847064601F0E6F960680368BA
:1024900059465B6A98473146044601F0C3F9C9F8CA
:1024A0000050C8F800403E60E4B1231DCAF8003077
:1024B0003368C4F808A03046DB68F46398472368A3
:1024C00020461B689847294630460BF0E3FC2B68F2
:1024D00028461B6998472B6828465B699847204621
:1024E000BDE8F88F2346E1E7B8D20108D5D7010847
:1024F00046D401088DD4010830D5010848D9010817
:1025000007B5D0F854310093D0F85021044B00F5B2
:102510009C710448FFF756FF03B05DF804FB00BF51
:10252000F8220120F422012090F8252012B103683E
:102530005B69184770470020704781807047C180F1
:1025400070470181704741817047704770477047FD
:102550007047704710B4C4880368121B84885B6D91
:10256000091B12B25DF8044B09B218474FF6FF730E
:1025700083814FF0FF3303621368C36110607047BB
:102580007047704770477047704790F825201AB120
:1025900090F8242002B11860704730B503680181BB
:1025A00085B06D460146D3F88430044628469847E6
:1025B00095E807003C3484E8070005B030BD30B52D
:1025C0000368418185B06D460146D3F884300446E6
:1025D0002846984795E807003C3484E8070005B092
:1025E00030BD0022028042808280C280704780F825
:1025F0003610704770B5036804461B6B1546984744
:102600002368294620465B6EBDE8704018470020CD
:102610007047806C7047704770477047704730B4A0
:10262000C26844685510034604EB6200D20748BFF5
:1026300062599B6830BC48BFD358184743682BB1D8
:1026400083682BB9C06800F00100704718467047D6
:102650000120704710B54C21044619F085F9204639
:1026600010BD10B51021044619F07EF9204610BDAA
:1026700010B54FF4B471044619F076F9204610BD38
:102680000368828D70B55E6B114B1B6804468DB27A
:102690002BB9104B104AAE21104819F093F910498C
:1026A0000988914203D80F4B0B4AAF21F4E713F886
:1026B00012200D4B1B6853F822000368DB6A984711
:1026C000281A01B233462046BDE87040184700BFC3
:1026D0000823012064D90108A6D90108D4D901082A
:1026E0000C2301201BDA01081023012008B500F19A
:1026F0009803994205D109F0DDFFBDE80840FFF7D6
:1027000027BCCC30814205D109F0D4FFBDE8084098
:10271000FFF7FEBB08BD00224FF0FF31C0E90021EA
:1027200082607047074A02600022C0E90122C0E9C6
:102730000322C0E90522C0E907224FF48072828497
:10274000704700BF94F1010870B5036804461B6B25
:10275000154698472368294620465B6BBDE87040C4
:10276000184770B504461D46BDF91060FFF7ECFF31
:102770002368294620469B6B9847236831462046AC
:10278000DB6BBDE87040184710B5262204460021D7
:1027900019F0A4F92046FFF7C5FF0023A36284F8CF
:1027A0002C30012384F82430044B23604FF6FF7350
:1027B000E385238684F83230204610BD94ED01086D
:1027C0002DE9F04F04468DB0A04600250BF0B6F978
:1027D0007C4BE56348F8403B26222946404619F0E9
:1027E0007DF94046FFF79EFF04F16C07764B2364AA
:1027F000FF2626224FF6FF7B294684F86660A566F1
:102800003846ADF828B019F069F93846FFF78AFF65
:102810006E4BE366BDF82830A4F892300AA904F1A3
:10282000980A84F89460384608F0D1F904F1CC098C
:102830005046FFF7A9FF04F580764846FFF7A4FF4E
:1028400026222946304619F049F93046FFF76AFF3B
:102850005F4BC4F828314FF47F03C4F834315D4B2B
:10286000C4F800314FF0FF33C4E950355A4BA4F897
:102870002CB1C4E95634594BC4F83051C4E9583529
:102880004FF4A0734FF07F4B00932A46F023294664
:102890004046A4F83851C4F83C51C4F84851FFF7F9
:1028A00060FF2A46C4F868B029463846FFF74CFF57
:1028B0000E230AA93846ADF8283008F088F9A0227E
:1028C00061215046FFF740FF4FF005030AAA09A90E
:1028D0005046ADF82430ADF8283007F093FF04F5EA
:1028E000AC73C4F8C030D522612148460393FFF78A
:1028F0002BFF0622ADF82420ADF8282009A90AAA4A
:10290000484607F07FFF039BC4F8F4302E230F22C4
:102910000093382181233046FFF723FFD4F800319C
:10292000C4F830B10DF1100B5846D3F88430A4F838
:102930003451314698479BE8070004F59E7383E8BD
:102940000700274B1B6804F5A67B2BB9254B264AAD
:10295000AE21264819F036F8254B1B881BB9254BAC
:10296000214AAF21F5E7244B2946186800F0EAFC1C
:10297000224A0346052158460CF0ECFD144B0A93FD
:102980000AA901233046C4F848B1ADF82C3007F04D
:10299000DBFE201D4146039006F082F8039839467D
:1029A00006F07EF80398514606F07AF803984946F7
:1029B00006F076F80398314606F072F820460DB01E
:1029C000BDE8F08F0CDB0108C8EC01086CEE0108D3
:1029D000B0D2010864DA0108F4DA0108ED26000833
:1029E0000823012064D90108A6D90108D4D9010817
:1029F0000C2301201BDA01081423012059DA0108F5
:102A0000006A7047406A704770478B8880690A681F
:102A1000DB0A50F823001044704710B5C2B1137B95
:102A2000B3B1547BD27A240204F4E0641443C26943
:102A300098B202EB840213888B4202D192F9020011
:102A400010BD05D8013880B204320028F3D1F7E771
:102A50000020F5E710B52821044618F085FF204630
:102A600010BD000030B589B00446BDF85050069541
:102A7000BDF84C5005959DF8405004959DF83C508C
:102A800003959DF8385002959DF8345001959DF8B6
:102A9000305000950AF05EFE064B2360119BA36147
:102AA000129BE361159B2362169B6362204609B06B
:102AB00030BD00BF40DB010808B590F828300BB1ED
:102AC000FFF732FD08BD7047704770477047704789
:102AD0007047704730B4C26844685510034604EB31
:102AE0006200D20748BF62599B6830BC48BFD358C8
:102AF000184743682BB183682BB9C06800F0010008
:102B00007047184670470120704781857047808D57
:102B1000704710B54421044618F026FF204610BD2A
:102B200010B51021044618F01FFF204610BD10B547
:102B30004FF43C71044618F017FF204610BD00F515
:102B4000DC72914210B504D103681B6BBDE81040E4
:102B5000184700F5F672914202D10368DB6AF5E787
:102B600000F50872914202D103685B6BEEE700F555
:102B70001573994205D109F09DFDBDE81040FFF79E
:102B8000F7B910BD90F829302DE9F0410446002B2B
:102B900040D0438D858D01339BB2AB42438539D301
:102BA0005B1B828E866B9DB2038ED21A12B2C38DCE
:102BB00000212846B047638EE28EE76BD21A0646A4
:102BC000E38D12B200212846B847628E218E02445E
:102BD000314412B209B22046FFF7BCFCA38DE18D4F
:102BE000628D0B449A4215D3002384F82930638503
:102BF00009F060FD214609F063FD206C50B10368C7
:102C0000DB68984730B1206C036821469B68BDE8BB
:102C1000F0411847BDE8F08138B5262204460D463C
:102C2000002118F05BFF2046FFF77CFD064B236078
:102C30002B88E384FF23204684F82830294607F0B8
:102C4000C6FF204638BD00BF6CEE01082DE9F04FED
:102C50002DED088B04468DB0274600250AF06EFF47
:102C6000C74BE56347F8403B26222946384618F013
:102C700035FF3846FFF756FDC24B2364FF2384F827
:102C8000663004F16C03A56618460BEE903AFFF728
:102C900049FDBD4BE36604F198034FF6FF79C4F894
:102CA00094500AA9184608EE103AADF82890FFF79C
:102CB000B3FF04F1C4030AA9184608EE903AADF830
:102CC0002890FFF7A9FF04F1F0030AA9184609EEBE
:102CD000103AADF82890FFF79FFFAC4BC4F8F030E6
:102CE00004F59A73C4E94755C4E94955C4E94B55FD
:102CF00084F81951A4F81A510AA9184609EE903A15
:102D0000ADF82890FFF788FF04F5B0730AA91846BC
:102D10000AEE103AADF82890FFF77EFF04F5C6736F
:102D20000AA918460AEE903AADF82890FFF774FF0A
:102D300004F5DC73184604F5F67A0BEE103A04F548
:102D4000087BFFF721FD5046FFF71EFD04F51578BF
:102D50005846FFF719FD04F522764046FFF714FDAB
:102D600029462622304618F0B9FE3046FFF7DAFC35
:102D7000874BC4F8B0324FF47F03C4F8BC32854BA4
:102D8000C4F888324FF0FF33C4E9B235824BA4F85F
:102D9000B492C4E9B834814BC4F8B8524FF4A07966
:102DA000C4E9BA352A462946A4F8C052C4F8C45228
:102DB000C4F8D052CDF80090F0233846FFF7D1FC8C
:102DC0004FF07F432A4629461BEE900AA366CDF8B2
:102DD0000090F023FFF7C5FC714A294618EE100A4F
:102DE000FFF7B2FC18EE100A0AA9ADF8285007F058
:102DF000EEFE2A46294618EE900AFFF7A5FC18EECB
:102E0000900A0AA9ADF8285007F0E1FEBB2219EE9E
:102E1000100A6721FFF798FC0B2319EE100A0AA984
:102E2000ADF8283007F0D3FE5E4A19EE900A09216A
:102E3000FFF78AFC102319EE900A0AA9ADF8283092
:102E400007F0C5FE6FF048021AEE100A3C21FFF7AA
:102E50007BFC4FF00C091AEE100A0AA9ADF8289075
:102E600007F0B5FE6FF0D7021AEE900A6721FFF760
:102E70006BFC1AEE900A0AA9ADF8289007F0A7FE9D
:102E80001BEE100A4FF48272B421FFF75DFC4FF085
:102E9000030902231BEE100A0AAA09A9ADF824307F
:102EA000ADF8289007F0AEFC04F538732946C4F855
:102EB000E0314FF4827250460393FFF745FC022342
:102EC0000AAA09A95046ADF82430ADF8289007F0B9
:102ED00099FC039BC4F81432122209215846FFF7CB
:102EE00033FC4FF004030AAA09A95846ADF8243070
:102EF000ADF8283007F086FC039BC4F848320E2258
:102F0000BB214046FFF720FC06230AAA09A9404638
:102F1000ADF82430ADF8283007F074FC039BC4F8FA
:102F20007C322E230E220093382181233046FFF776
:102F300018FC4FF07F43C4F8B832D4F88832A4F8B4
:102F4000BC5204AD2846D3F884303146984795E802
:102F5000070004F5317383E80700134B1B6804F581
:102F600035752BB9114B124AAE21124818F02AFDC3
:102F7000114B1B88032B23D8104B0D4AAF21F4E7CC
:102F800024DC0108C8EC010888E3010898DB01088B
:102F9000B0D2010864DA01080CDC01083F2B0008FC
:102FA000C0FEFFFFC6FEFFFF0823012064D9010811
:102FB000A6D90108D4D901080C2301201BDA010885
:102FC0002C4B4946186800F0BDF92B4A03460521F1
:102FD00028460CF0BFFA294BC4F8D0520A93251D9D
:102FE0004FF004030AA93046ADF82C3007F0ACFBD3
:102FF0003946284605F054FD1BEE901A284605F088
:103000004FFD18EE101A284605F04AFD18EE901AEA
:10301000284605F045FD19EE101A284605F040FD3A
:1030200019EE901A284605F03BFD1AEE101A2846B4
:1030300005F036FD1AEE901A284605F031FD1BEE1C
:10304000101A284605F02CFD5146284605F028FDAB
:103050005946284605F024FD4146284605F020FD46
:103060002846314605F01CFD20460DB0BDEC088B0E
:10307000BDE8F08F1423012059DA0108B0D201080D
:103080007047000030B5154D2C78BFF35B8F14F0FE
:1030900001048DB01ED1284618F068FCD0B13F2342
:1030A00007930F4B06930F4B0F49104808940122CA
:1030B000CDE904430423CDE90132CDE909440A23D3
:1030C00003940094FFF7CEFC284618F05BFC0848F8
:1030D00018F096FC05480DB030BD00BFFC14002070
:1030E000D41D0208E01D0208B81C020800150020CB
:1030F000813000087047000030B5154D2C78BFF3C3
:103100005B8F14F001048DB01ED1284618F02EFC00
:10311000D0B13F2307930F4B06930F4B0F49104835
:1031200008940122CDE904430423CDE90132CDE91D
:103130000944142303940094FFF794FC284618F0E4
:1031400021FC084818F05CFC05480DB030BD00BFFC
:1031500028150020D81D0208E41D0208C81C02081A
:103160002C150020F53000087047000030B5164DD2
:103170002C78BFF35B8F14F001048DB020D128466A
:1031800018F0F4FBE0B13F230793104B0693104B6C
:10319000104911480894CDE9044301220423CDE9E4
:1031A00001320823009312222823CDE90944039415
:1031B000FFF758FC284618F0E5FB084818F020FCFB
:1031C00005480DB030BD00BF54150020DC1D0208BD
:1031D000E81D0208D81C02085815002069310008B3
:1031E00000207047002070470EB403B503AB0021E8
:1031F00053F8042B01930AF0DFF802B05DF804EBFA
:1032000003B070470CB407B504AB53F8042B01931B
:103210000AF0D2F803B05DF804EB02B0704700008A
:10322000436C10B5044673B3038F2BB9184B194A7E
:10323000C021194818F0C6FBC38E00EB43035B8C1A
:103240000BB30BF0BFFB238F012B03D8134B144A96
:10325000C521EEE7E28E531C9BB2092B194688BFAD
:10326000A3F10A0104EB410140F63F10498C814271
:1032700009D10A2B04EB420228BF002304EB4303CD
:10328000508C588451842046BDE810400BF07EBA23
:103290005CDC010865DC010810DD01085ADD01086D
:1032A00068DD01080BF02ABA10B586B002AC84E8DC
:1032B00006001A460AAB05930193099B0093214629
:1032C000089B08F019FD06B010BD000038B518BB0A
:1032D000124B13481B681349B3B11A689C681A440F
:1032E00002605A681A440A601C440F4B00221A807C
:1032F00000F038F8054600F033F80C4B1C600C4B1E
:103300001D600C4B188007E00B4B03600B4B0B60F0
:103310000B4B1C68002CE8D138BD00BF8015002085
:1033200084150020881500208C150020082301201A
:10333000102301200C230120001E0208EC1D0208AE
:10334000241E0208044B1B6853F82100034B1B6822
:1033500003EB4000704700BF881500208415002053
:1033600005207047004870479015002010B5FFF702
:10337000C3FE044C2060FFF7F9FE6060FFF782FE99
:10338000A06010BD9015002070477047704730B4A2
:10339000C26844685510034604EB6200D20748BF78
:1033A00062599B6830BC48BFD358184743682BB15B
:1033B00083682BB9C06800F0010070471846704759
:1033C0000120704710B51021044618F0CDFA2046B0
:1033D00010BD10B54FF4C671044618F0C5FA20466A
:1033E00010BD08B500F1E003994205D109F062F97A
:1033F000BDE80840FEF7ACBD00F58A739942F5D0F0
:1034000000F5A4708142F1D008BD00002DE9F04F15
:1034100004468BB0264600250AF090FB774BE56307
:1034200046F8403B29462622304618F057FB3046E6
:10343000FFF778F904F16C08714B2364FF2726220B
:10344000294684F86670A5664FF6FF794046ADF8C8
:10345000209018F043FB4046FFF764F9694BE366A0
:10346000BDF82030A4F8923084F8947008A904F1D3
:103470009807404607F0ABFB29462622384618F04D
:103480002DFB3846FFF74EF95F4BC4F898305F4B81
:10349000C4F8C0304FF47F0304F1E00BC4F8CC3023
:1034A0004FF0FF33C4E9363504F58A7AA4F8C490A6
:1034B000C4F8C850A4F8D050C4F8D4505846FFF708
:1034C00063F904F5A4795046FFF75EF94846FFF723
:1034D0005BF94F4BC4E95F344E4B2A46C4E9613572
:1034E00029463046FFF730F93046F021FFF729F83A
:1034F00030464FF4A071FFF726F84FF07F43A366E4
:103500002A4629464046FFF71FF9012208A94046EE
:10351000ADF8202007F05BFB2A4638462B21FFF749
:1035200013F94FF07F43A4F8CC5002ADC4F8C83073
:103530003946284606F0B4FD95E8070004F1D403A7
:1035400083E80700314B089308A902233846ADF8F9
:10355000243007F0F9F858463B223321FFF7F4F8FE
:1035600004F5BE75072308AA07A95846ADF81C3014
:10357000ADF8203007F046F95046C4F80851E32270
:103580003321FFF7E1F8082308AA07A95046ADF850
:103590001C30ADF8203007F035F94846C4F83C51EE
:1035A0008F223321FFF7D0F8092308AA07A948463C
:1035B000ADF81C30ADF8203007F024F9201D31465D
:1035C000C4F87051019005F06BFA0198414605F07E
:1035D00067FA0198394605F063FA0198594605F0F3
:1035E0005FFA0198514605F05BFA0198494605F0EB
:1035F00057FA20460BB0BDE8F08F00BF5CDE010833
:10360000C8EC01086CEE010808EC0108B0D2010812
:1036100044DE0108E333000870477047704730B458
:10362000C26844685510034604EB6200D20748BFE5
:1036300062599B6830BC48BFD358184743682BB1C8
:1036400083682BB9C06800F00100704718467047C6
:103650000120704710B51021044618F085F9204666
:1036600010BD10B5DC21044618F07EF9204610BDCF
:103670009830884208B505D109F01CF8BDE808402B
:10368000FEF756BC08BD00002DE9F043044685B0A6
:10369000264600250AF052FA464BE56346F8403BC1
:1036A00029462622304618F019FA3046FFF73AF834
:1036B00004F16C07404B23644FF0FF084FF6FF798D
:1036C0002622294684F86680A5663846ADF80C9017
:1036D00018F004FA3846FFF725F8384BE366BDF8D2
:1036E0000C30A4F8923084F8948003A904F198086F
:1036F000384607F06CFA29462622404618F0EEF9C3
:103700004046FFF70FF8012384F8BC302C4BC4F877
:1037100098302C4BC4F8C050C4E933342A4B84F899
:10372000C450C4E935352A4629463046A4F8C69027
:10373000A4F8C89084F8CA90FFF706F83046F02144
:10374000FEF7FFFE30464FF4A071FEF7FCFE4FF08F
:103750007F432A46A36629463846FEF7F5FF0F2326
:1037600003A93846ADF80C3007F031FA40468F22F5
:103770005721FEF7E9FF03AA0A2302A94046ADF844
:103780000830ADF80C3007F03DF804F1CC03C4F874
:10379000C030201D3146019005F082F9019839466C
:1037A00005F07EF90198414605F07AF9204605B00A
:1037B000BDE8F083A8DE0108C8EC01086CEE010842
:1037C00094ED010890DE010871360008704710B5CD
:1037D0004FF4AC71044618F0C7F8204610BD10B580
:1037E0000446D0F8540100F08BF92046BDE81040A3
:1037F00008F0E0BD10B50446FEF75AFB014B23600C
:10380000204610BDDCDE0108704704387047704761
:1038100010B51021044618F0A7F8204610BDA0F1FD
:103820000400F5E710B500228260044AC16002F18D
:10383000080420320460426010BD00BF20DF010890
:1038400070477047FEF7E8BE10B54FF4B4710446F8
:1038500018F08AF8204610BD10B50446FEF7B0FFF8
:10386000014B2360204610BD50DF0108704704382B
:103870007047704710B51021044618F075F82046BF
:1038800010BDA0F10400F5E710B500228260044AE3
:10389000C16002F1080420320460426010BD00BF24
:1038A0007CDF01087047704790F8083383F001030C
:1038B00080F808337047FFF70AB910B54FF4447128
:1038C000044618F051F8204610BD034607B593F89A
:1038D0000823F0305AB1B3F9F4102D31E52906DC94
:1038E000B3F9F620019009B2FEF734FE019803B057
:1038F0005DF804EB09F081BE034607B593F8082391
:10390000F0305AB1B3F9F4102D39002906DDB3F9BE
:10391000F620019009B2FEF71DFE019803B05DF894
:1039200004EB09F06ABE000010B50446FFF78EF9FB
:103930000D4B23600223A4F8F6320C4BC4F8F83286
:103940000B4B1A68C4F8FE225A681B89A4F8063388
:1039500000210123A4F8FC12C4F8022384F80833E0
:10396000C4F80C13204610BDB0DF0108FFFF0400AF
:1039700050CB010810B50B460446064A052100F558
:1039800035700BF0E7FD04F52270BDE8104009F03A
:1039900034BE00BFA4DF0108CB8810B51A440B6801
:1039A0000C4620469B6DB1F9041012B2984723686B
:1039B00020465B69BDE81040184770B50C460546C7
:1039C00018F02CFC052290FBF2F202EB8202831A23
:1039D00005EB43002368B0F9FE129B6D20466FF0A3
:1039E00023029847236820465B69BDE8704018476A
:1039F00038B590F8083304460D467BB3B0F99E30D5
:103A0000B0F99C102B44B3F5A07F0ADBB0F8FC3270
:103A10000133A0F8FC32D0F80C330133C0F80C337A
:103A20000F4B1AB204F19800FEF794FDB4F9CA30B6
:103A3000B4F9C8105A19B2F5A07F0ADBB4F8FC3209
:103A4000074A0133A4F8FC32D4F80C330133C4F82C
:103A50000C3312B204F1C400FEF77CFD38BD00BF88
:103A6000C0FEFFFF10B50446B0F9FC12FFF782FF5D
:103A7000D4F80C33092B07DDB4F8FA320133A4F87B
:103A8000FA320023C4F80C3394F808331BB3B4F9AA
:103A90006631B3F5A07F04F5B07122DAB4F9FA22E9
:103AA0002046FFF779FFB4F99231B3F5A07F04F512
:103AB000C6711ADAB4F9FA222046FFF76DFFB4F99D
:103AC0003A31B3F5A07F04F59A7112DAB4F9FA220B
:103AD0002046FFF761FF20460421BDE81040FFF7B4
:103AE00087BF2046FFF769FFDDE72046FFF765FF48
:103AF000E5E72046FFF761FFEDE70022026070472F
:103B00007047704704387047704710B5102104465D
:103B100017F02AFF204610BDA0F10400F5E70000D1
:103B200010B500228260044AC16002F1080420320C
:103B30000460426010BD00BFE8DF010870477047B5
:103B4000FFF723BC10B54FF4C671044617F00CFF05
:103B5000204610BD10B50446FFF758FC014B23600A
:103B6000204610BD18E001087047043870477047C0
:103B700010B51021044617F0F7FE204610BDA0F145
:103B80000400F5E710B500228260044AC16002F12A
:103B9000080420320460426010BD00BF44E0010808
:103BA00070477047FFF739BD10B5DC21044617F0A8
:103BB000DBFE204610BD000010B50446FFF764FD93
:103BC000014B2360204610BD74E00108F0207047CF
:103BD0004FF4A07070472920FDF77CBD2820FDF729
:103BE00079BD08B5FDF74AFDCA20FDF773FDC32076
:103BF000FDF754FD0820FDF751FD5020FDF74EFD67
:103C0000CF20FDF767FD0020FDF748FDC120FDF73F
:103C100045FD3020FDF742FDED20FDF75BFD642002
:103C2000FDF73CFD0320FDF739FD1220FDF736FDC1
:103C30008120FDF733FDE820FDF74CFD8520FDF7E1
:103C40002DFD0020FDF72AFD7820FDF727FDCB2074
:103C5000FDF740FD3920FDF721FD2C20FDF71EFD6D
:103C60000020FDF71BFD3420FDF718FD0220FDF7B5
:103C700015FDF720FDF72EFD2020FDF70FFDEA20B2
:103C8000FDF728FD0020FDF709FD0020FDF706FDEA
:103C9000B120FDF71FFD0020FDF700FD1B20FDF703
:103CA000FDFCB620FDF716FD0A20FDF7F7FCA2206B
:103CB000FDF7F4FCC020FDF70DFD1020FDF7EEFC34
:103CC000C120FDF707FD1020FDF7E8FCC520FDF73A
:103CD00001FD4520FDF7E2FC1520FDF7DFFCC720C4
:103CE000FDF7F8FC9020FDF7D9FC3620FDF7F2FC3B
:103CF000C820FDF7D3FCF220FDF7ECFC0020FDF717
:103D0000CDFCB020FDF7E6FCC220FDF7C7FCB620D5
:103D1000FDF7E0FC0A20FDF7C1FCA720FDF7BEFC83
:103D20002720FDF7BBFC0420FDF7B8FC2A20FDF797
:103D3000D1FC0020FDF7B2FC0020FDF7AFFC002015
:103D4000FDF7ACFCEF20FDF7A9FC2B20FDF7C2FC32
:103D50000020FDF7A3FC0020FDF7A0FC0120FDF7EB
:103D60009DFC3F20FDF79AFCF620FDF7B3FC0120F7
:103D7000FDF794FC0020FDF791FC0620FDF78EFC7A
:103D80002C20FDF7A7FCC820FDF7F2FC2620FDF74C
:103D9000A1FC0120FDF782FCE020FDF79BFC0F2039
:103DA000FDF77CFC2920FDF779FC2420FDF776FC4B
:103DB0000C20FDF773FC0E20FDF770FC0920FDF7C9
:103DC0006DFC4E20FDF76AFC7820FDF767FC3C2077
:103DD000FDF764FC0920FDF761FC1320FDF75EFC94
:103DE0000520FDF75BFC1720FDF758FC1120FDF7BF
:103DF00055FC0020FDF752FCE120FDF76BFC002094
:103E0000FDF74CFC1620FDF749FC1B20FDF746FC96
:103E10000420FDF743FC1120FDF740FC0720FDF7CF
:103E20003DFC3120FDF73AFC3320FDF737FC422002
:103E3000FDF734FC0520FDF731FC0C20FDF72EFCCE
:103E40000A20FDF72BFC2820FDF728FC2F20FDF78A
:103E500025FC0F20FDF722FC1120FDF73BFCC820BC
:103E6000FDF786FC2920FDF735FCBDE808402C2035
:103E7000FDF730BC08B5FDF701FC0321D320FDF7A9
:103E800045FC80B208BD10B5C4B202220321204611
:103E9000FDF7AAFB0A20FDF7EFFB204600220321D5
:103EA000FDF7A2FBBDE810400220FDF7E5BB38B5E9
:103EB0000446E4B2FDF796FB00212046FDF7ACFB7B
:103EC000012105462046FDF7A7FB40EA052080B208
:103ED00038BD10B5C4B240212046FDF79DFB030656
:103EE00007D54C212046FDF797FB003818BF01206D
:103EF00010BD01224B212046FDF776FB2046002213
:103F00004B21FDF771FB0020F2E773B50423C4B227
:103F10000E461546D7210DEB03022046FDF796FB12
:103F2000019B1BBA1A0DC3F30B23328020462B8052
:103F300001224B21FDF758FB00224B212046FDF7C3
:103F400053FB02B070BD000010B50A4B1A789042C6
:103F500004460DD0597888420AD00AB141B90122ED
:103F60009C54FDF73FFB2046BDE81040FFF78BBF98
:103F700010BD00BF9C15002010B5C4B20921204619
:103F8000FDF74AFB40F00100C2B209212046BDE81E
:103F90001040FDF729BB10B5C4B209212046FDF73A
:103FA0003BFB092100F0FE022046BDE81040FDF772
:103FB0001BBB38B5C4B20D4620460A21FDF72CFBC9
:103FC00040EA0502D2B220460A21BDE83840FDF79A
:103FD0000BBB07B50190FDF706FB01981F21FFF70A
:103FE000E8FF019803B05DF804EBFFF7C5BF38B5F3
:103FF000C4B20D4620460A21FDF70EFB20EA050259
:10400000D2B220460A21BDE83840FDF7EDBA10B51E
:104010000446FFF7C0FF20461F21BDE81040FFF710
:10402000E6BF10B5C0B20C460B21FDF7F5FA2040F3
:1040300010BD1F21FFF7F5BF0A46C0B20B21FDF7E7
:10404000D3BA1F21FFF7F8BF38B5C4B20D462046DA
:104050001721FDF7E1FA20EA0502D2B22046172126
:10406000BDE83840FDF7C0BA70B5C4B206460421B9
:104070002046FDF7D1FA042100F0FB020546204658
:10408000FDF7B2FA3046F021FFF7DEFF05F0F80247
:1040900020460421FDF7A8FA492220212046FDF7F9
:1040A000A3FA0220FDF7E8FA204601222121FDF7BC
:1040B0009BFA20469A224121FDF796FA20460122DA
:1040C0004A21FDF791FA204601224B21FDF78CFA97
:1040D000204600224B21FDF787FA20460122562177
:1040E000FDF782FA204601225821FDF77DFA20468D
:1040F00001224021FDF778FA2046FF220B21FDF72F
:1041000073FABDE870400220FDF7B6BA054BD3F84C
:10411000882042F47002C3F888204FF000629A6051
:10412000704700BF00ED00E008B50B4B1A6842F481
:1041300000721A601A6842F480621A601A6842F4C7
:1041400080721A60032000F02FF80020FDF74EFD6A
:10415000FDF71AFB002008BD003C0240034A044B57
:1041600011681B780B441360704700BF682701205B
:1041700078000020014B1868704700BF68270120B5
:1041800038B50446FFF7F6FF631C1CBF054B1B78D0
:10419000054618BFE418FFF7EDFF431BA342FAD30F
:1041A00038BD00BF780000200749CA6822F4E062E9
:1041B0000302120403F4E063120C134343F0BF63E1
:1041C00043F40033CB60704700ED00E0164B30B590
:1041D000DC68C4F30224C4F10705231D042D28BFA5
:1041E0000425062B4FF0FF338CBF033C002403FA59
:1041F00005F521EA0501A34022EA0302A1400028B7
:1042000041EA0203ACBF00F16040084A4FEA0313E1
:10421000B8BF00F00F00DBB2AABF00F56140135435
:1042200080F8003330BD00BF00ED00E014ED00E089
:10423000002808DB4209012300F01F0003FA00F008
:10424000014B43F82200704700E100E000280DDB3D
:104250004309012200F01F0002FA00F02033044A53
:1042600042F82300BFF34F8FBFF36F8F704700BF3B
:1042700000E100E010B5044650B1437903F0FF02BD
:1042800013B90271FDF7A0FA01236371002010BD7C
:104290000120FCE770B50468049D666C45EA0343A1
:1042A00006F04046334363644368E263B3F5403F3E
:1042B00030D186681EB1012E03D121F07F41A16368
:1042C00070BD022E01F47F0301F47F45C8B207D10F
:1042D000DB0CAD0ADB0243EA451343EAD001EEE70B
:1042E000032E01F07F420AD1DB0CED0A9B0243EA68
:1042F000451343EAD003D10F43EAC131DFE7190D7B
:104300002D0B090241EA051141EA1011130F41EA90
:104310000331D4E7E160D3E710B5044630B390F839
:10432000393003F0FF021BB980F83820FDF764FA3A
:1043300022686168022384F83930136823F440331B
:104340000B431360536BA16823F007030B435363C4
:10435000136CE16823F47F5323F03F030B43136492
:1043600000200123E06384F8393010BD0120FCE710
:1043700073B590F83850012D04464FF0020513D064
:1043800080F839500126069D80F838600095FFF7C7
:1043900081FF23681A6842F40C521A601A6832438B
:1043A0001A60002002B070BD2846FBE773B51646C0
:1043B0001A4690F83830012B04464FF0020517D00A
:1043C000012380F83830036880F839505E61079B1C
:1043D0000093069BFFF75EFF23681A6842F40C52B5
:1043E0001A601A6842F001021A60002002B070BD23
:1043F0002846FBE7026838B5136823F0050343F04D
:10440000040313600446FFF7B5FE054622681368EF
:1044100013F0010309D1116821F40C51116001223C
:1044200084F8392084F838300FE0FFF7A3FE401BF2
:10443000B0F57A7FEAD9E36B43F02003E36300220F
:10444000032384F8393084F83820184638BD70B515
:1044500005682A6842F004022A600129044614BF54
:1044600024351C35FFF786FE06462B6813F0200323
:104470000AD121680A6822F464520A60012284F891
:10448000392084F838300FE0FFF774FE801BB0F558
:104490007A7FEAD9E36B43F02003E363002203232E
:1044A00084F8393084F83820184670BD38B5054690
:1044B00008B9012038BD164B1B6B190213D42B68A9
:1044C00000243F221C6028469A601C619C61DC61CC
:1044D0005C625C63FDF7B2F9EC6385F8384085F8FF
:1044E00039402046E6E70368196811F0010104D05D
:1044F000FFF780FF0028E2D0DBE75A6A920602D578
:10450000FFF7A5FFF6E7DB699B06D8D50121F7E7A2
:104510000038024070477047036870B55E681D68D8
:10452000F207044614D5E90512D51A6822F4807200
:104530001A60C26B42F00102C26301229A60042336
:1045400080F83930002380F83830436903B1984748
:10455000B20616D5AB0414D523681A6822F40052AB
:104560001A6020229A60E36B43F00203E3630423A2
:1045700084F83930002384F8383063690BB1204661
:104580009847300716D5290514D523681A6822F4F0
:1045900000621A6008229A60E36B43F00403E3634D
:1045A000042384F83930002384F8383063690BB170
:1045B0002046984772070BD56B0509D523681A6802
:1045C00022F480621A6004229A602046FFF7A2FF5C
:1045D000B00714D5A90512D523681A6822F4007211
:1045E0001A6002229A60E36BE363012384F8393096
:1045F000002384F8383023690BB120469847F2062F
:1046000013D5EB0411D523681A6822F480521A607E
:1046100010229A60E36BE363012384F839300023AE
:1046200084F838302046FFF776FF70BDF0B590F87B
:104630003830012B4FF002032BD0012280F83930A3
:1046400080F8382000EB0113D3E907425D6A184F68
:1046500044EA0242093C012C9CBF05F07F431A4307
:104660004FEA0116036888BF42EA056299B9596AA0
:1046700039400A435A62012C82699A6103D8426A1E
:1046800022F07F429A62012380F83930002380F8BB
:1046900038301846F0BDD96939400A43DA618219C9
:1046A000012C92691A619CBF25F07F451D62EAE7E3
:1046B000F0FFFC002DE9F74FDFF8C4816E4ADFF808
:1046C000C49100230D6801249C4004EA0506AC4314
:1046D00040F0B8804C6824F0100C4FEA430E0325DC
:1046E0000CF1FF3705FA0EF5012F6FEA050511D819
:1046F000876807EA050ACF6807FA0EF747EA0A074C
:104700008760476827EA060AC4F300179F4047EA14
:104710000A074760C76807EA050A8F6807FA0EF7B5
:1047200047EA0A07BCF1020FC76016D14FEAD30A65
:1047300000EB8A0A03F0070BDAF820704FEA8B0BC4
:104740004FF00F0C0CFA0BFC27EA0C0C0F6907FA60
:104750000BF747EA0C07CAF8207007683D4004F0E1
:10476000030707FA0EFE4EEA05050560E50069D568
:104770004FF0000BCDF804B0D8F844703F4D47F42B
:104780008047C8F84470D8F8447007F48047019710
:10479000019F23F0030707F1804707F59C3703F0DB
:1047A000030ED7F808A04FEA8E0E4FF00F0C0CFA4C
:1047B0000EFCA8422AEA0C0C4BD005F58065A842F5
:1047C00049D005F58065A84247D005F58065A84227
:1047D00045D005F58065A84243D0484543D005F54E
:1047E0000065A84241D005F58065A8423FD005F597
:1047F0008065A8423DD005F58065A8420CBF09251B
:104800000A2505FA0EF545EA0C05BD601568F74363
:1048100014F4803F0CBF3D4035431560556814F4D7
:10482000003F0CBF3D4035435560956814F4801F30
:104830000CBF3D4035439560D568A40254BF3D4050
:104840003543D5600133102B7FF43CAF03B0BDE896
:10485000F08F5D46D5E70125D3E70225D1E7032593
:10486000CFE70425CDE70525CBE70625C9E70725D2
:10487000C7E70825C5E700BF003C01400000024033
:1048800000380240001402400AB1816170470904F7
:10489000FBE701684B6913F480634FF0000210D00E
:1048A0006FF480634B612023026380F83D3080F811
:1048B0003E20036C80F83C2043F004030364012095
:1048C0007047184670472DE9F04104460F461646DA
:1048D00098462568686927EA000080B2B8B16B691C
:1048E0005A0516D52B6843F400732B606FF4806370
:1048F0006B6120220023236384F83D2084F83E303E
:10490000226C42F00402226484F83C300120BDE8AD
:10491000F081731CDED0FFF72DFCA0EB0800B04245
:1049200001D8002ED5D100232022236384F83D2016
:1049300084F83E30226C42F02002E4E770B5044671
:104940000D46164623685B695B0701D5002070BDE4
:104950002046FFF79EFFA8B96A1CF3D0FFF70AFCB8
:10496000801BA84201D8002DECD100232022236314
:1049700084F83D2084F83E30226C84F83C3042F0CC
:10498000200222640120E2E770B504460D46164677
:1049900021684B6913F0400301D0002010E04A6900
:1049A000D2060ED56FF010024A612022236384F8EC
:1049B0003D2084F83E30226C226484F83C30012093
:1049C00070BDFFF7D7FB801BA84201D8002DDFD1B7
:1049D00000232022236384F83D2084F83E30226C9B
:1049E00042F02002E8E72DE9F84606460F469146D8
:1049F0001D464FEA114A3368BAF1010F0CBF5C69DA
:104A00009C6927EA0404A4B2B4FA84F46409A145B9
:104A100001D0002017E06A1CEED0FFF7ABFB089B2B
:104A2000C01AA84201D8002DE5D10023202233630B
:104A300086F83D2086F83E30326C86F83C3042F0F5
:104A4000200232640120BDE8F88670B504460D46A8
:104A5000164623685B691B0601D5002070BD204601
:104A6000FFF717FFA8B96A1CF3D0FFF783FB801B81
:104A7000A84201D8002DECD100232022236384F822
:104A80003D2084F83E30226C84F83C3042F0200215
:104A900022640120E2E700002DE9F0431546026898
:104AA00085B0DDE90C789946136843F48073136090
:104AB0000E463B46CDF8008000224FF0011104461F
:104AC000FFF791FF236838B11B68DB0502D54FF46F
:104AD0000073236403200AE006F0FE061E611949F4
:104AE00043463A462046FFF7EEFE18B1012005B0D6
:104AF000BDE8F083236803905A6903929B6903938E
:104B0000424639462046039BFFF79FFF40B1236C86
:104B1000042B01BF2268136843F400731360E5E7B8
:104B2000B9F1010F236802D1EDB21D61DFE72A0A56
:104B30001A61394642462046FFF787FF0028E6D132
:104B40002368F1E7020001002DE9FF479A46036858
:104B500015461A6842F480621A601A68DDE90C781A
:104B600042F480721A600E463B46CDF80080002267
:104B70004FF001110446FFF736FF236848B11B6868
:104B8000DB0502D54FF400732364032004B0BDE8B5
:104B9000F0875FFA86F906F0FE061E612A49434651
:104BA0003A462046FFF78FFE08B10120EEE7236862
:104BB00003905A6903929B69039342463946204603
:104BC000039BFFF742FF40B1236C042B01BF226817
:104BD000136843F400731360E7E7BAF1010F236829
:104BE0001AD1EDB21D61424639462046FFF72DFF2E
:104BF0000028E9D12268136843F4807313604FF0F2
:104C000001110246CDF800803B462046FFF7EBFE3F
:104C1000226860B11368B3E72A0A1A61394642462E
:104C20002046FFF712FF0028CED12368D9E749F0CC
:104C300001031361044943463A462046FFF743FE09
:104C4000003818BF0120A1E70200010070B504463A
:104C500008B9012070BD90F83D3003F0FF021BB988
:104C600080F83C20FCF7FCFD242384F83D302368C9
:104C70001A6822F001021A601A6842F400421A60AF
:104C80001A6822F400421A6000F06CFE3F4A636822
:104C9000934294BF3E4A3F4A90428CBF0022012279
:104CA000002AD6D121683C4E4A68B0FBF6F622F0C5
:104CB0003F0232434A60354A0D6A934284BF4FF443
:104CC0009672724325F03F0591BF721C4FF47A76BD
:104CD000B2FBF6F201322A430A62CD69421E2B482A
:104CE00025F44F45834225F0FF0532D85B00B2FB27
:104CF000F3F340F6FC720133134242D0C3F30B03CB
:104D00002B43CB61D4E907300A68034322F0C00289
:104D100013430B608A68D4E9030322F4034203437C
:104D200022F0FF0213438B60D4E90530CA680343C5
:104D300022F0FF021343CB600B6843F001030B60CA
:104D400000202023206484F83D30206384F83E0056
:104D500080E7A06850B903EB4303B2FBF3F30133E0
:104D6000C3F30B037BB143F40043C9E7192043436A
:104D7000B2FBF3F30133C3F30B0323B143F440431A
:104D8000BEE70423BCE70123BAE700BFA086010009
:104D90007F841E00FF083D0040420F002DE9F743CD
:104DA000044699460C9E0F469046FFF7E3F994F8A7
:104DB0003D30202B054603D0022003B0BDE8F08330
:104DC00000903C49192301222046FFF70CFE0028E1
:104DD000F2D194F83C30012BEED02068012384F806
:104DE0003C300368D9075EBF036843F001030360EA
:104DF000036823F400630360212384F83D304023DB
:104E000084F83E30002323640A9B6362BDF82C3093
:104E10006385638D2385284BE362CDE900654B46AE
:104E2000424639462046FFF737FE00282AD00120A7
:104E3000C3E7FFF70AFE40B1236C042B01BF2268D1
:104E4000136843F400731360F1E7636A27681A4636
:104E500012F8011B39616262628D218D013A92B2B2
:104E600062857A69481E80B2520720850AD548B10A
:104E70005A783A6102336362638D013B02399BB217
:104E800021856385238D2A4631462046002BD0D1CB
:104E9000FFF754FD0028CFD12268136843F4007354
:104EA0001360202384F83D3084F83C0084F83E00F1
:104EB00083E700BF020010000000FFFF2DE9F04370
:104EC000044687B09946109F0D469046FFF752F969
:104ED00094F83D30202B064604D00225284607B022
:104EE000BDE8F08300907649192301222046FFF7A0
:104EF0007AFD0028F1D194F83C30012BEDD02068E8
:104F0000012384F83C300368DB075EBF036843F08D
:104F100001030360036823F400630360222384F821
:104F20003D30402384F83E30002323640E9B6362AF
:104F3000BDF83C306385638D2385624BE36229466F
:104F4000CDE900764B4642462046FFF7FDFD05467B
:104F500008B10125C2E7228D2368B2B902905A69CF
:104F600002929A690292029A1A6842F400721A60D6
:104F7000DFF85481238D002B2CD1202284F83D2092
:104F800084F83C3084F83E30A8E7012A0AD11A6838
:104F900022F480621A6003905A6903929A6903921C
:104FA000039AE1E7022A0ED11A6822F480621A609D
:104FB0001A6842F400621A6004905A6904929B696C
:104FC0000493049BD4E705905A6905929B69059365
:104FD000059BCDE7032B56D8012B15D13246394618
:104FE0002046FFF7D1FC0028B3D123681A69636A11
:104FF0001A70636A01336362238D013B2385638DDD
:10500000013B9BB26385B5E7022B00963B464FF010
:1050100000024146204619D1FFF7E5FC002898D14F
:1050200023681A6842F400721A601A69636A1A7077
:10503000626A531C6362238D013B2385638D013BB0
:105040009BB2638523681B695370D2E7FFF7CBFCE3
:1050500000287FF47EAF23681A6822F480621A6009
:105060001A69636A1A70636A009601336362238D5A
:10507000013B2385638D013B9BB2638502463B4622
:1050800041462046C8E7324639462046FFF77CFCB9
:1050900000287FF45EAF23681A69636A1A70626A37
:1050A000531C6362238D013B2385638D013B9BB2BF
:1050B00063852368596949077FF55CAFC3E700BF83
:1050C000020010000000FFFF0400010010B590F87E
:1050D0003D30202BDCB216D1242380F83D3003680C
:1050E0001A6822F001021A605A6A22F010025A620B
:1050F0005A6A114359621A6842F001021A6080F834
:105100003D40002010BD0220FCE730B590F83D3056
:10511000202BDCB216D10268242380F83D301368BE
:1051200023F001031360556A4FF6F0732B401943C7
:1051300089B25162136843F00103136080F83D4067
:10514000002030BD0220FCE72DE9F043D2010468C5
:105150004F68E568D1F800C0D1F818908432A318E0
:105160000CF10106586800F470405860E068C5F31F
:105170000B45C0F30B4030443D4440EA05405860C5
:10518000E068CD68C0F30A000544986800F47040F8
:105190009860E6688868C6F30A060130304440EA41
:1051A0000540986018690E6920F0070018614FF0FB
:1051B000000E1E619D6991F8320091F83180C3F8AC
:1051C00018E091F8305045EA096545EA082545EAB6
:1051D00000459D61586920F0FF0058614869586199
:1051E000D86920F4E06020F00700D861D1E90750C9
:1051F0000543DD61986A486AC3F828E098621EB3E7
:10520000012E23D0B01E022822D9072E0CBF022067
:105210000120DD6A05F0E025DD628D6AC96AA7EB31
:105220000C0745437843033040EA0540D862186BC9
:1052300020F4FF6020F0070018631963A35843F0BF
:105240000103A350BDE8F0830420E2E70320E0E778
:105250000220DEE738B50446002863D090F8A1307C
:1052600003F0FF021BB980F8A020FCF755FB0223D6
:1052700084F8A13023689A6922F070429A61D4E9D7
:1052800001200243E06899690243206902430A430E
:105290009A619A68244960690A409A609A6842EA69
:1052A0000042A06902439A60DA68E0690A40DA6065
:1052B000DA6842EA0042206A0243DA601A69606AE8
:1052C0000A401A611A6942EA0042A06A02431A615E
:1052D0005A69114059615A69E16A42EA0142216BF7
:1052E0000A435A61D96A94F8360094F8355001F0AF
:1052F0007F41D962D96A94F834200A4342EA0522F0
:1053000042EA0042DA625A6B42F006025A639A6934
:1053100042F001029A6100200123C4F8A40084F83D
:10532000A13038BD0120FCE700F800F0704770475D
:10533000036870B59E6B5D6B7207044614D56907F0
:1053400012D55A6B22F004025A630422DA63D0F8B1
:10535000A43043F00103C0F8A430002380F8A1205A
:1053600080F8A030FFF7E2FFB20716D5AB0714D5DF
:1053700023685A6B22F002025A630222DA63D4F8DD
:10538000A4301343C4F8A430042384F8A1300023CC
:1053900084F8A0302046FFF7C9FFF00710D5E907D1
:1053A0000ED523685A6B22F001025A630122DA6398
:1053B000002384F8A12084F8A0302046FBF7D4FE17
:1053C000320711D52B070FD523685A6B22F008023C
:1053D0005A630822DA63012384F8A130002384F899
:1053E000A0302046FFF7A3FF70BD2DE9F04190F8F3
:1053F000A030012B06460F4694464FF002001FD006
:105400004FF0010886F8A08086F8A10034240D46EC
:1054100004FB02640FCD38340FC40FCD0FC40FCD81
:105420000FC42B682360304662463946FFF78CFE76
:1054300033680020C3F8248086F8A18086F8A00095
:10544000BDE8F08190F8A030012B4FF0020312D09C
:1054500080F8A13003685A6B22F001025A63074AB0
:1054600011645A6B42F001025A63012380F8A130A3
:10547000002380F8A0301846704700BF0068014044
:105480002DE9F341044640B30368DD0710D42368D7
:1054900098075ED423681A0700F1A08023685B0791
:1054A00000F1BE80A069002840F01F8100202BE0A1
:1054B000A64B9A6802F00C02042A07D09A6802F000
:1054C0000C02082A0BD15A68510208D59F4B1B6861
:1054D0009A03DCD56368002BD9D1012014E06268FF
:1054E000B2F5803F13D11A6842F480321A60FEF799
:1054F00041FE964E054633689B03C8D4FEF73AFE3C
:10550000401B6428F7D9032002B0BDE8F0818F4D1D
:10551000B2F5A02F2B6807D143F480232B602B68B2
:1055200043F480332B60E2E723F480332B602B6855
:1055300023F480232B60002AD9D1FEF71BFE0646F8
:105540002B689F03A3D5FEF715FE801B6428F7D9AF
:10555000D9E77E4B9A6812F00C0F07D09A6802F0D8
:105560000C02082A11D15B685E020ED4774B1A68D0
:10557000950702D5E268012AAFD11A68216922F0A5
:10558000F80242EAC1021A6084E7E268704BB2B1E5
:1055900001221A60FEF7EEFD6C4D06462B68980757
:1055A00007D52B68226923F0F80343EAC2032B6076
:1055B00070E7FEF7DFFD801B0228EFD9A3E71A6032
:1055C000FEF7D8FD614E0546336899077FF562AF57
:1055D000FEF7D0FD401B0228F6D994E762695D4BC7
:1055E0007AB101221A60FEF7C5FD584E0546736F69
:1055F0009F073FF553AFFEF7BDFD401B0228F6D9CC
:1056000081E71A60FEF7B6FD504E0546736F9807A6
:105610007FF544AFFEF7AEFD401B0228F6D972E7D6
:105620004A4B1A6C12F0805228D101921A6C42F047
:1056300080521A641B6C03F080530193019B012775
:10564000454D2B68D9051BD5A368404D012B27D1AB
:105650002B6F43F001032B67FEF78CFD3B4E054695
:1056600041F28838336F9B0739D5002F3FF41AAFCA
:10567000364A136C23F08053136413E70027DFE7E7
:105680002B6843F480732B60FEF774FD06462B688D
:10569000DA05D9D4FEF76EFD801B0228F7D932E770
:1056A000052B04D12B6F43F004032B67D0E72A6F3F
:1056B00022F001022A672A6F22F004022A67002BD7
:1056C000CAD1FEF757FD41F2883806462B6F98077E
:1056D000CBD5FEF74FFD801B4045F7D913E7FEF70A
:1056E00049FD401B4045BDD90DE7184DAB6803F09F
:1056F0000C03082B47D0194E00230228336035D104
:10570000FEF738FD07462B68990129D4D4E9073202
:105710001343626A43EA8213E26A43EA0263A26ABB
:105720005208013A43EA02436B6001233360FEF7FB
:1057300021FD064D04462B689A013FF5B7AEFEF7F2
:1057400019FD001B0228F6D9DDE600BF0038024033
:1057500000004742800E4742007000406000474210
:10576000FEF708FDC01B0228CDD9CCE6FEF702FDEE
:1057700004462B689B017FF599AEFEF7FBFC001BEE
:105780000228F6D9BFE601283FF4BEAE6B68E26995
:1057900003F4800191427FF4A0AE216A03F03F023E
:1057A0008A427FF49AAE616A47F6C0721A408A4212
:1057B0007FF493AEA16A03F440328A427FF48DAE47
:1057C000E26A03F0706393423FF470AE85E600BF77
:1057D000134908B58B6803F00C03042B1CD0082B6D
:1057E0001CD14A684B68496813F4800314BF0D4804
:1057F0000D48C1F3881118BF002302F03F02A1FB3E
:105800000001FAF745FD064B5B68C3F30143013322
:105810005B00B0FBF3F008BD0248FCE70248FAE782
:105820000038024000127A000024F4002DE9F04113
:105830000D46044610B90120BDE8F081444B1A68BA
:1058400002F00F028A4228D3226897072DD4D0078E
:1058500041D43F4B1A6802F00F02AA4266D8226870
:1058600051076CD4130707D53A4A2169936823F48A
:10587000604343EAC1039360FFF7AAFF354B364A02
:105880009B68C3F30313D35CD840344B1860344B8C
:105890001868FCF7ABF90020CEE7CAB21A701B6893
:1058A00003F00F038B42C6D1CEE72A4B12F0040F50
:1058B0001EBF996841F4E0519960160742BF99688C
:1058C00041F4604199602349A0688B6823F0F0039C
:1058D00003438B60BBE762681E4B012A1CD11B6827
:1058E00013F4003FA7D01B4EB36823F00303134308
:1058F000B360FEF73FFC41F288380746B368626840
:1059000003F00C03B3EB820FA3D0FEF733FCC01BF4
:105910004045F3D903208FE7911E01291B6802D867
:1059200013F0007FDEE713F0020FDBE7EAB21A7034
:105930001B6803F00F03AB427FF47DAF8FE705498F
:10594000E0688B6823F4E05303438B608AE700BF71
:10595000003C024000380240A0E001087400002032
:105960007C000020044B054A9B68C3F38223D35C70
:10597000034A1068D840704700380240B0E0010880
:10598000740000200F2303600B4B9A6802F003029F
:1059900042609A6802F0F00282609A6802F4E05273
:1059A000C2609B68DB0803F4E0530361034B1B6890
:1059B00003F00F030B60704700380240003C0240C8
:1059C000036813F0430FF7B5044640F08A8023685C
:1059D00013F00C0F44D0894D894E00232B60FEF745
:1059E000C9FB074633689B0000F1CC8021684F0754
:1059F00015D5D4E90403D6F888201B0602F0E0424E
:105A000043EA80131343C6F88830D6F88C30226AF4
:105A100023F4F853013A43EA0223C6F88C300E0708
:105A200014D5774AA369D2F8881020691B0701F0C2
:105A3000706143EA80130B43C2F88830D2F88C308F
:105A4000616A23F440330B43C2F88C3001232B608E
:105A5000FEF790FB6A4E05463368980040F1998046
:105A600023689A0633D500230193654B654D1A6C64
:105A700042F080521A641B6C03F080530193019B27
:105A80002B6843F480732B60FEF774FB06462B688B
:105A9000D90540F185805A4D2B6F13F4407340F0C7
:105AA0008680A36A03F44072B2F5407F544A40F006
:105AB000A080916823F0704021F4F81120F4407028
:105AC00001439160116FC3F30B030B43136720680D
:105AD00010F010001FBF4C4B94F82C201A600020CF
