:020000040800F2
:1000000000000320950500085D1C00085F1C000827
:10001000611C0008631C0008651C0008000000004B
:10002000000000000000000000000000515A00081D
:10003000671C000800000000E15A0008455B00084A
:10004000E5050008E5050008E5050008E5050008E8
:10005000E5050008E5050008E5050008E5050008D8
:10006000E5050008E5050008E5050008E5050008C8
:10007000E5050008E5050008E5050008E5050008B8
:10008000E5050008E5050008E5050008E5050008A8
:10009000E5050008E5050008E5050008E505000898
:1000A000E5050008E5050008E5050008E505000888
:1000B000E5050008E5050008E5050008E505000878
:1000C000E5050008E5050008E5050008E505000868
:1000D000E5050008E5050008E5050008E505000858
:1000E000E5050008E5050008E5050008E505000848
:1000F000E5050008E5050008E5050008E505000838
:10010000E5050008E5050008E5050008E505000827
:10011000E5050008E5050008691C0008E50500087C
:10012000E5050008E5050008E5050008E505000807
:10013000E5050008E5050008E5050008E5050008F7
:10014000E5050008E5050008E5050008E5050008E7
:10015000E5050008E5050008E5050008E5050008D7
:10016000E5050008E5050008E5050008E5050008C7
:10017000E5050008E5050008E505000800000000A9
:10018000E5050008E5050008E5050008E5050008A7
:10019000E5050008E5050008E5050008E505000897
:0C01A000751C0008E5050008811C000823
:1001B00010B5054C237833B9044B13B10448AFF3A1
:1001C00000800123237010BD6401002000000000A6
:1001D0006C9C010808B5034B1BB103490348AFF3FE
:1001E000008008BD00000000680100206C9C010830
:1001F00001F0FF01102A2BDB10F0070F08D010F8D8
:10020000013B013A8B422DD010F0070F42B3F6D1DB
:10021000F0B441EA012141EA014122F007047FF0F4
:1002200000070023F0E80256083C85EA010586EA4B
:10023000010685FA47F5A3FA87F586FA47F6A5FA87
:1002400087F68EB9EED1F0BC01F0FF0102F0070293
:1002500032B110F8013B013A83EA010313B1F8D13E
:100260000020704701387047002D06BF354603381F
:10027000073815F0010F07D1013015F4807F02BF58
:10028000013015F4C03F0130F0BC0138704700BFA9
:1002900053B94AB9002908BF00281CBF4FF0FF31ED
:1002A0004FF0FF3000F074B9ADF1080C6DE904CEE9
:1002B00000F006F8DDF804E0DDE9022304B0704741
:1002C0002DE9F047089D04468E46002B4DD18A4209
:1002D000944669D9B2FA82F252B101FA02F3C2F13C
:1002E000200120FA01F10CFA02FC41EA030E9440CD
:1002F0004FEA1C48210CBEFBF8F61FFA8CF708FBEE
:1003000016E341EA034306FB07F199420AD91CEBC5
:10031000030306F1FF3080F01F81994240F21C81F7
:10032000023E63445B1AA4B2B3FBF8F008FB10333F
:1003300044EA034400FB07F7A7420AD91CEB040474
:1003400000F1FF3380F00A81A74240F20781644444
:10035000023840EA0640E41B00261DB1D4400023C9
:10036000C5E900433146BDE8F0878B4209D9002D2D
:1003700000F0EF800026C5E9000130463146BDE8B7
:10038000F087B3FA83F6002E4AD18B4202D3824221
:1003900000F2F980841A61EB030301209E46002DD0
:1003A000E0D0C5E9004EDDE702B9FFDEB2FA82F225
:1003B000002A40F09280A1EB0C014FEA1C471FFA83
:1003C0008CFE0126200CB1FBF7F307FB131140EA6A
:1003D00001410EFB03F0884208D91CEB010103F137
:1003E000FF3802D2884200F2CB804346091AA4B2F9
:1003F000B1FBF7F007FB101144EA01440EFB00FECD
:10040000A64508D91CEB040400F1FF3102D2A64531
:1004100000F2BB800846A4EB0E0440EA03409CE7D0
:10042000C6F12007B34022FA07FC4CEA030C20FA7D
:1004300007F401FA06F31C43F9404FEA1C4900FA9D
:1004400006F3B1FBF9F8200C1FFA8CFE09FB18111A
:1004500040EA014108FB0EF0884202FA06F20BD98D
:100460001CEB010108F1FF3A80F08880884240F2DD
:100470008580A8F102086144091AA4B2B1FBF9F021
:1004800009FB101144EA014100FB0EFE8E4508D91C
:100490001CEB010100F1FF346CD28E456AD90238A1
:1004A000614440EA0840A0FB0294A1EB0E01A14286
:1004B000C846A64656D353D05DB1B3EB080261EBF4
:1004C0000E0101FA07F722FA06F3F1401F43C5E9CE
:1004D000007100263146BDE8F087C2F12003D84004
:1004E0000CFA02FC21FA03F3914001434FEA1C4746
:1004F0001FFA8CFEB3FBF7F007FB10360B0C43EA38
:10050000064300FB0EF69E4204FA02F408D91CEBE7
:10051000030300F1FF382FD29E422DD902386344E5
:100520009B1B89B2B3FBF7F607FB163341EA034185
:1005300006FB0EF38B4208D91CEB010106F1FF38D4
:1005400016D28B4214D9023E6144C91A46EA0046CB
:1005500038E72E46284605E70646E3E61846F8E65D
:100560004B45A9D2B9EB020864EB0C0E0138A3E7A6
:100570004646EAE7204694E74046D1E7D0467BE787
:10058000023B614432E7304609E76444023842E7FF
:10059000704700BFDFF834D0002103E00C4B5B58FC
:1005A000435004310B480C4B42189A42F6D30B4A85
:1005B00002E0002342F8043B094B9A42F9D302F0CF
:1005C000D5FB18F0EDFA00F069FE7047000003203B
:1005D00054C10408000000206401002064010020D0
:1005E0000C260120FEE700F071BC00F0DFBC704774
:1005F00010B50421044618F05BFA204610BD000037
:1006000038B50C4B0C4C18800C4B82201980636859
:10061000984740F6110398420AD1094D23682C608F
:10062000822098472B688220DB689847002038BDDD
:100630000120FCE7800100204C0000208201002006
:10064000840100204FF4A071F020FFF7D9BF000013
:10065000F7B52D4D2B6804461B698220984780B260
:100660002080002843D02B680DF106025B6901A9A8
:1006700082209847BDF80620A2F5B47292B20A2AE9
:1006800037D90B23B2FBF3F2204B1B889A4201D9D6
:10069000013B9AB2BDF8043040F6B8318B422AD8FB
:1006A000C3F571630E339BB20F21B3FBF1F318490D
:1006B00009888B4201D94B1E9BB2164E164D3068ED
:1006C0002F68834281B28CBF591AC91AB8B2BA4294
:1006D0008CBF101A801A89B280B201440529C8BFA4
:1006E00033603368C8BF2A6063802B68A38003B07F
:1006F000F0BD0022CEE7C3F56D6308339BB20E2B2D
:10070000D2D80023D9E700BF840100208201002055
:1007100080010020880100208C01002037B5684648
:100720000D461446FFF794FFBDF8000030B1BDF848
:1007300002302B60BDF804302360012003B030BDCF
:10074000704770477047012380F8741080F8753047
:100750007047002070470000034B4164003918BF08
:1007600001211970704700BF6723012000207047E6
:10077000836B0BB10846184770474FF6FF70704700
:10078000406803689B69184770477047704700F0DE
:10079000ADBC08B503680446D3F880309847236899
:1007A00020469B6F984700F021F9236820461B6F75
:1007B0009847292000F08AFF00F018F923682046A6
:1007C0001B6F9847F8E710B5044608F065F82368F2
:1007D0002046D3F8AC30BDE81040184700F078BC94
:1007E00000F07CBC00F09CBC00F04EBC00F09ABC59
:1007F00000F0A2BC00F052BC07F0E6B910B57C21B5
:10080000044618F055F9204610BD90F877301BB11A
:10081000406803681B6818471846704710B590F881
:10082000341090F874400C4B8C421A7809D03AB9C5
:100830000A4A0B491488088810800C8001221A701B
:1008400010BD002AFCD0054A05491488088810808C
:100850000C800022F3E700BF602301205C2301200D
:100860005E23012070B50D46194635B9094B0A4A79
:100870000A4840F2BB2118F049F9C0E90F52084B71
:10088000003A18BF01221A700368BDE87040D3F81F
:100890008C301847DC9C0108149D0108629D0108FA
:1008A0006623012008B5094B1B888B4203D8084BEF
:1008B0001B88934205D9074B074A08489E2118F028
:1008C00025F9074B1980074B1A8008BD5C230120CE
:1008D0005E230120A79D01080A9E0108629D010870
:1008E0006223012064230120012108B5002208466B
:1008F00004F080FD064B4FF0FF31186004F0D0FD8E
:1009000000220421012004F03BFE024B186008BDC8
:10091000940100209001002008B5074B186828B901
:10092000064B074A0748312118F0F0F8BDE80840A7
:100930004FF0FF3104F0B4BD94010020289F01085E
:10094000399F0108769F010808B5064B186828B939
:10095000054B064A06483A2118F0D8F8BDE8084089
:1009600004F0D8BD94010020289F0108C39F01080E
:10097000769F010808B5074B186828B9064B074A47
:100980000748472118F0C2F8BDE80840002104F0EC
:1009900087BD00BF94010020289F010800A0010826
:1009A000769F010808B5064B186828B9054B064A1A
:1009B0000648542118F0AAF8BDE8084004F0AABD82
:1009C00094010020289F010840A00108769F01089B
:1009D000044B186820B1002303491A4604F016BEE0
:1009E000704700BF900100200400002013B5084CA0
:1009F000206858B100231A4601A904F049FE206876
:100A00004FF0FF33002201A904F042FE02B010BDF6
:100A10009001002003685B6C184700207047036852
:100A20009B6A184740F26F307047000010B5074CC2
:100A3000074B2360204602F09FFA064B2361064BCA
:100A40006361064B4FF080629A6010BD581300201E
:100A500000B00240C50A0008610A000800E100E099
:100A600008B5034A034B0448362118F04FF800BF7D
:100A700084A0010896C20108B7A00108084B10B570
:100A800003600446074802F041FB074B4FF08062C9
:100A9000C3F88820BFF34F8FBFF36F8F204610BD80
:100AA0000CA101085813002000E100E010B5044635
:100AB000FFF7E4FF20464FF45A6117F0F9FF204694
:100AC00010BD0000024B1B68586803685B6918473B
:100AD00068230120044B1B6893F876200AB1D86C78
:100AE00000B99868704700BF682301202DE9F743DB
:100AF0000D68202D0C4600F09E80402D00F09B805C
:100B00002A1F56425641B5F5807F00F09680A5F524
:100B100000735D425D41FFF7DDFF03689B6A984704
:100B20002368B3F5807F844600F0968000F28780CA
:100B3000202B00F09380402B00F09080042B00F0DD
:100B40008480BCF1100F0CBF0221012100224A4B0E
:100B5000B4F81480D3F800E0678BDEF800905A6098
:100B6000BCF1100F29F440390CBF02200120A7EB83
:100B7000080749EA02029860DF60CEF80020DEF83C
:100B80003420D96222F007020243CEF83420DEF886
:100B9000402022F47F5222F03F023A43CEF8402018
:100BA000228BA2EB08029A6206B98DB3227FFF2A3C
:100BB00015BF02210021C3E90C12196315B3BCF162
:100BC000100FE1684FEA026E4AD14FF01F0801EAA8
:100BD0000802C1F3C42CC2EB0222B2FBF8F242EAD3
:100BE0000E02CCEB0C2CC1F34511BCFBF8FC42EA25
:100BF0000C42C1EB01214FF03F0CB1FBFCF142EA8A
:100C000001225A63C3E9067000211B4802F03EFB33
:100C10001948012102F03AFBA38AE28A06B91DB302
:100C2000CDE900322369616813481A4602F0EEF9F3
:100C300003B0BDE8F083012669E701256BE7B3F552
:100C4000007F7FF47EAF092103E010280CBF022152
:100C500001214FF400327AE70A21FAE70021F8E790
:100C60004EEA01015963CDE70092616822690248AA
:100C700002F0AEF9DCE700BF58130020F7B50D46CF
:100C8000FFF728FF03689B6A98471028EB68297FC5
:100C900067D103F01F02C2EB02221F20B2FBF0F467
:100CA000C3F3C42244EA0164C2EB0222C3F3451336
:100CB000B2FBF0F244EA0244C3EB03233F220221D9
:100CC000B3FBF2F344EA03242B6828486E8B0268D6
:100CD000082BAB8AA6EB03061368C6600CBF4FF463
:100CE00000374FF4403723F440333B43C0E90171F0
:100CF0001360536B23F007030B435363136C23F40C
:100D00007F5323F03F033343B7F5003F13641CD1F7
:100D10000123C0E90C340923C0E90661C362002144
:100D200002F0B4FA0121114802F0B0FAB7F5003F21
:100D3000AA8AE98A0DD12B690C48CDE900211A460F
:100D4000194602F063F903B0F0BD0023C16283626B
:100D5000E8E70091134621462A69044802F038F971
:100D6000F1E743EA01640121AEE700BF5813002018
:100D700070B5044625460A4B0C300026606026728A
:100D8000667245F8203B6022294607F0EDFE04F527
:100D90005A63EE602435AB42FBD1204670BD00BFE4
:100DA0000CA10108012070470C2070470C2303FBA5
:100DB0000100083070470C2303FB01000830704726
:100DC000012070474FF4B47070474FF4B47303FBC5
:100DD0000100083070474FF4B47303FB0100083082
:100DE0007047012070471020704700EB0110083059
:100DF000704700EB011008307047084601F020B939
:100E000010B5034B0360044606F004FC204610BDF9
:100E1000C4A1010810B50446FFF7F2FF20461421D3
:100E200017F046FE204610BD10B5034B0360044684
:100E300006F0F0FB204610BD90A1010810B5044655
:100E4000FFF7F2FF20464FF4B87117F031FE20464D
:100E500010BD000010B5034B0360044606F0DAFB3A
:100E6000204610BD5CA1010810B50446FFF7F2FF53
:100E70002046182117F01CFE204610BD10B5084B67
:100E80000360044600F5CE70FFF7BAFF04F12C00B2
:100E9000FFF7CAFF04F11400FFF7DCFF204610BD86
:100EA000F8A1010808B50248FFF7E8FF08BD00BF38
:100EB0009C01002010B50446FFF7E0FF20464FF4E8
:100EC000437117F0F5FD204610BD00002DE9F341F8
:100ED00000F04AFF054600F04BFF00240146234680
:100EE0002846224600940BF09BFC254B254A264DB4
:100EF0001A60204601F0CEFB24480BF0DDFB2B7876
:100F0000BFF35B8FDB0735D4284617F0D3FD88B3DA
:100F10001F4C204B236004F5DA7604F1140004F131
:100F20002C0804F5CE776060C4F80880E76026617D
:100F300006F072FB184B6361404606F06DFB174BE1
:100F4000E362384606F068FB154BC4F89C3104F5A3
:100F5000D87001F067FC224604F5D871304601F0E4
:100F6000F9FB304601F06CF80E4817F0EDFD28460D
:100F700017F0ACFD0C4802B0BDE8F041FFF707BC2C
:100F8000C4230120C812002098010020080000207E
:100F90009C010020F8A101085CA1010890A10108B2
:100FA000C4A10108A50E00084C1200200148FFF75B
:100FB000F0BB00BF4C12002070B5234C234E244BD5
:100FC000244D23603046FFF7D3FE28460EF0D4FDB3
:100FD000214B2248DC60224C03600022F0204FF4B9
:100FE00080712080C3E912121E4C1F492080C3E982
:100FF00019121E4C1A864FF080714FF4A070596779
:101000000121C3E90422C3E90622C3E90822C3E996
:101010000A22C3E90E22C3E91022C3E91422C3E95C
:1010200016221A6683F86C201A67C3E9016583F8F3
:10103000781020800E4C83F8341020800D48027008
:101040000D4A1A6070BD00BFA8040020AC04002047
:10105000CC9C0108CC1200204C12002068230120F7
:101060005C23012062230120010000015E23012096
:101070006423012060230120589E01080148FFF7E6
:10108000FDBC00BFAC040020034B902283F85A2320
:1010900083F85823704700BF00E100E0094A0A497D
:1010A000D3680A48C3F30A03013B9BB20B80116962
:1010B000C1F30A01013901801364536B43F001034A
:1010C000536370470068014046130020441300201A
:1010D000014BD3F8AC00704700680140024B01227D
:1010E000C3F8AC105A6270470068014038B5044636
:1010F00006F0BFFD23685D6E08F09CFF01462046A8
:10110000A8472368054AD3F88850A2F51631002372
:101110002046A847002384F84A3038BD005802D042
:1011200006F058BD034B4FF080629A604FF080721A
:101130009A60704700E100E0084B4FF08062C3F80E
:101140008820BFF34F8FBFF36F8F4FF08072C3F8CB
:101150008820BFF34F8FBFF36F8F704700E100E02F
:10116000134B144A1B6C11888B4210B5124C13D1CF
:10117000124B198802F094FF226892F8663001330E
:1011800082F86630FFF724FC206807F085FBBDE895
:1011900010400020FFF7D4BA02F082FF0020FFF7D2
:1011A000D0FA20680368BDE810401B6A184700BFEA
:1011B00000680140461300206823012044130020EA
:1011C00007B5064BADF806001B68054801220DF176
:1011D000060103F066FC03B05DF804FB100000207C
:1011E000C8140020F0B5A1B0102200210AA817F001
:1011F00019FD1422002103A817F014FD002130224C
:1012000014A817F00FFD0024224B01941A6C42F031
:1012100080521A641B6C03F080530193019B1E4B98
:1012200002941A6842F440421A601B6803F4404377
:1012300002930122029B4FF48033CDE9082302255B
:101240004FF48003CDE90E5308274FF4A87304260A
:1012500008A8CDE910731295139602F03FFF0F23F3
:10126000CDE903354FF4A0514FF48053CDE9061377
:1012700003A80521059403F009F9C023189314A8C5
:101280004FF4003314971A961D9303F0C9F921B057
:10129000F0BD00BF003802400070004080B59AB039
:1012A00001F072FDFFF79EFF142200210DA800241B
:1012B00017F0B8FCB44B00941A6BB448B44D42F02C
:1012C00020021A631A6B02F020020092009A019425
:1012D0001A6B42F080021A631A6B02F080020192CC
:1012E000019A02941A6B42F004021A631A6B02F01C
:1012F00004020292029A03941A6B42F001021A63EA
:101300001A6B02F001020392039A04941A6B42F0E2
:1013100002021A631A6B02F002020492049A059404
:101320001A6B42F040021A631A6B02F040020592F7
:10133000059A06941A6B42F010021A631A6B02F0B7
:1013400010020692069A07941A6B42F008021A637A
:101350001B6B03F00803079322460421079B02F04E
:10136000C1F822468B484FF4405102F0BBF80126E9
:1013700002274FF0040885480F940DA9CDE90D868A
:10138000109701F0C7FF0DA94FF440538148CDE9F4
:101390000D36CDE90F4701F0BDFF7F487F4B03605D
:1013A00001F098FD7E4A7F4B2C62C5E90023284658
:1013B0004FF48043C5E90434C5E90244C5E9064455
:1013C00002F072FA1021284602F0AEFC21462846AF
:1013D00002F0C9FC7448754984624FF48273C0E915
:1013E00000134FF400751823C0E906530A23704D0B
:1013F000C362C0E90244C0E90444C0E9084403F000
:1014000013FB6C4B0D974FF0100CC5E900364023D1
:10141000C5E904C34FF4C073C5E906344FF4006353
:10142000C5E908344FF40053AB624FF0030A0723B9
:101430000DA92846CDE90E3810934FF00809C5E9EB
:101440000248CDE911A7139703F014FA4FF6FF7283
:1014500009A92846CDE90A96089409960C9403F048
:1014600029FA304601F0BCFC4FF6FF7209A9284664
:10147000CDE90979CDE90B6403F01CFA4FF6FF7250
:1014800009A92846CDE909A9CDE90B8403F012FA90
:101490004FF40C730893089B0C934FF6FF7209A945
:1014A0002846CDE909890B9603F004FA40F26A5107
:1014B000284603F016FA342221460DEB020017F0FD
:1014C000B1FB3D4D3D4BAC86C5E900340923C5E970
:1014D00005361D2340F20D1EC5E9073A40F24313BD
:1014E000C5E909E3284640F2471340F21718C5E959
:1014F0000B83C5E902442C6185F8364002F0D8FC24
:10150000FF21F022CDE912144FF4806905214FF438
:10151000A073CDE90E24CDE91491CDE916420DA9B1
:1015200022462846CDE91037254D18930D94ADF885
:1015300064408DF8664002F086FD224B2B601B68EC
:1015400098472B68204DDB689847204BC5E90A4730
:10155000C5E90C442846C5E90034C5E9027401F028
:101560000BFD3146284601F091FEFFF73CF803F0F1
:10157000B1FE174A1748214603F0E6FE164B1860E5
:1015800003F0C2FEFEE700BF003802400008024040
:1015900098130020000C024050130020003002403D
:1015A000005C0040A0860100C814002000500140EB
:1015B00094140020400100A0EC13002000680140BA
:1015C0004C130020140000205813002000B00240EB
:1015D00010A20108EB05000848130020704770476F
:1015E0007FB5094B8DF817201B6802930DF1170288
:1015F0000123009201930A460146044802F0FCF9D7
:1016000007B05DF804FB00BF0C0000209813002019
:101610007FB500238DF81730084B1B6802930A46EC
:1016200001230DF11701009101930146044802F0D6
:1016300073FA9DF8170007B05DF804FB0C0000205A
:10164000981300201FB5084C24680092CDE901349E
:101650000A4601230146054802F05EFA003818BF29
:10166000012004B010BD00BF0C0000209813002022
:1016700001F0B6BB08B506480022042101F032FF94
:10168000BDE8084002480122042101F02BBF00BF41
:101690000008024038B50B4D044601220A484FF4B9
:1016A000005101F01FFF00220421284601F01AFF1B
:1016B0002046FFF785FD28460122BDE83840042179
:1016C00001F010BF00080240000C024038B50B4D7D
:1016D000044600220A484FF4005101F003FF0022A3
:1016E0000421284601F0FEFE2046FFF769FD28464A
:1016F0000122BDE83840042101F0F4BE0008024098
:10170000000C0240F7B5144E144F05460C46304607
:101710000022042101F0E6FE00224FF40051384679
:1017200001F0E0FE2846FFF74BFD0D4B0D481B680E
:10173000224601A903F053FB384601224FF4005121
:10174000019C01F0CFFE30460122042101F0CAFEC7
:10175000204603B0F0BD00BF00080240000C02406C
:1017600010000020C814002001F03ABB0268034BAF
:101770009A4201D101F022BB704700BF0010004027
:1017800082B00E4B00220092596C41F480415964A2
:10179000596C01F48041009100990192196C41F05B
:1017A000805119641B6C03F080530193019B0F213E
:1017B0006FF0010002B001F039BB00BF00380240F9
:1017C0000268094B9A4282B00BD100230193074B68
:1017D0001A6B42F480521A631B6B03F4805301931B
:1017E000019B02B0704700BF003002400038024049
:1017F00007B50F4B02689A4216D10022A3F5F043B9
:101800000192196B41F4000119631B6B03F400038F
:10181000019305215A20019B01F008FB5A2003B0D7
:101820005DF804EB01F034BB03B05DF804FB00BFCE
:1018300000B002400268064B9A4207D1054A136B7A
:1018400023F4000313635A2001F030BB704700BF3C
:1018500000B00240003802402DE9F043044689B050
:101860001422002103A817F0DDF92268244B9A42C4
:1018700043D1244C244800250095236B43F00403F6
:101880002363236B03F004030093009B0195236BF8
:1018900043F001032363236B03F001030193019BD6
:1018A0004FF012094FF400734FF00108032704268C
:1018B00003A9CDE90339CDE90587079601F02AFD93
:1018C0004FF480731148079603A9CDE90339CDE998
:1018D000058701F01FFD0295236C43F40003236488
:1018E000236C03F400030293029B236A43F4000376
:1018F0002362236A23F40003236209B0BDE8F08366
:10190000005C004000380240000802400000024035
:10191000F0B504468DB01422002107A817F082F913
:101920002268574B9A4240F0A88003F550430025A7
:1019300000955A6C534842F080625A645A6C02F027
:1019400080620092009A01951A6B42F020021A639D
:101950001A6B02F020020192019A02951A6B42F072
:1019600001021A631A6B02F001020292029A0395B5
:101970001A6B42F002021A631A6B02F0020203921F
:10198000039A04951A6B42F040021A631A6B02F034
:1019900040020492049A05951A6B42F004021A63FD
:1019A0001A6B02F004020592059A06951A6B42F032
:1019B00008021A631B6B03F00803069302240E2629
:1019C000069B0A944FF4806307A9CDE907340B9670
:1019D00001F0A0FC41F658032B480B9607A9CDE96E
:1019E00007340927CDE9095401F094FC0323274863
:1019F0000B9707A9CDE90734CDE9095401F08AFC1A
:101A00004FF4706321480B9607A9CDE90734CDE95F
:101A1000095401F07FFC4FF40C631D480B9607A995
:101A2000CDE90734CDE9095401F074FCC02319480D
:101A30000B9607A9CDE90734CDE9095401F06AFCFA
:101A4000082315480B9607A9CDE90734CDE90954B9
:101A500001F060FC4FF4A0530D480B9707A9CDE9A6
:101A60000734CDE9095401F055FC58202A460521D8
:101A700001F0DCF9582001F00BFA0DB0F0BD00BF09
:101A800000680140001402400000024000040240CF
:101A90000018024000080240000C024010B5044645
:101AA00088B01422002103A817F0BCF82268144B58
:101AB0009A4223D103F56843002101915A6C1148E1
:101AC00042F480125A645A6C02F480120192019A14
:101AD00002911A6B42F020021A631B6B03F0200381
:101AE0000293029B4FF4607202230321CDE903238A
:101AF0000523CDE9061303A901F00CFC08B010BDC5
:101B000000500140001402402DE9F04186B000234E
:101B100003932B4B1C68002C4FD14FF00108C3F8E6
:101B20000080284B00949A6B274842EA08029A6387
:101B30009B6B03EA08030093022703260C25009BF6
:101B400001A94FF63F03CDE90137CDE9046501F066
:101B5000E1FB1E48059501A9CDE90187CDE90346C2
:101B600001F0D8FB48F233131948059501A9CDE9D6
:101B70000137CDE9034601F0CDFB4FF683731548DD
:101B8000059501A9CDE90137CDE9034601F0C2FB76
:101B90004CF203731048059501A9CDE90137CDE951
:101BA000034601F0B7FB60230C48059501A9CDE978
:101BB0000137CDE9034601F0ADFB06B0BDE8F08189
:101BC00020150020003802400014024000080240A6
:101BD0000018024000100240000C024000040240C5
:101BE00030B5014689B00022362001F01FF93620B9
:101BF00001F04EF90025154B02951A6C144C42F079
:101C000010021A641B6C03F01003029301A903A8CD
:101C1000029B02F0E7FC02F0D5FC0E4B236040F281
:101C2000E733E36040000C4BB0FBF3F00138606039
:101C300020462561A56003F091FA20B9204603F003
:101C400071F909B030BD0120FBE700BF0038024048
:101C5000241500200010004040420F007047FEE7AE
:101C6000FEE7FEE7FEE77047014803F06FB900BFEB
:101C700024150020014802F089B900BFEC130020B0
:101C8000014801F079BA00BF5813002001207047C5
:101C900008B516F06DFF162303604FF0FF3008BD46
:101CA00008B516F065FF16230360FEE770B50D4614
:101CB00014460E46731B9C4201DC204670BDAFF3F8
:101CC000008006F8010BF5E770B50D4614460E4688
:101CD000731B9C4201DC204670BD16F8010BAFF36C
:101CE0000080F5E74FF0FF3070474FF400534B6032
:101CF0000020704701207047002070470A4A116891
:101D000008B5034609B909491160106869460344DA
:101D10008B4206D916F02CFF0C2303604FF0FF30E6
:101D200008BD1360FCE700BF6415002010260120E9
:101D3000704710B50421044616F0BAFE204610BDC7
:101D4000012908B506D0022908D059B900F0DCFCF9
:101D5000006808BD00F0D8FC4068FAE700F0D4FC49
:101D60008068F6E70020F4E70048704748A20108C1
:101D70000420704713B5002451B1036801948DF815
:101D8000034001AA9C680DF10303A04702B010BDF7
:101D90000846FBE740897047808970478088704714
:101DA00083798088184480B27047C07900F07F0042
:101DB0007047C079C00970477047704700F5967347
:101DC0000868496803C370477047704741607047AF
:101DD00070470000064BC0F848310023C0F84C3172
:101DE00000F5A073C0F84401C0F83C31704700BF53
:101DF000951E00080123037270477047704710B4A6
:101E0000C26841685410034601EB6200D20748BF24
:101E10000A599B685DF8044B48BFD358184743687C
:101E20002BB183682BB9C06800F0010070471846D9
:101E300070470120704710B50C21044616F038FE9B
:101E4000204610BD10B51021044616F031FE204684
:101E500010BD10B54FF4AC71044616F029FE2046B3
:101E600010BD08B508F0E6F8BDE8084008F0AABCC7
:101E700010B50446D0F83C0158B10368DB689847B8
:101E800038B1D4F83C0103689B6898470023C4F834
:101E90003C3110BD2DE9F14FD0E9545A0746A868EE
:101EA00003681B6A9847B0F5B47F05D2454B464A94
:101EB000A321464816F02AFE686803681B6A984703
:101EC0000F2803D8424B404AA421F2E7E868036890
:101ED0001B6A98470B2803D83E4B3B4AA521E8E7ED
:101EE000DFF8F89008F0A6F808F0AAF8D9F8000092
:101EF00010B10368DB689847D9F8000010B1036897
:101F00001B689847DFF8D880D8F8000010B1036844
:101F10005B699847D7F8380110B103685B68984748
:101F2000D8F8000010B103681B689847D7F838014B
:101F300010B103689B689847E868036800215B6AF2
:101F400098474FF0000B244B03600446C0F804B0E0
:101F500080F808B0A868036859465B6A9847064647
:101F600000F056FC6868036859465B6A984731463A
:101F7000054600F007FCC9F80040C7F83851C8F81A
:101F80000060E5B12B1DCAF800303368C5F808A021
:101F90003046DB68F56398472B6828461B689847EE
:101FA0002146304609F020FC236820461B699847EB
:101FB00023685B69204601B0BDE8F04F18472B4607
:101FC000E1E700BF98A2010826A3010824A40108A4
:101FD0006BA401080EA5010820A60108A823012072
:101FE000A423012070B504460D46164608F042F8B9
:101FF0000F4A0023C4E954650E4D1460C4E95233FE
:102000000D4A226028680D4AC4E94E33C4E95023C2
:10201000036801219B6898472B6893F876200AB1E2
:10202000D86C00B998680FF0F2FB204670BD00BF75
:10203000B423012068230120D4A50108BCA5010810
:10204000064BC0F848310023C0F84C3100F5A073AE
:10205000C0F84401C0F83C31704700BF951E00082D
:10206000006A7047406A704770478B8880690A68C9
:10207000DB0A50F823001044704710B5C2B1137B3F
:10208000B3B1547BD27A240204F4E0641443C269ED
:1020900098B202EB840213888B4202D192F90200BB
:1020A00010BD05D8013880B204320028F3D1F7E71B
:1020B0000020F5E710B52821044616F0F9FC20466B
:1020C00010BD000030B589B00446BDF850500695EB
:1020D000BDF84C5005959DF8405004959DF83C5036
:1020E00003959DF8385002959DF8345001959DF860
:1020F0003050009508F0D8FF064B2360119BA36178
:10210000129BE361159B2362169B6362204609B014
:1021100030BD00BF44A60108002070478180704791
:10212000C180704701817047418170477047704797
:1021300070477047704710B4C4880368121B8488C6
:102140005B6D091B12B25DF8044B09B218474FF6DC
:10215000FF7383814FF0FF3303621368C361106024
:1021600070477047704770477047704790F8252058
:102170001AB190F8242002B1186070477047704778
:1021800070477047704730B4C268446855100346C2
:1021900004EB6200D20748BF62599B6830BC48BF5D
:1021A000D358184743682BB183682BB9C06800F037
:1021B00001007047184670470120704710B5102184
:1021C000044616F075FC204610BD10B54FF4B471EE
:1021D000044616F06DFC204610BD90F8252012B183
:1021E00003685B691847704700F1F002914202D121
:1021F0000368DB6A184700F59272914202D10368C6
:102200001B6BF7E7704770B5036804461B6B1546F8
:1022100098472368294620465B6BBDE87040184705
:1022200070B504461D46BDF91060FFF7ECFF23684A
:10223000294620469B6B9847236831462046DB6B36
:10224000BDE87040184700000022C0E90122C0E943
:102250000322C0E90522C0E907224FF4807282847C
:10226000014A0260704700BF9CA6010838B52622CB
:1022700004460D46002116F0D5FC2046FFF7E4FF8A
:10228000064B23602B88E384FF23204684F8283004
:10229000294606F09EFD204638BD00BFBCB60108A9
:1022A00010B526220446002116F0BCFC2046FFF79C
:1022B000CBFF0023A36284F82C30012384F8243060
:1022C000044B23604FF6FF73E385238684F8323096
:1022D000204610BD14B601082DE9F04F044687B022
:1022E0002646002509F0D4F85C4BE56346F8403BF0
:1022F00026222946304616F095FC3046FFF7A4FF0B
:10230000574B2364FF2384F866304FF4807304F145
:10231000980AA4F89030534BE36604F1C409C4E969
:102320001C55C4E91E55C4E92055C4E92255A566CB
:10233000C4F894504FF6FF7705A9504604F1F00811
:10234000ADF81470FFF792FF05A94846ADF8147078
:10235000FFF78CFF04F592774046FFF7A1FF384660
:10236000FFF79EFF404BC4E95634404BC4E9583553
:102370004FF4A07300932A4629463046F023FFF716
:102380004FFF4FF07F4304F16C0BA3664FF4A07333
:1023900000932A46F02329465846FFF741FF2A4674
:1023A00029465046FFF72FFF05A95046ADF81450B7
:1023B00006F00FFDA02248466721FFF724FF032304
:1023C00005A94846ADF8143006F003FD40464FF429
:1023D00082720F21FFF717FF0123ADF8103005AA15
:1023E0004FF0020304A9404604F5AC75ADF8143073
:1023F00006F00CFC3846C4F818514FF48272A7213D
:10240000FFF701FF012305AAADF8103004A94FF032
:1024100002033846ADF8143006F0F8FB201D3146B3
:10242000C4F84C51039005F07BF90398594605F028
:1024300077F90398514605F073F90398494605F07A
:102440006FF90398414605F06BF90398394605F09A
:1024500067F9204607B0BDE8F08F00BF1CA7010850
:1024600048B50108C8AC010804A70108E921000823
:102470007047000030B5154D2C78BFF35B8F14F01A
:1024800001048DB01ED1284616F014FBD0B13F23B5
:1024900007930F4B06930F4B0F49104808940122E6
:1024A000CDE904430423CDE90132CDE909440A23EF
:1024B00003940094FFF706FE094816F045FB2846F2
:1024C00016F004FB05480DB030BD00BF68150020B4
:1024D000A0D00108ACD0010870D001086C15002014
:1024E000712400087047000030B5154D2C78BFF3FB
:1024F0005B8F14F001048DB01ED1284616F0DAFA75
:10250000D0B13F2307930F4B06930F4B0F49104851
:1025100008940122CDE904430423CDE90132CDE939
:102520000944142303940094FFF7CCFD094816F0E6
:102530000BFB284616F0CAFA05480DB030BD00BFA7
:1025400094150020A4D00108B0D0010880D0010863
:1025500098150020E52400087047000030B5154D9F
:102560002C78BFF35B8F14F001048DB01ED1284688
:1025700016F0A0FAD0B13F2307930F4B06930F4BF1
:102580000F49104808940122CDE904430423CDE902
:102590000132CDE90944282303940094FFF792FD0A
:1025A000094816F0D1FA284616F090FA05480DB001
:1025B00030BD00BFC0150020A8D00108B4D001086C
:1025C00090D00108C415002059250008002070474C
:1025D000002070470EB403B503AB002153F8042B61
:1025E000019308F093FB02B05DF804EB03B0704771
:1025F0000CB407B504AB53F8042B019308F086FB29
:1026000003B05DF804EB02B070470000436C10B5F6
:10261000044673B3038F2BB9184B194AC0211948CC
:1026200016F074FAC38E00EB43035B8C0BB309F016
:10263000EFFD238F012B03D8134B144AC521EEE77E
:10264000E28E531C9BB2092B194688BFA3F10A01E5
:1026500004EB410140F63F10498C814209D10A2B1D
:1026600004EB420228BF002304EB4303508C588440
:1026700051842046BDE8104009F0AEBC50A70108C7
:1026800059A7010804A801084EA801085CA8010880
:1026900009F05ABC38B510BB114B12481B681249DF
:1026A000B3B11A689C681A4402605A681A440A60F6
:1026B0001C440E4B00221A8000F026F8054600F05C
:1026C00021F80B4B1C600B4B1D600B4B188006E078
:1026D0000B600A4B0A4A1C680260002CE9D138BD25
:1026E000EC150020F0150020F4150020F81500204E
:1026F000B8230120C0230120BC230120C0D0010841
:10270000B8D001080120704700487047FC15002030
:1027100010B5FFF7E9FE044C2060FFF71FFF606073
:10272000FFF7A8FEA06010BDFC150020704710B593
:102730004FF4AC71044616F0BBF9204610BD10B53D
:102740000446D0F8540100F070F82046BDE810406F
:1027500007F0F0BA10B50446FFF744FC014B2360C4
:10276000204610BD38A901087047043870477047EB
:1027700010B51021044616F09BF9204610BDA0F1BB
:102780000400F5E710B500228260044AC16002F13E
:10279000080420320460426010BD00BF7CA901081B
:1027A00070477047FFF7EDBC10B54FF4B4710446A5
:1027B00016F07EF9204610BD38B5B0F8C810B0F953
:1027C000CA2000F1C4050A31044609B22846FFF7C1
:1027D0001AFD04F16C0008F0BAFB2846BDE8384049
:1027E00008F0B5BB38B5B0F8C810B0F9CA2000F190
:1027F000C4050A39044609B22846FFF704FD04F16E
:102800006C0008F0A4FB2846BDE8384008F09FBBE8
:1028100010B50446FFF760FD014B2360204610BD54
:10282000ACA901080022026070477047F020704791
:102830004FF4A07070472920FEF748BF2820FEF70C
:1028400045BF08B5FEF716FFCA20FEF73FFFC320BD
:10285000FEF720FF0820FEF71DFF5020FEF71AFFAD
:10286000CF20FEF733FF0020FEF714FFC120FEF754
:1028700011FF3020FEF70EFFED20FEF727FF64204A
:10288000FEF708FF0320FEF705FF1220FEF702FF08
:102890008120FEF7FFFEE820FEF718FF8520FEF7F7
:1028A000F9FE0020FEF7F6FE7820FEF7F3FECB20BF
:1028B000FEF70CFF3920FEF7EDFE2C20FEF7EAFEB6
:1028C0000020FEF7E7FE3420FEF7E4FE0220FEF7CC
:1028D000E1FEF720FEF7FAFE2020FEF7DBFEEA20FD
:1028E000FEF7F4FE0020FEF7D5FE0020FEF7D2FE34
:1028F000B120FEF7EBFE0020FEF7CCFE1B20FEF71A
:10290000C9FEB620FEF7E2FE0A20FEF7C3FEA220B3
:10291000FEF7C0FEC020FEF7D9FE1020FEF7BAFE7B
:10292000C120FEF7D3FE1020FEF7B4FEC520FEF74F
:10293000CDFE4520FEF7AEFE1520FEF7ABFEC7200C
:10294000FEF7C4FE9020FEF7A5FE3620FEF7BEFE81
:10295000C820FEF79FFEF220FEF7B8FE0020FEF72B
:1029600099FEB020FEF7B2FEC220FEF793FEB6201D
:10297000FEF7ACFE0A20FEF78DFEA720FEF78AFECA
:102980002720FEF787FE0420FEF784FE2A20FEF7AC
:102990009DFE0020FEF77EFE0020FEF77BFE00205D
:1029A000FEF778FEEF20FEF775FE2B20FEF78EFE79
:1029B0000020FEF76FFE0020FEF76CFE0120FEF700
:1029C00069FE3F20FEF766FEF620FEF77FFE01203F
:1029D000FEF760FE0020FEF75DFE0620FEF75AFEC1
:1029E0002C20FEF773FEC820FEF7BEFE2620FEF761
:1029F0006DFE0120FEF74EFEE020FEF767FE0F2081
:102A0000FEF748FE2920FEF745FE2420FEF742FE91
:102A10000C20FEF73FFE0E20FEF73CFE0920FEF7DD
:102A200039FE4E20FEF736FE7820FEF733FE3C20BE
:102A3000FEF730FE0920FEF72DFE1320FEF72AFEDA
:102A40000520FEF727FE1720FEF724FE1120FEF7D3
:102A500021FE0020FEF71EFEE120FEF737FE0020DB
:102A6000FEF718FE1620FEF715FE1B20FEF712FEDD
:102A70000420FEF70FFE1120FEF70CFE0720FEF7E4
:102A800009FE3120FEF706FE3320FEF703FE42204A
:102A9000FEF700FE0520FEF7FDFD0C20FEF7FAFD17
:102AA0000A20FEF7F7FD2820FEF7F4FD2F20FEF7A1
:102AB000F1FD0F20FEF7EEFD1120FEF707FEC82006
:102AC000FEF752FE2920FEF701FEBDE808402C204B
:102AD000FEF7FCBD08B5FEF7CDFD0321D320FEF7C0
:102AE00011FE80B208BD10B5C4B2022203212046F7
:102AF000FEF776FD0A20FEF7BBFD204600220321EB
:102B0000FEF76EFDBDE810400220FEF7B1BD38B5FE
:102B10000446E4B2FEF762FD00212046FEF778FD90
:102B2000012105462046FEF773FD40EA052080B2EC
:102B300038BD10B5C4B240212046FEF769FD03063A
:102B400007D54C212046FEF763FD003818BF012051
:102B500010BD01224B212046FEF742FD20460022F7
:102B60004B21FEF73DFD0020F2E773B50423C4B20C
:102B70000E461546D7210DEB03022046FEF762FDF7
:102B8000019B1BBA1A0DC3F30B23328020462B8006
:102B900001224B21FEF724FD00224B212046FEF7A7
:102BA0001FFD02B070BD000010B50A4B1A789042AC
:102BB00004460DD0597888420AD00AB141B90122A1
:102BC0009C54FEF70BFD2046BDE81040FFF78BBF7D
:102BD00010BD00BF0816002010B5C4B20921204660
:102BE000FEF716FD40F00100C2B209212046BDE803
:102BF0001040FEF7F5BC10B5C4B209212046FEF71F
:102C000007FD092100F0FE022046BDE81040FEF756
:102C1000E7BC38B5C4B20D4620460A21FEF7F8FCE1
:102C20002843C2B20A212046BDE83840FEF7D8BC8E
:102C300007B50190FEF7D3FC01981F21FFF7E9FFCC
:102C4000019803B05DF804EBFFF7C6BF38B5C4B216
:102C50000D4620460A21FEF7DBFC20EA0500C2B241
:102C60000A212046BDE83840FEF7BABC10B504463C
:102C7000FFF7C1FF20461F21BDE81040FFF7E6BF68
:102C800010B5C0B20C460B21FEF7C2FC204010BDAF
:102C90001F21FFF7F5BF0A46C0B20B21FEF7A0BC0B
:102CA0001F21FFF7F8BF38B5C4B20D4620461721E3
:102CB000FEF7AEFC20EA0500C2B217212046BDE8AF
:102CC0003840FEF78DBC70B5C4B2064604212046DC
:102CD000FEF79EFC042100F0FB0205462046FEF7AD
:102CE0007FFC3046F021FFF7DEFF05F0F8022046BA
:102CF0000421FEF775FC492220212046FEF770FCD6
:102D00000220FEF7B5FC204601222121FEF768FCD7
:102D100020469A224121FEF763FC204601224A21E7
:102D2000FEF75EFC204601224B21FEF759FC2046AF
:102D300000224B21FEF754FC204601225621FEF7CB
:102D40004FFC204601225821FEF74AFC2046012272
:102D50004021FEF745FC2046FF220B21FEF740FCF8
:102D6000BDE870400220FEF783BC0000054BD3F89D
:102D7000882042F47002C3F888204FF000629A6005
:102D8000704700BF00ED00E008B50B4B1A6842F435
:102D900000721A601A6842F480621A601A6842F47B
:102DA00080721A60032000F02FF80020FEF718FF51
:102DB000FEF7E6FC002008BD003C0240034A044B3D
:102DC00011681B780B441360704700BF0C1600207D
:102DD00078000020014B1868704700BF0C160020D7
:102DE00038B50446FFF7F6FF631C1CBF054B1B7884
:102DF000054618BFE418FFF7EDFF431BA342FAD3C3
:102E000038BD00BF780000200749CA6822F4E0629C
:102E10000302120403F4E063120C134343F0BF6394
:102E200043F40033CB60704700ED00E0164B30B543
:102E3000DC68C4F30224C4F10705231D042D28BF58
:102E40000425062B4FF0FF338CBF033C002403FA0C
:102E500005F521EA0501A34022EA0302A14000286A
:102E600041EA0203ACBF00F16040084A4FEA031395
:102E7000B8BF00F00F00DBB2AABF00F561401354E9
:102E800080F8003330BD00BF00ED00E014ED00E03D
:102E9000002808DB4209012300F01F0003FA00F0BC
:102EA000014B43F82200704700E100E000280DDBF1
:102EB0004309012200F01F0002FA00F02033044A07
:102EC00042F82300BFF34F8FBFF36F8F704700BFEF
:102ED00000E100E010B5044650B1437903F0FF0271
:102EE00013B90271FEF76CFC01236371002010BD61
:102EF0000120FCE770B50468049D666C45EA034355
:102F000006F04046334363644368E263B3F5403FF1
:102F100030D186681EB1012E03D121F07F41A1631B
:102F200070BD022E01F47F0301F47F45C8B207D1C2
:102F3000DB0CA90ADB0243EA411343EAD001EEE7C6
:102F4000032E01F07F420AD1D90CED0A890241EA31
:102F5000451141EAD001D30F41EAC331DFE7190D32
:102F60002D0B090241EA051141EA1011130F41EA44
:102F70000331D4E7E160D3E710B5044630B390F8ED
:102F8000393003F0FF021BB980F83820FEF730FC1F
:102F900022686168022384F83930136823F44033CF
:102FA0000B431360536BA16823F007030B43536378
:102FB000136CE16823F47F5323F03F030B43136446
:102FC00000200123E06384F8393010BD0120FCE7C4
:102FD00073B590F83850012D04464FF0020513D018
:102FE00080F839500126069D80F838600095FFF77B
:102FF00081FF23681A6842F40C521A601A6832433F
:103000001A60002002B070BD2846FBE773B5164673
:103010001A4690F83830012B04464FF0020517D0BD
:10302000012380F83830036880F839505E61079BCF
:103030000093069BFFF75EFF23681A6842F40C5268
:103040001A601A6842F001021A60002002B070BDD6
:103050002846FBE7026838B5136823F0050343F000
:10306000040313600446FFF7B5FE054622681368A3
:1030700013F0010309D1116821F40C5111600122F0
:1030800084F8392084F838300FE0FFF7A3FE401BA6
:10309000B0F57A7FEAD9E36B43F02003E3630022C3
:1030A000032384F8393084F83820184638BD70B5C9
:1030B00005682A6842F004022A600129044614BF08
:1030C00024351C35FFF786FE06462B6813F02003D7
:1030D0000AD121680A6822F464520A60012284F845
:1030E000392084F838300FE0FFF774FE801BB0F50C
:1030F0007A7FEAD9E36B43F02003E36300220323E2
:1031000084F8393084F83820184670BD38B5054643
:1031100008B9012038BD164B1B6B190213D42B685C
:1031200000243F221C6028469A601C619C61DC617F
:103130005C625C63FEF77EFBEC6385F8384085F8E3
:1031400039402046E6E70368196811F0010104D010
:10315000FFF780FF0028E2D0DBE75A6A920602D52B
:10316000FFF7A5FFF6E7DB699B06D8D50121F7E756
:103170000038024070477047036870B55E681D688C
:10318000F207044614D5E90512D51A6822F48072B4
:103190001A60C26B42F00102C26301229A600423EA
:1031A00080F83930002380F83830436903B19847FC
:1031B000B20616D5AB0414D523681A6822F400525F
:1031C0001A6020229A60E36B43F00203E363042356
:1031D00084F83930002384F8383063690BB1204615
:1031E0009847300716D5290514D523681A6822F4A4
:1031F00000621A6008229A60E36B43F00403E36301
:10320000042384F83930002384F8383063690BB123
:103210002046984772070BD56B0509D523681A68B5
:1032200022F480621A6004229A602046FFF7A2FF0F
:10323000B00714D5A90512D523681A6822F40072C4
:103240001A6002229A60E36BE363012384F8393049
:10325000002384F8383023690BB120469847F206E2
:1032600013D5EB0411D523681A6822F480521A6032
:1032700010229A60E36BE363012384F83930002362
:1032800084F838302046FFF776FF70BDF0B590F82F
:103290003830012B4FF002032BD0012280F8393057
:1032A00080F8382000EB0113D3E907425D6A184F1C
:1032B00044EA0242093C012C9CBF05F07F431A43BB
:1032C0004FEA0116036888BF42EA056299B9596A54
:1032D00039400A435A62012C82699A6103D8426AD2
:1032E00022F07F429A62012380F83930002380F86F
:1032F00038301846F0BDD96939400A43DA6182197D
:10330000012C92691A619CBF25F07F451D62EAE796
:10331000F0FFFC002DE9F74FDFF8C0816D4ADFF8C0
:10332000C09100230D6801249C4004EA0506AC43CB
:1033300040F0B7804C6824F0100C4FEA430E032590
:103340000CF1FF3705FA0EF5012F6FEA050511D8CC
:10335000876807EA050ACF6807FA0EF747EA0A07FF
:103360008760476827EA060AC4F300179F4047EAC8
:103370000A074760C76807EA050A8F6807FA0EF769
:1033800047EA0A07BCF1020FC76016D14FEAD30A19
:1033900000EB8A0A03F0070BDAF820704FEA8B0B78
:1033A0004FF00F0C0CFA0BFC27EA0C0C0F6907FA14
:1033B0000BF747EA0C07CAF8207007683D4004F095
:1033C000030707FA0EF73D430560E50069D54FF0A6
:1033D000000BCDF804B0D8F844703F4D47F4804757
:1033E000C8F84470D8F8447007F480470197019FEB
:1033F00023F0030707F1804707F59C3703F0030E1E
:10340000D7F808A04FEA8E0E4FF00F0C0CFA0EFC06
:10341000A8422AEA0C0C4BD005F58065A84249D099
:1034200005F58065A84247D005F58065A84245D0DE
:1034300005F58065A84243D0484543D005F50065B1
:10344000A84241D005F58065A8423FD005F58065CA
:10345000A8423DD005F58065A8420CBF09250A2584
:1034600005FA0EF545EA0C05BD601568F74314F43E
:10347000803F0CBF3D4035431560556814F4003F54
:103480000CBF3D4035435560956814F4801F0CBF58
:103490003D4035439560D568A40254BF3D40354357
:1034A000D5600133102B7FF43DAF03B0BDE8F08F42
:1034B0005D46D5E70125D3E70225D1E70325CFE710
:1034C0000425CDE70525CBE70625C9E70725C7E78E
:1034D0000825C5E7003C01400000024000380240DA
:1034E000001402400AB1816170470904FBE70168DA
:1034F0004B6913F480634FF0000210D06FF48063C7
:103500004B612023026380F83D3080F83E20036C3D
:1035100080F83C2043F00403036401207047184600
:1035200070472DE9F84606460F4691461D464FEA7C
:10353000114A3368BAF1010F0CBF5C699C6927EA34
:103540000404A4B2B4FA84F46409A14501D00020B3
:1035500017E06A1CEED0FFF73DFC089BC01AA8429A
:1035600001D8002DE5D100232022336386F83D20C9
:1035700086F83E30326C86F83C3042F020023264ED
:103580000120BDE8F8862DE9F04104460F461646B5
:1035900098462568686927EA000080B2B8B16B696F
:1035A0005A0516D52B6843F400732B606FF48063C3
:1035B0006B6120220023236384F83D2084F83E3091
:1035C000226C42F00402226484F83C300120BDE801
:1035D000F081731CDED0FFF7FDFBA0EB0800B042CA
:1035E00001D8002ED5D100232022236384F83D206A
:1035F00084F83E30226C42F02002E4E770B50446C5
:103600000D46164621684B6913F0400301D0002097
:1036100010E04A69D2060ED56FF010024A612022EE
:10362000236384F83D2084F83E30226C226484F8C1
:103630003C30012070BDFFF7CDFB801BA84201D8B4
:10364000002DDFD100232022236384F83D2084F85D
:103650003E30226C42F02002E8E770B504460D4689
:10366000164623685B695B0701D5002070BD2046C4
:10367000FFF73DFFA8B96A1CF3D0FFF7ABFB801B37
:10368000A84201D8002DECD100232022236384F826
:103690003D2084F83E30226C84F83C3042F0200219
:1036A00022640120E2E770B504460D461646236801
:1036B0005B691B0601D5002070BD2046FFF717FF90
:1036C000A8B96A1CF3D0FFF785FB801BA84201D87C
:1036D000002DECD100232022236384F83D2084F8C0
:1036E0003E30226C84F83C3042F0200222640120FB
:1036F000E2E700002DE9F0431546026885B0DDE9F8
:103700000C789946136843F4807313600E463B4669
:10371000CDF8008000224FF001110446FFF701FFB1
:10372000236838B11B68DB0502D54FF400732364AE
:1037300003200AE006F0FE061E61194943463A4698
:103740002046FFF720FF18B1012005B0BDE8F08347
:10375000236803905A6903929B6903934246394652
:103760002046039BFFF79FFF40B1236C042B01BF52
:103770002268136843F400731360E5E7B9F1010FA1
:10378000236802D1EDB21D61DFE72A0A1A613946CA
:1037900042462046FFF787FF0028E6D12368F1E77D
:1037A000020001002DE9FF479A46036815461A6892
:1037B00042F480621A601A68DDE90C7842F4807283
:1037C0001A600E463B46CDF8008000224FF00111F2
:1037D0000446FFF7A6FE236848B11B68DB0502D547
:1037E0004FF400732364032004B0BDE8F0875FFA50
:1037F00086F906F0FE061E612A4943463A462046EF
:10380000FFF7C1FE08B10120EEE7236803905A6973
:1038100003929B690393424639462046039BFFF778
:1038200042FF40B1236C042B01BF2268136843F4AC
:1038300000731360E7E7BAF1010F23681AD1EDB204
:103840001D61424639462046FFF72DFF0028E9D189
:103850002268136843F4807313604FF0011102462D
:10386000CDF800803B462046FFF75BFE226860B142
:103870001368B3E72A0A1A61394642462046FFF721
:1038800012FF0028CED12368D9E749F00103136164
:10389000044943463A462046FFF775FE003818BFF4
:1038A0000120A1E70200010070B5044608B901201B
:1038B00070BD90F83D3003F0FF021BB980F83C204A
:1038C000FDF7CAFF242384F83D3023681A6822F0EC
:1038D00001021A601A6842F400421A601A6822F45F
:1038E00000421A6000F06EFE3F4B65689D4294BF37
:1038F0003E4B3F4B98428CBF00230123002BD6D177
:103900002268394E53683B49B0FBF1F123F03F0385
:103910000B43B542536088BF4FF49676136A88BF55
:10392000714323F03F0384BF4FF47A76B1FBF6F185
:10393000013119431162D169431E2B4821F44F41D3
:10394000854221F0FF0132D86D0040F6FC70B3FBD8
:10395000F5F30133034242D0C3F30B030B43D361AE
:10396000D4E907301168034321F0C0010B43136011
:103970009168D4E9030321F40341034321F0FF01DB
:103980000B439360D4E90530D168034321F0FF0174
:103990000B43D360136843F001031360002020231E
:1039A000206484F83D30206384F83E0080E7A068FE
:1039B00050B905EB4505B3FBF5F30133C3F30B0336
:1039C0007BB143F40043C9E719204543B3FBF5F34A
:1039D0000133C3F30B0323B143F44043BEE7042395
:1039E000BCE70123BAE700BFA08601007F841E0068
:1039F000FF083D0040420F002DE9F7430446994679
:103A00000C9E0F469046FFF7E5F994F83D30202BC9
:103A1000054603D0022003B0BDE8F08300903C4986
:103A2000192301222046FFF77CFD0028F2D194F8EB
:103A30003C30012BEED02068012384F83C30036831
:103A4000D9075EBF036843F001030360036823F4F2
:103A500000630360212384F83D30402384F83E3026
:103A6000002323640A9B6362BDF82C306385638D59
:103A70002385284BE362CDE900654B464246394633
:103A80002046FFF737FE00282AD00120C3E7FFF7C2
:103A90000AFE40B1236C042B01BF2268136843F473
:103AA00000731360F1E7636A27681A4612F8011B76
:103AB00039616262628D218D013A92B262857A69C2
:103AC000481E80B2520720850AD548B15A783A611B
:103AD00002336362638D013B02399BB221856385AA
:103AE000238D2A4631462046002BD0D1FFF7B5FD65
:103AF0000028CFD12268136843F400731360202399
:103B000084F83D3084F83C0084F83E0083E700BF31
:103B1000020010000000FFFF2DE9F043044687B0CB
:103B20009946109F0D469046FFF754F994F83D30A2
:103B3000202B064604D00225284607B0BDE8F083B6
:103B400000907649192301222046FFF7EAFC00285D
:103B5000F1D194F83C30012BEDD02068012384F89A
:103B60003C300368DB075EBF036843F0010303607A
:103B7000036823F400630360222384F83D3040236C
:103B800084F83E30002323640E9B6362BDF83C3012
:103B90006385638D2385624BE3622946CDE9007618
:103BA0004B4642462046FFF7FDFD054608B101257C
:103BB000C2E7228D2368B2B902905A6902929A69CB
:103BC0000292029A1A6842F400721A60DFF8548175
:103BD000238D002B2CD1202284F83D2084F83C300A
:103BE00084F83E30A8E7012A0AD11A6822F48062DC
:103BF0001A6003905A6903929A690392039AE1E763
:103C0000022A0ED11A6822F480621A601A6842F4FD
:103C100000621A6004905A6904929B690493049BA1
:103C2000D4E705905A6905929B690593059BCDE7FA
:103C3000032B56D8012B15D1324639462046FFF7C3
:103C4000DDFC0028B3D123681A69636A1A70636ABD
:103C500001336362238D013B2385638D013B9BB25E
:103C60006385B5E7022B00963B464FF000024146C4
:103C7000204619D1FFF755FC002898D123681A680F
:103C800042F400721A601A69636A1A70626A531CFD
:103C90006362238D013B2385638D013B9BB263856A
:103CA00023681B695370D2E7FFF73BFC00287FF4C1
:103CB0007EAF23681A6822F480621A601A69636A08
:103CC0001A70636A009601336362238D013B23857A
:103CD000638D013B9BB2638502463B4641462046CD
:103CE000C8E7324639462046FFF788FC00287FF4B3
:103CF0005EAF23681A69636A1A70626A531C636252
:103D0000238D013B2385638D013B9BB26385236833
:103D1000596949077FF55CAFC3E700BF0200100097
:103D20000000FFFF0400010010B590F83D30202B8B
:103D3000DCB216D1242380F83D3003681A6822F0E3
:103D400001021A605A6A22F010025A625A6A11433A
:103D500059621A6842F001021A6080F83D40002062
:103D600010BD0220FCE730B590F83D30202BDCB2CE
:103D700016D10268242380F83D30136823F0010334
:103D80001360556A4FF6F0732B400B439BB253629E
:103D9000136843F00103136080F83D40002030BDFC
:103DA0000220FCE70068D1F800C0D20184328318F9
:103DB0002DE9F043C6685D684C68D1F8189005F4A9
:103DC00070455D60C5680CF10107C5F30B45C6F38E
:103DD0000B463D44264445EA06455D60C568CE680D
:103DE000C5F30A052E449D6805F470459D60C768BB
:103DF0008D68C7F30A0701353D4445EA06459D60D5
:103E00001D690E6925F007051D614FF0000E1E614A
:103E10009D6991F8327091F83180C3F818E091F8FB
:103E2000305045EA096545EA082545EA07459D61A0
:103E30005D6925F0FF055D614D695D61DD6925F412
:103E4000E06525F00705DD61D1E907573D43DD61F8
:103E50009D6A4D6AC3F828E09D621EB3012E23D0EF
:103E6000B51E022D22D9072E0CBF02250125DE6AC0
:103E700006F0E026DE62A4EB0C048E6AC96A6C438D
:103E80006E43033444EA0644DC621C6B24F4FF6492
:103E900024F007041C631963835843F00103835023
:103EA000BDE8F0830425E2E70325E0E70225DEE72D
:103EB00038B50446002863D090F8A13003F0FF0223
:103EC0001BB980F8A020FDF723FD022384F8A13060
:103ED00023689A6922F070429A61D4E90120024372
:103EE000E06899690243206902430A439A619A682B
:103EF000244960690A409A609A6842EA0042A069CF
:103F000002439A60DA68E0690A40DA60DA6842EAF5
:103F10000042206A0243DA601A69606A0A401A6144
:103F20001A6942EA0042A06A02431A615A691140C2
:103F300059615A69E16A42EA0142216B0A435A61B6
:103F4000D96A94F8360094F8355001F07F41D9626F
:103F5000D96A94F834200A4342EA052242EA004230
:103F6000DA625A6B42F006025A639A6942F0010221
:103F70009A6100200123C4F8A40084F8A13038BD60
:103F80000120FCE700F800F070477047036870B547
:103F90009E6B5D6B7207044614D5690712D55A6B88
:103FA00022F004025A630422DA63D0F8A43043F00A
:103FB0000103C0F8A430002380F8A12080F8A030CD
:103FC000FFF7E2FFB20716D5AB0714D523685A6B8B
:103FD00022F002025A630222DA63D4F8A4301343B7
:103FE000C4F8A430042384F8A130002384F8A0305E
:103FF0002046FFF7C9FFF00710D5E9070ED5236863
:104000005A6B22F001025A630122DA63002384F81A
:10401000A12084F8A0302046FDF7A2F8320711D580
:104020002B070FD523685A6B22F008025A63082227
:10403000DA63012384F8A130002384F8A0302046FD
:10404000FFF7A3FF70BD2DE9F04190F8A030012BE0
:1040500006460F4694464FF002001FD04FF001086D
:1040600086F8A08086F8A10034240D4604FB026483
:104070000FCD38340FC40FCD0FC40FCD0FC42B6834
:104080002360304662463946FFF78CFE33680020D5
:10409000C3F8248086F8A18086F8A000BDE8F081EE
:1040A00090F8A030012B4FF0020312D080F8A1301D
:1040B00003685A6B22F001025A63074A11645A6B73
:1040C00042F001025A63012380F8A130002380F8F6
:1040D000A0301846704700BF006801402DE9F34149
:1040E000044640B30368DD0710D4236898075ED404
:1040F00023681A0700F1A08023685B0700F1C080E5
:10410000A069002840F0288100202BE08F4B9A689E
:1041100002F00C02042A07D09A6802F00C02082A66
:104120000BD15A68510208D5884B1B689A03DCD51D
:104130006368002BD9D1012014E06268B2F5803F9A
:1041400013D11A6842F480321A60FEF743FE7F4EA4
:10415000054633689B03C8D4FEF73CFE401B642829
:10416000F7D9032002B0BDE8F081784DB2F5A02F59
:104170002B6807D143F480232B602B6843F48033F2
:104180002B60E2E723F480332B602B6823F4802339
:104190002B60002AD9D1FEF71DFE06462B689F032F
:1041A000A3D5FEF717FE801B6428F7D9D9E7674B24
:1041B0009A6812F00C0F07D09A6802F00C02082AD5
:1041C00011D15B685E020ED4604A13689D0702D568
:1041D000E368012BAFD11368216923F0F80343EAA8
:1041E000C103136084E7E268594BB2B101221A603F
:1041F000FEF7F0FD554D06462B68980707D52B684E
:10420000226923F0F80343EAC2032B6070E7FEF74C
:10421000E1FD801B0228EFD9A3E71A60FEF7DAFD63
:104220004A4E0546336899077FF562AFFEF7D2FD27
:10423000401B0228F6D994E76269454B82B10122FE
:10424000C3F8802EFEF7C6FD404E0546736F9F07EC
:104250003FF552AFFEF7BEFD401B0228F6D980E7BE
:10426000C3F8802EFEF7B6FD384E0546736F9807EB
:104270007FF542AFFEF7AEFD401B0228F6D970E78E
:10428000324B1A6C12F0805228D101921A6C42F013
:1042900080521A641B6C03F080530193019B012729
:1042A0002C4D2B68D9051BD5A368284D012B27D190
:1042B0002B6F43F001032B67FEF78CFD234E054661
:1042C00041F28838336F9B0739D5002F3FF418AF80
:1042D0001E4A136C23F08053136411E70027DFE7B5
:1042E0002B6843F480732B60FEF774FD06462B6841
:1042F000DA05D9D4FEF76EFD801B0228F7D930E726
:10430000052B04D12B6F43F004032B67D0E72A6FF2
:1043100022F001022A672A6F22F004022A67002B8A
:10432000CAD1FEF757FD41F2883806462B6F980731
:10433000CBD5FEF74FFD801B4045F7D911E7FEF7BF
:1043400049FD401B4045BDD90BE700BF0038024086
:104350000000474200700040334DAB6803F00C038F
:10436000082B3DD0314B002202281A662BD1FEF7D4
:1043700031FD06462B6899011FD4D4E90732134357
:10438000626A43EA8213E26A43EA0263A26A52085B
:10439000013A43EA02436B60244B234D01221A6623
:1043A000FEF718FD04462B689A013FF5ADAEFEF707
:1043B00011FD001B0228F6D9D3E6FEF70BFD801B8A
:1043C0000228D7D9CDE6FEF705FD04462B689B01F0
:1043D0007FF59AAEFEF7FEFC001B0228F6D9C0E678
:1043E00001283FF4BFAE6B68E26903F4800191429B
:1043F0007FF4A1AE216A03F03F028A427FF49BAEB4
:10440000616A47F6C0721A408A427FF494AEA16A8C
:1044100003F440328A427FF48EAEE26A03F07063A6
:1044200093423FF471AE86E60038024000004742F6
:10443000134908B58B6803F00C03042B1CD0082B20
:104440001CD14A684B68496813F4800314BF0D48B7
:104450000D48C1F3881118BF002302F03F02A1FBF1
:104460000001FBF715FF064B5B68C3F30143013303
:104470005B00B0FBF3F008BD0248FCE70248FAE736
:104480000038024000127A000024F4002DE9F041C7
:104490000D46044610B90120BDE8F081444B1A686E
:1044A00002F00F028A4228D3226897072DD4D00742
:1044B00041D43F4B1A6802F00F02AA4266D8226824
:1044C00051076CD4130707D53A4A2169936823F43E
:1044D000604343EAC1039360FFF7AAFF354B364AB6
:1044E0009B68C3F30313D35CD840344B1860344B40
:1044F0001868FDF775FB0020CEE7CAB21A701B687A
:1045000003F00F038B42C6D1CEE72A4B12F0040F03
:104510001EBF996841F4E0519960160742BF99683F
:1045200041F4604199602349A0688B6823F0F0034F
:1045300003438B60BBE762681E4B012A1CD11B68DA
:1045400013F4003FA7D01B4EB36823F003031343BB
:10455000B360FEF73FFC41F288380746B3686268F3
:1045600003F00C03B3EB820FA3D0FEF733FCC01BA8
:104570004045F3D903208FE7911E01291B6802D81B
:1045800013F0007FDEE713F0020FDBE7EAB21A70E8
:104590001B6803F00F03AB427FF47DAF8FE7054943
:1045A000E0688B6823F4E05303438B608AE700BF25
:1045B000003C024000380240E0A9010874000020DD
:1045C0007C000020044B054A9B68C3F38223D35C24
:1045D000034A1068D840704700380240F0A901082B
:1045E000740000200F2303600B4B9A6802F0030253
:1045F00042609A6802F0F00282609A6802F4E05227
:10460000C2609B68DB0803F4E0530361034B1B6843
:1046100003F00F030B60704700380240003C02407B
:10462000036813F0430FF7B5044640F08C8023680D
:1046300013F00C0F45D08B4B8B4D00221A67FEF701
:10464000C9FB06462B689F0000F1CF8021684E070A
:1046500015D5D4E90403D5F888201B0602F0E04202
:1046600043EA80131343C5F88830D5F88C30226AAA
:1046700023F4F853013A43EA0223C5F88C300D07BE
:1046800014D5794AA369D2F8881020691B0701F074
:10469000706143EA80130B43C2F88830D2F88C3043
:1046A000616A23F440330B43C2F88C306D4B6E4E7D
:1046B00001221A67FEF78EFB05463368980040F129
:1046C0009B8023689B0633D500230193664B674D7F
:1046D0001A6C42F080521A641B6C03F080530193F1
:1046E000019B2B6843F480732B60FEF773FB064637
:1046F0002B68D90540F187805B4D2B6F13F4407315
:1047000040F08880A36A03F44072B2F5407F564AB5
:1047100040F0A480916823F0704021F4F81120F457
:10472000407001439160116FC3F30B030B43136798
:10473000206810F010001FBF4D4B94F82C20C3F8D8
:10474000E02100204FE0474B474E00229A66FEF7DB
:1047500041FB054633681F013FD42168CD0741BFA7
:10476000D4E901231B0743EA8213C6F88430880783
:1047700015D53D4AE368D2F8840065681B0600F051
:10478000E04043EA85130343C2F88430D2F88C003A
:10479000E36920F01F00013B0343C2F88C30490657
:1047A0000AD5E36862681B0643EA8213A26843EAFB
:1047B00002732D4AC2F884302A4B2B4E01229A668E
:1047C000FEF708FB054633681A013FF530AFFEF7E8
:1047D00001FB401B0228F6D904E0FEF7FBFA401B60
:1047E0000228B7D9032003B0F0BDFEF7F3FA801B0F
:1047F00002287FF627AFF5E7FEF7ECFA401B022808
:104800007FF65BAFEEE7FEF7E5FA801B02287FF646
:104810006FAFE7E7A26A02F4407293423FF472AFCF
:104820002B6F104A0121C2F8401E23F4407300216F
:10483000C2F8401E2B672B6FDA077FF563AFFEF7D8
:10484000C9FA41F2883706462B6F9B073FF55AAFEE
:10485000FEF7C0FA801BB842F6D9C3E7916821F48D
:10486000F8115FE700004742003802400070004046
:104870000010474238B50D460446C8B190F82C30B8
:1048800003F0FF021BB980F82D20FDF73DF902234C
:1048900084F82C30211D206800F07CFC62682068C0
:1048A000294600F0ADFC012384F82C30002038BDEF
:1048B0000120FCE738B590F82C30022B04460D4659
:1048C000D8B20DD0022384F82C30206800F0D4FC3C
:1048D0002B68022B0CBF0523012384F82C30002009
:1048E00038BD10B590F82C30022B0446D8B209D050
:1048F000022384F82C30206800F0E5FC012384F8C2
:104900002C30002010BDF8B504460E4615461F4653
:104910002268936836EA030301D000202DE06B1C67
:10492000F7D0FEF757FAC01B8542F1D823685A68C2
:1049300022F0E0025A606268B2F5827F0AD1A26872
:10494000B2F5004F02D0B2F5806F03D11A6822F0A1
:1049500040021A60A26AB2F5005F07D11A6822F419
:1049600000521A601A6842F400521A60012384F857
:104970005130002384F850300320F8BD38B5134679
:104980004268B2F5827F04461FD18268B2F5004FBB
:1049900002D0B2F5806F07D125682868B2F5806F24
:1049A00020F04000286007D00A4680212046FFF70B
:1049B000AAFF20B9002038BD0A460121F6E7636D41
:1049C00043F0200363650320F5E70A460121EEE783
:1049D00037B51346124A1568124AB5FBF2F54FF483
:1049E0007A72554342680195B2F5827F04460BD135
:1049F0000A468021FFF787FF78B1636D43F02003FB
:104A00006365032003B030BD019B33B1019B013BC3
:104A1000019323689B681B06F6D40020F2E700BFD1
:104A20007400002000366E0110B50446002836D010
:104A30000023836290F8513003F0FF021BB980F825
:104A40005020FDF72BF82168A269022384F8513029
:104A50000B6823F040030B60D4E901300343E068A6
:104A600003432069034360690343E0690343206A09
:104A70000343A06A034302F4007003430B60120C6B
:104A8000636A02F004021A434A60CB6923F40063AC
:104A9000CB6100200123606584F8513010BD0120F6
:104AA000FCE72DE9F3411E4690F85030012B0446F7
:104AB0000D46174600F09D80012380F85030FEF728
:104AC00089F994F85130012B8046D8B240F08F809C
:104AD000002D5AD0002F58D0032384F85130A268FB
:104AE000256300236365C4E91033E786A363E38786
:104AF000A3872368A786B2F5004F08BF1A68E1684C
:104B000004BF42F480421A601A6852065EBF1A68F7
:104B100042F040021A60B1F5006F626841D10AB1FB
:104B2000012F07D135F8022BDA602563E38E013BB4
:104B30009BB2E386E38E9BB2A3B942463146204640
:104B4000FFF746FF00284FD1A36833B901932368CC
:104B5000DA6801929B680193019B606D003818BF71
:104B6000012012E022689368980705D5236B33F87B
:104B7000021BD1602363D9E7FEF72CF9A0EB0800F4
:104B8000B0420BD3711CD5D00320012384F85130DF
:104B9000002384F8503002B0BDE8F081002EC9D166
:104BA000F2E70AB1012F08D12A781A73236B013377
:104BB0002363E38E013B9BB2E386E38E9BB2002B23
:104BC000BBD023689A68920702D5226B1278ECE773
:104BD000FEF700F9A0EB0800B04202D3731CECD042
:104BE000D2E7002EE9D1CFE720236365ACE70220AE
:104BF000CBE70220CFE72DE9F7431E4690F850306F
:104C00000A9F012B04460D46914600F0E6800123E1
:104C100080F85030FEF7DEF894F851306268012BCE
:104C20008046D9B20AD0B2F5827F40F0D480A36822
:104C3000002B40F0D080042940F0CD80002D40D0E2
:104C4000B9F1000F3DD0002E3BD094F85130C4F89C
:104C50003890042B1CBF052384F851300023636572
:104C6000C4E910332368E687E6861968A6874906F3
:104C700058BF1968256358BF41F04001A68658BF48
:104C80001960E168B1F5006F52D10AB1012E07D168
:104C900035F8022BDA60E38E2563013B9BB2E38695
:104CA0000125E38E9BB273B9E38F9BB25BB9424699
:104CB00039462046FFF78CFE002800F08180202333
:104CC000636501202BE021688B689E070DD5E38E7C
:104CD0009BB253B14DB1236B33F8022BCA602363EF
:104CE000E38E013B9BB2E38600258A6812F0010245
:104CF0000CD0E38F9BB24BB1A36BC96823F8021BA6
:104D0000A363E38F013B9BB2E3871546FEF762F88E
:104D1000A0EB0800B842C4D3781CC2D00320012302
:104D200084F85130002384F8503003B0BDE8F0839C
:104D30000AB1012E08D12A781A73236B0133236339
:104D4000E38E013B9BB2E38601252DE02268936848
:104D500099070ED5E38E9BB25BB155B1236B1B78DF
:104D60001373236B01332363E38E013B9BB2E38612
:104D700000252268916811F001010DD0E38F9BB2EC
:104D800053B1A36BD2681A70A36B0133A363E38F93
:104D9000013B9BB2E3870D46FEF71CF8A0EB080031
:104DA000B8420AD37B1CB9D1E38E9BB2002BCDD184
:104DB000E38F9BB2002BC9D179E7002FF4D1ADE787
:104DC000A368002BABD123680190DA6801929B683D
:104DD0000193019BA3E70220A1E70220A5E72DE9AB
:104DE000F7431D464368B3F5827F0446894617465C
:104DF0000CD1836853B9042380F8513013460095D1
:104E00000A46FFF7F8FE03B0BDE8F08394F850308F
:104E1000012B00F08480012384F85030FDF7DAFF85
:104E200094F85130012B8046D8B276D1B9F1000FF9
:104E30005AD0002F58D0A268C4F83890042384F8C0
:104E40005130002623686665B2F5004FE787E68695
:104E500008BF1A68266308BF22F48042C4E91066BE
:104E6000A686A78708BF1A601A6856065EBF1A682A
:104E700042F040021A60E368F3B1E38F9BB2FBB1EA
:104E800023689A68D20739D5DA68A36B23F8022B16
:104E9000A363E38F013B9BB2E387EEE723689A6845
:104EA000D00718D5A26B1B7B1370A36B0133A363D0
:104EB000E38F013B9BB2E387E38F9BB2002BEDD1E5
:104EC000424629462046FFF759FD18BB606D003861
:104ED00018BF012008E0FDF77DFFA0EB0800A84205
:104EE00009D3691CE8D00320012384F85130002342
:104EF00084F8503087E7002DDED1F4E7FDF76AFF34
:104F0000A0EB0800A84202D36B1CB6D0EBE7002D43
:104F1000B3D1E8E720236365D8E70220E4E7022065
:104F200071E770470368DA6842F00102DA609A6854
:104F300002F00702062A1EBF1A6842F001021A6038
:104F400000207047704770477047704703681A69C0
:104F5000910710B504460ED5DA6892070BD56FF0AD
:104F600002021A61012202779B699B0777D0FFF743
:104F7000EAFF0023237723681A69500710D5DA68FF
:104F800051070DD56FF004021A61022222779B6946
:104F900013F4407F204668D0FFF7D5FF0023237726
:104FA00023681A6912070FD5DA6810070CD56FF05D
:104FB00008021A6104222277DB69990720465AD039
:104FC000FFF7C1FF0023237723681A69D20610D5A3
:104FD000DA68D0060DD56FF010021A610822227728
:104FE000DB6913F4407F20464BD0FFF7ACFF002372
:104FF000237723681A69D10708D5DA68D20705D55F
:105000006FF001021A612046FCF7B0FB23681A69B1
:10501000100608D5DA68110605D56FF080021A610E
:10502000204600F0B6F823681A69520608D5DA68F7
:10503000500605D56FF040021A612046FFF785FF44
:1050400023681A69910622D5DA6892061FD56FF097
:10505000200220461A61BDE8104000F099B8FFF721
:1050600071FF2046FFF770FF83E7FFF76BFF2046D5
:10507000FFF76AFF92E7FFF765FF2046FFF764FF3F
:10508000A0E7FFF75FFF2046FFF75EFFAFE710BD29
:10509000304A0368904212D0B0F1804F0FD0A2F591
:1050A0007C4290420BD002F58062904207D002F51C
:1050B0008062904203D002F57842904219D14A684A
:1050C00023F070031343234A904229D0B0F1804F5C
:1050D00026D0A2F57C42904222D002F58062904216
:1050E0001ED002F5806290421AD002F578429042BA
:1050F00016D0194A904213D002F5806290420FD028
:1051000002F5806290420BD0A2F59832904207D00F
:1051100002F58062904203D002F58062904203D192
:10512000CA6823F4407313434A6923F0800313438E
:1051300003608B68C3620B688362064B984203D09E
:1051400003F58063984201D10B6903630123436136
:10515000704700BF000001400040014010B5044608
:10516000A0B190F83D3003F0FF021BB980F83C205D
:10517000FFF7D7FE0223206884F83D30211DFFF79A
:1051800087FF012384F83D30002010BD0120FCE79B
:10519000704770472DE9F0414A6AD1E90743D1E9E8
:1051A0000158D1E903ECD1E905760968012943EA00
:1051B0000403124904680FD01A432A4342EA080341
:1051C00043EA0E0343EA0C033B43214033430B43C2
:1051D00003600020BDE8F08113434268114045EAB6
:1051E000080242EA0E0242EA0C023A4324F4F8446E
:1051F000324323430A4303604260EAE70080FFFF33
:10520000CB68F0B50C688E680D695F1E4B6904F1C0
:10521000FF3C4C688969013B1B05013C013E013D97
:105220000139012A4FEA04144FEA06264FEA0545E0
:105230004FEA016143EA07330CD043EA0C032343EE
:10524000826833432B4302F070420B431343836065
:105250000020F0BD876827F4700727F470473443B7
:105260003B4344EA0C02C76883602A4307F0704757
:105270000A433A43C260EBE773B500230193154636
:10528000D1E900321343CA6843EA42238A68013AEB
:1052900043EA42130193019B03610446FDF79AFD23
:1052A0000646A36913F0200301D1184603E06B1CE6
:1052B000F7D015B9032002B070BDFDF78BFD801B40
:1052C000A842EED9F6E7436943EA41014161002073
:1052D00070470000EFF3058313B16FF005007047CE
:1052E000EFF31082074B12B9EFF3118212B11A6873
:1052F000022AF2D0186810B901221A6070474FF0E4
:10530000FF3070477018002008B5EFF3058313B124
:105310006FF0050008BDEFF310820A4B12B9EFF3EE
:10532000118212B11A68022AF2D01A68012A05D134
:1053300002221A6001F0A8FB0020EBE74FF0FF30DB
:10534000E8E700BF70180020F0B587B014460022CF
:105350000B460592EFF3058222BBEFF3108212B9E0
:10536000EFF311821AB1224A1268022A1AD0C8B188
:10537000002C2FD0A569002D08BF18256A1E372ADA
:10538000AC462BD86268D20728D466696EB1B208E1
:10539000D4E9027E216857B1BEF15F0F02D92469BA
:1053A00004B1EEB9059807B0F0BD8022F0E7BEF178
:1053B000000FF7D12469002CF4D10C4605A9CDE9E2
:1053C00000C192B2214601F032FB01281CBF00232C
:1053D0000593E7E74FF0180C8022EFE70020E2E7A3
:1053E000CDE90147009501F0EAFA0590DAE700BF40
:1053F0007018002073B50E461546EFF305831BB1F8
:105400000024204602B070BDEFF3108313B9EFF310
:1054100011831BB1214B1B68022BF1D00028EFD068
:10542000B042EDD3EDB1D5E90232C3B14F2AE7D98D
:10543000012829D1032200920022114600F02BFD01
:1054400004460028DCD0CEB100231A46194600F0ED
:10545000D7FD012812D0204601F012F9D0E7002A2A
:10546000CED1012804D10322002100F062FDE7E73C
:10547000314600F0A7FD04460028C1D05DB9294699
:10548000204601F0D7F8BCE71A46314600F078FD17
:1054900004460028B4D02D68F1E700BF7018002042
:1054A00013B50C4618B96FF0030002B010BDEFF34E
:1054B000058363B1002CF6D101AA2146019401F0C5
:1054C00069F8012813D1019BA3B90020EDE7EFF3A0
:1054D000108313B9EFF311831BB10D4B1B68022B23
:1054E000E8D0214600F093FF0128EED06CB96FF0B0
:1054F0000200DAE74FF0E0234FF08052C3F8042DAA
:10550000BFF34F8FBFF36F8FDFE76FF00100CCE782
:105510007018002013B570B3EFF305834BB100246E
:1055200001A9019400F080FE012814D06FF0020060
:1055300014E0EFF3108313B9EFF311831BB10F4B9A
:105540001B68022BEBD000231A46194600F058FDC9
:10555000012802D0EAE7019B13B9002002B010BD78
:105560004FF0E0234FF08052C3F8042DBFF34F8F6C
:10557000BFF36F8FF1E76FF00300EFE770180020C3
:1055800073B51446EFF305831BB10025284602B01E
:1055900070BDEFF3108313B9EFF311831BB11A4BF6
:1055A0001B68022BF1D00028EFD00029EDD0ECB120
:1055B000D4E9023293B14F2AE7D92269002AE4D014
:1055C000666901FB00F5AE42DFD30025009500F0CF
:1055D00062FC05460028D8D024680FE0002AD4D108
:1055E0002369002BD1D16369002BCED1002200F0BA
:1055F000A0FC05460028C8D0002CEDD12146284645
:1056000001F018F8C2E700BF7018002013B51C465F
:10561000EFF3058323B1D8B96FF0030002B010BDDA
:10562000EFF3108313B9EFF311831BB1174B1B6812
:10563000022BF0D00028EFD00029EDD00023224625
:1056400000F0DEFC012810D0E4B96FF00200E5E7BD
:105650000029E1D0002CDFD1234601AA019400F0FB
:1056600082FD0128F1D1019B0BB90020D6E74FF054
:10567000E0234FF08052C3F8042DBFF34F8FBFF3E8
:105680006F8FF2E76FF00100C8E700BF70180020CD
:1056900013B51C46EFF3058323B1D0B96FF00300B7
:1056A00002B010BDEFF3108313B9EFF311831BB1F8
:1056B000164B1B68022BF0D00028EFD00029EDD04C
:1056C000224600F005FE01280FD0DCB96FF0020081
:1056D000E6E70029E2D0002CE0D101AA019400F015
:1056E00059FF0128F2D1019B0BB90020D8E74FF0F8
:1056F000E0234FF08052C3F8042DBFF34F8FBFF368
:105700006F8FF2E76FF00100CAE700BF701800204A
:10571000034B0360034B0B6080231360704700BF93
:105720001018002010160020034B0360034B0B6081
:105730004FF4807313607047741C002074180020AD
:1057400010B50F4B1A461B688342FBD354681119DE
:10575000884201BF41681046091951604468011927
:105760008B4207D1074909688B421FBF59681B68E4
:10577000091941609042036018BF106010BD00BF5E
:10578000E41C0120D41C00202DE9F041044601F066
:10579000C1F94048404D03680BBB40494E071FBF4D
:1057A000CB1D23F0070301F58032D21A14BF19462E
:1057B0004FF480320A443A4E083A22F0070200239E
:1057C00073603160C2E90033531AC1E900230260FB
:1057D000344A1360344A13604FF000432B602F6843
:1057E000274251D1002C42D004F1080361071CBFAD
:1057F00023F007030833002B46D02B4C26689E422B
:1058000042D3274A15686968994204D2D5F800C086
:10581000BCF1000F15D10068A84235D0C91A28681C
:10582000D2F800801060102912D9E81842070BD076
:105830004FF0500383F31188BFF36F8FBFF34F8F87
:10584000FEE72A466546DEE741606B60FFF778FFBA
:1058500014496B680868F61A1F4386424FF000032C
:10586000266038BF0E6008F108046F602B6001F0FD
:10587000F5F963070AD04FF0500383F31188BFF3A3
:105880006F8FBFF34F8FFEE70024F0E72046BDE89F
:10589000F08100BFD41C0020D81C0120D81C00209F
:1058A000E41C0120E01C0120DC1C012010B5044692
:1058B00070B3184A50F8043C1268134208D14FF0F4
:1058C000500383F31188BFF36F8FBFF34F8FFEE751
:1058D00050F8081C41B14FF0500383F31188BFF317
:1058E0006F8FBFF34F8FFEE723EA020340F8043CBB
:1058F00001F010F9084A54F8043C1168A4F10800BA
:105900000B441360FFF71CFFBDE8104001F0A6B97F
:1059100010BD00BFD81C0120DC1C012000F10803D1
:105920004FF0FF32C0E902234360036100230360AC
:10593000704700230361704743684B609A688A6030
:105940009A68516099600368086101330360704789
:1059500030B50C68631C0AD103695A684A609160CB
:105960008B605960036808610133036030BD00F14A
:105970000802134652681568A542FAD9EDE7D0E946
:10598000011203698A6051605968814208BF5A60F8
:10599000002202611A68013A1A6018687047000014
:1059A00008480068006880F308884FF0000080F322
:1059B000148862B661B6BFF34F8FBFF36F8F00DFFD
:1059C00000BF000008ED00E0DFF80C00016841F4C2
:1059D000700101607047000088ED00E082B0002394
:1059E00001930D4B1B68013308D04FF0500383F334
:1059F0001188BFF36F8FBFF34F8FFEE74FF0500357
:105A000083F31188BFF36F8FBFF34F8F019B002B80
:105A1000FCD002B0704700BF800000204FF08073C0
:105A200040F8043C074B40F80C3C21F001016FF0BA
:105A3000020340F8081C40F8202C40F8243C44386D
:105A4000704700BFDD5900080000000000000000A2
:105A5000074B19680868B0E8F04F80F30988BFF376
:105A60006F8F4FF0000080F311887047AFF3008014
:105A7000341D01204FF0500383F31188BFF36F8F63
:105A8000BFF34F8F0A4A13680133012B13600ED105
:105A90004FF0E023D3F8043DDBB243B14FF05003A5
:105AA00083F31188BFF36F8FBFF34F8FFEE770470B
:105AB00080000020084A136843B94FF0500383F375
:105AC0001188BFF36F8FBFF34F8FFEE7013B136069
:105AD0000BB983F31188704780000020000000009C
