:020000040800F2
:100000000000032089050008811C0008831C0008EB
:10001000851C0008871C0008891C000800000000DF
:1000200000000000000000000000000081690008DE
:100030008B1C000800000000116A0008756A0008A7
:10004000D9050008D9050008D9050008D905000818
:10005000D9050008D9050008D9050008D905000808
:10006000D9050008D9050008D9050008D9050008F8
:10007000D9050008D9050008D9050008D9050008E8
:10008000D9050008D9050008D9050008D9050008D8
:10009000D9050008D9050008D9050008D9050008C8
:1000A000D9050008D9050008D9050008D9050008B8
:1000B000D9050008D9050008D9050008D9050008A8
:1000C000D9050008D9050008D9050008D905000898
:1000D000D9050008D9050008D9050008D905000888
:1000E000D9050008D9050008D9050008D905000878
:1000F000D9050008D9050008D9050008D905000868
:10010000D9050008D9050008D9050008D905000857
:10011000D9050008D90500088D1C0008D90500087C
:10012000D9050008D9050008D9050008D905000837
:10013000D9050008D9050008D9050008D905000827
:10014000D9050008D9050008D9050008D905000817
:10015000D9050008D9050008D9050008D905000807
:10016000D9050008D9050008D9050008D9050008F7
:10017000D9050008D9050008D905000800000000CD
:10018000D9050008D9050008D9050008D9050008D7
:10019000D9050008D9050008D9050008D9050008C7
:0C01A000991C0008D9050008A51C0008E7
:1001B00010B5054C237833B9044B13B10448AFF3A1
:1001C00000800123237010BD6801002000000000A2
:1001D000DCC4010808B5034B1BB103490348AFF366
:1001E000008008BD000000006C010020DCC4010894
:1001F00001F0FF01102A2BDB10F0070F08D010F8D8
:10020000013B013A8B422DD010F0070F42B3F6D1DB
:10021000F0B441EA012141EA014122F007047FF0F4
:1002200000070023F0E80256083C85EA010586EA4B
:10023000010685FA47F5A3FA87F586FA47F6A5FA87
:1002400087F68EB9EED1F0BC01F0FF0102F0070293
:1002500032B110F8013B013A83EA010313B1F8D13E
:100260000020704701387047002D06BF354603381F
:10027000073815F0010F07D1013015F4807F02BF58
:10028000013015F4C03F0130F0BC0138704700BFA9
:1002900053B94AB9002908BF00281CBF4FF0FF31ED
:1002A0004FF0FF3000F06EB9ADF1080C6DE904CEEF
:1002B00000F006F8DDF804E0DDE9022304B0704741
:1002C0002DE9F047089D04468C46002B40F08380C2
:1002D0008A42174647D9B2FA82F242B1C2F12000EF
:1002E00024FA00F09140974040EA010C94404FEA14
:1002F0001748230CBCFBF8F61FFA87FE08FB16C153
:1003000043EA014306FB0EF1994209D9FB1806F1B5
:10031000FF3080F01981994240F21681023E3B4441
:100320005B1AA4B2B3FBF8F008FB103344EA0344B1
:1003300000FB0EFEA64509D93C1900F1FF3380F001
:100340000581A64540F2028102383C4440EA06405D
:10035000A4EB0E0400261DB1D4400023C5E90043E0
:100360003146BDE8F08702B9FFDEB2FA82F2002A18
:1003700050D1CB1B4FEA174E1FFA87F80126B3FB6B
:10038000FEFC210C0EFB1C3341EA034108FB0CF37D
:100390008B4207D979180CF1FF3002D28B4200F260
:1003A000E9808446C91AA3B2B1FBFEF00EFB10111E
:1003B00043EA014408FB00F8A04507D93C1900F1C5
:1003C000FF3302D2A04500F2D9801846A4EB0804FE
:1003D00040EA0C40BFE78B4209D9002D00F0B18004
:1003E0000026C5E9000130463146BDE8F087B3FA82
:1003F00083F6002E4AD18B4202D3824200F2B880AB
:10040000841A61EB030101208C46002DA8D0C5E9B8
:10041000004CA5E7C2F1200320FA03F6974001FA49
:1004200002F04FEA174ED9403043030CB1FBFEF601
:100430001FFA87F80EFB161143EA014306FB08F189
:10044000994204FA02F409D9FB1806F1FF3C80F046
:100450008D80994240F28A80023E3B445B1A81B211
:10046000B3FBFEF00EFB103341EA034100FB08F33F
:100470008B4207D9791800F1FF3C73D28B4271D9B6
:1004800002383944CB1A40EA064678E7C6F1200C18
:1004900003FA06F422FA0CF31C4320FA0CF701FAD3
:1004A00006F34FEA144E21FA0CF11F433B0CB1FB4B
:1004B000FEF91FFA84F80EFB191143EA014109FB0A
:1004C00008FA8A4502FA06F200FA06F308D961181A
:1004D00009F1FF3048D28A4546D9A9F102092144E1
:1004E000A1EB0A01BFB2B1FBFEF00EFB101147EA0F
:1004F000014700FB08F8B84507D9E71900F1FF31BB
:100500002ED2B8452CD90238274440EA0940A7EB3F
:100510000807A0FB02894F45C64649461AD317D0A3
:100520005DB1B3EB0E0267EB010707FA0CFCF2407A
:100530004CEA0202F740C5E9002700263146BDE833
:10054000F0872E4628460BE70646E9E61846FDE604
:100550004345E5D2B8EB020E69EB04010138DFE751
:100560000846D2E760468DE78146B9E7664675E7FB
:1005700030464AE7ACF1020C394413E702383C44F8
:1005800024E700BF704700BFDFF834D0002103E04C
:100590000C4B5B58435004310B480C4B42189A42A9
:1005A000F6D30B4A02E0002342F8043B094B9A427F
:1005B000F9D303F08BFB1AF021FF00F09BFE70478C
:1005C0000000032068F50E080000002068010020EC
:1005D00068010020C0270120FEE700F09BBC00F06E
:1005E0000FBD704710B5042104461AF08FFE204657
:1005F00010BD000038B50C4B0C4C18800C4B822001
:1006000019806368984740F6110398420AD1094D52
:1006100023682C60822098472B688220DB689847EB
:10062000002038BD0120FCE784010020500000209C
:1006300086010020880100204FF4A071F020FFF710
:10064000D9BF0000F7B52D4D2B6804461B698220E9
:10065000984780B22080002843D02B680DF1060215
:100660005B6901A982209847BDF80620A2F5B47203
:1006700092B20A2A37D90B23B2FBF3F2204B1B8824
:100680009A4201D95A1E92B2BDF8043040F6B831F0
:100690008B422AD8C3F571630E339BB20F21B3FB93
:1006A000F1F3184909888B4201D94B1E9BB2164EB3
:1006B000164D30682F68834281B28CBF591AC91A0F
:1006C000B8B2BA428CBF101A801A89B280B2014403
:1006D0000529C8BF33603368C8BF2A6063802B68B0
:1006E000A38003B0F0BD0022CEE7C3F56D630833ED
:1006F0009BB20E2BD2D80023D9E700BF880100207F
:1007000086010020840100208C010020900100203F
:1007100037B568460D461446FFF794FFBDF8000054
:1007200030B1BDF802302B60BDF8043023600120E9
:1007300003B030BD704770477047012380F87410D4
:1007400080F875307047002070470000034B41640B
:10075000003918BF01211970704700BFBB2201206A
:1007600000207047836B0BB10846184770474FF65F
:10077000FF707047406803689B691847704770476F
:10078000704700F0DFBC08B503680446D3F880303A
:100790009847236820469B6F984700F021F923680B
:1007A00020461B6F9847292000F0BAFF00F018F987
:1007B000236820461B6F9847F8E710B5044609F0F8
:1007C00013F823682046D3F8AC30BDE81040184732
:1007D00000F0AABC00F0AEBC00F0CEBC00F080BCC3
:1007E00000F0CCBC00F0D4BC00F084BC70B50D4669
:1007F000194635B9094B0A4A0A4840F2BB211AF09A
:10080000B3FDC0E90F52084B003A18BF01221A701D
:100810000368BDE87040D3F88C30184758C501080C
:1008200090C50108DEC50108BA22012008B5094BB0
:100830001B888B4203D8084B1B88934205D9074B72
:10084000074A08489E211AF08FFD074B1980074B75
:100850001A8008BDB0220120B222012023C601085F
:1008600086C60108DEC50108B6220120B822012093
:1008700008F052B910B57C2104461AF047FD204615
:1008800010BD90F877301BB1406803681B681847AB
:100890001846704710B590F8341090F874400C4B1F
:1008A0008C421A7809D03AB90A4A0B491488088848
:1008B00010800C8001221A7010BD002AFCD0054A5D
:1008C00005491488088810800C800022F3E700BFD7
:1008D000B4220120B0220120B2220120012108B55A
:1008E0000022084605F026FD064B4FF0FF31186048
:1008F00005F076FD00220421012005F0E1FD024B08
:10090000186008BD980100209401002008B5074B2D
:10091000186828B9064B074A074831211AF024FD08
:10092000BDE808404FF0FF3105F05ABD98010020A6
:10093000A4C70108B5C70108F2C7010808B5064BEE
:10094000186828B9054B064A06483A211AF00CFDEA
:10095000BDE8084005F07EBD98010020A4C701084D
:1009600051C80108F2C7010808B5074B186828B933
:10097000064B074A074847211AF0F6FCBDE8084035
:10098000002105F02DBD00BF98010020A4C701087B
:100990008EC80108F2C7010808B5064B186828B9C7
:1009A000054B064A064854211AF0DEFCBDE8084013
:1009B00005F050BD98010020A4C70108CEC8010869
:1009C000F2C70108044B186820B1002303491A46F6
:1009D00005F0BCBD704700BF94010020040000205A
:1009E00013B5084C206858B100231A4601A905F038
:1009F000EFFD20684FF0FF33002201A905F0E8FD6C
:100A000002B010BD9401002003685B6C1847002001
:100A1000704703689B6A184740F26F3070470000C8
:100A200010B5074C074B2360204603F055FA064BE0
:100A30002361064B6361064B4FF080629A6010BDE4
:100A4000B826012000B00240710A0008550A0008CB
:100A500000E100E008B5034A034B044836211AF0D0
:100A600083FC00BF12C901081EF2010845C9010834
:100A7000024B1B68586803685B691847BC22012059
:100A8000084B10B503600446074803F0EFFA074B24
:100A90004FF08062C3F88820BFF34F8FBFF36F8F92
:100AA000204610BDACC90108B826012000E100E0D5
:100AB00010B50446FFF7E4FF20464FF45A611AF0E0
:100AC00025FC204610BD0000044B1B6893F87620DF
:100AD0000AB1D86C00B99868704700BFBC220120E9
:100AE0002DE9F7430D68202D0C4600F0A180402D24
:100AF00000F09E802A1F56425641B5F5807F00F0D7
:100B00009980A5F500735D425D41FFF7DDFF036845
:100B10009B6A98472368B3F5807F014600F09C806C
:100B200000F28A80202B00F09A80402B00F0978002
:100B3000042B00F0888010290CBF4FF0020C4FF0FE
:100B4000010C00224D4BB4F81480D3F800E0678B01
:100B5000DEF800905A60102929F440390CBF0220B9
:100B60000120A7EB080749EA02029860DF60CEF88F
:100B70000020DEF83420C3F82CC022F00702024324
:100B8000CEF83420DEF8402022F47F5222F03F02DB
:100B90003A43CEF84020228BA2EB08029A6206B9B3
:100BA0009DB3227FFF2A15BF4FF0020C4FF0000CBF
:100BB000C3E90CC2C3F830C00DB310294FEA026E6E
:100BC00050D1E1684FF01F0801EA0802C1F3C42CBC
:100BD000C2EB0222B2FBF8F242EA0E02CCEB0C2C82
:100BE000C1F34511BCFBF8FC42EA0C42C1EB012108
:100BF0004FF03F0CB1FBFCF142EA01225A63C3E91A
:100C0000067000211D4803F0F1FA1C48012103F091
:100C1000EDFAA38AE28A06B945B3CDE90032236929
:100C2000616816481A4603F0A1F903B0BDE8F083E5
:100C3000012666E7012568E7B3F5007F7FF47BAF07
:100C40004FF0090C05E010280CBF4FF0020C4FF0DC
:100C5000010C4FF4003275E74FF00A0CF9E74FF042
:100C6000000CF6E7E2684EEA0202C7E7009261680C
:100C70002269024803F05CF9D7E700BFB8260120DB
:100C8000F7B50D46FFF720FF03689B6A98471028C9
:100C9000297F68D1EA6802F01F03C3EB03231F20FA
:100CA000B3FBF0F4C2F3C42344EA0164C3EB0323AF
:100CB000C2F34512B3FBF0F344EA0344C2EB022251
:100CC0003F230221B2FBF3F244EA02242B682848B6
:100CD0006E8B0268082BAB8AA6EB03061368C6600E
:100CE0000CBF4FF400374FF4403723F440333B43FD
:100CF000C0E901711360536B23F007030B43536387
:100D0000136C23F47F5323F03F033343B7F5003FC5
:100D100013641CD10123C0E90C340923C0E9066126
:100D2000C362002103F062FA0121114803F05EFA68
:100D3000B7F5003FAA8AE98A0DD12B690C48CDE9A5
:100D400000211A46194603F011F903B0F0BD002343
:100D5000C1628362E8E70091134621462A6904488C
:100D600003F0E6F8F1E7EC6844EA01640121ADE73D
:100D7000B826012070B5044625460A4B0C300026E3
:100D800060602672667245F8203B6022294608F0B2
:100D900093FE04F55A63EE602435AB42FBD1204646
:100DA00070BD00BFACC90108704770477047012093
:100DB00070470C2070470C2303FB0100083070477C
:100DC0000C2303FB010008307047012070474FF4EB
:100DD000447070474FF4447303FB010008307047C0
:100DE0004FF4447303FB0100083070470120704743
:100DF0001020704700EB01100830704700EB011025
:100E00000830704710B50A480C464FF4807103F063
:100E10001BFB18B100232370012010BD04484FF4C0
:100E2000007103F011FB0028F7D001202070F4E7D7
:100E30000008024010B5042104461AF067FA204663
:100E400010BD084601F070B810B5034B03600446AE
:100E500007F088FB204610BD64CA010810B504469F
:100E6000FFF7F2FF204614211AF050FA204610BD79
:100E700010B5034B0360044607F074FB204610BD19
:100E800030CA010810B50446FFF7F2FF20464FF4C0
:100E900046711AF03BFA204610BD000010B5034B16
:100EA0000360044607F05EFB204610BDFCC9010844
:100EB00010B50446FFF7F2FF204618211AF026FA73
:100EC000204610BD10B5084B0360044600F5517074
:100ED000FFF7BAFF04F12C00FFF7CAFF04F114007A
:100EE000FFF7DCFF204610BD98CA010808B502488C
:100EF000FFF7E8FF08BD00BFA001002010B50446C1
:100F0000FFF7E0FF204640F2B4411AF0FFF9204617
:100F100010BD00002DE9F34100F038FF054600F058
:100F200039FF0024014623462846224600940EF04D
:100F3000A5F8274B274A284D1A60204602F096F85C
:100F400026480DF0E7FF2B78BFF35B8FDB0735D426
:100F500028461AF0DDF988B3214C224B236004F5B2
:100F6000577604F1140004F12C0804F55177606001
:100F7000C4F80880E760266107F0F6FA1A4B63614F
:100F8000404607F0F1FA194BE362384607F0ECFAF5
:100F9000174BC4F8443304F5567002F0C1FB2246E7
:100FA00004F55671304602F0ADF9304600F0BCFF52
:100FB00028461AF0B9F90F481AF0F4F90E4C2046F9
:100FC000FFF7DFFB0D4B636102B0BDE8F08100BFAE
:100FD00018230120741400209C0100200800002028
:100FE000A001002098CA0108FCC9010830CA010804
:100FF00064CA0108ED0E0008F81300200C00002060
:101000000148FFF7C0BB00BFF813002070B5244CA7
:10101000244E254B254D23603046FFF7ABFE284676
:1010200011F0D8F9224B2348DC6000224FF4807184
:10103000C3E91212204C21490360F020C3E91912C0
:1010400020804FF080711E4C59670121C3E90422B2
:10105000C3E90622C3E90822C3E90E22C3E910222C
:10106000C3E91422C3E916221A8583F82A20DA621A
:101070001A861A6683F86C201A67C3E9016583F83B
:10108000781020800F4C83F834104FF4A07020802B
:101090000D4C20800D4802700D4A1A6070BD00BFD3
:1010A000540600205806002048C501087814002086
:1010B000F8130020BC220120B02201200100000111
:1010C000B6220120B2220120B8220120B422012040
:1010D000D4C601080148FFF7D3BC00BF5806002062
:1010E000034B902283F85A2383F85823704700BF9C
:1010F00000E100E0094A0A49D3680A48C3F30A0339
:10110000013B9BB20B801169C1F30A0101390180D7
:101110001364536B43F0010353637047006801404D
:10112000F2140020F0140020014B986A704700BFB1
:1011300084680140024B0122996243F8602C704799
:101140008468014038B5044607F03BFD23685D6EB6
:101150000AF082FF01462046A8472368054AD3F8D3
:101160008850A2F5163100232046A847002384F8B2
:101170004A3038BD005802D007F0D4BC034B4FF0C2
:1011800080629A604FF080729A60704700E100E0E0
:10119000084B4FF08062C3F88820BFF34F8FBFF336
:1011A0006F8F4FF08072C3F88820BFF34F8FBFF36B
:1011B0006F8F704700E100E0134B144A1B6C1188DD
:1011C0008B4210B5124C13D1124B198803F020FF3B
:1011D000226892F86630013382F86630FFF7F2FB3E
:1011E000206808F001FBBDE810400020FFF7A2BA1C
:1011F00003F00EFF0020FFF79EFA20680368BDE8A9
:1012000010401B6A184700BF00680140F21400201C
:10121000BC220120F014002007B5064BADF80600F3
:101220001B68054801220DF1060104F0F0FB03B034
:101230005DF804FB14000020AC250120F0B5A1B03E
:10124000102200210AA81AF01BF91422002103A879
:101250001AF016F90021302214A81AF011F900240E
:10126000224B01941A6C42F080521A641B6C03F0FA
:1012700080530193019B1E4B02941A6842F4404232
:101280001A601B6803F4404302930122029B4FF44F
:101290008033CDE9082302254FF48003CDE90E53B6
:1012A00008274FF4A873042608A8CDE910731295F7
:1012B000139603F0CBFE0F23CDE903354FF4A05175
:1012C0004FF48053CDE9061303A80521059404F0DB
:1012D00093F8C023189314A84FF4003314971A9668
:1012E0001D9304F053F921B0F0BD00BF0038024057
:1012F0000070004080B59AB002F0F6FCFFF79EFF48
:10130000142200210DA800241AF0BAF8B34B01945E
:101310001A6BB348B34D42F020021A631A6B02F005
:1013200020020192019A02941A6B42F080021A6321
:101330001A6B02F080020292029A03941A6B42F036
:1013400004021A631A6B02F004020392039A0494D3
:101350001A6B42F001021A631A6B02F00102049246
:10136000049A05941A6B42F002021A631A6B02F097
:1013700002020592059A06941A6B42F040021A6323
:101380001A6B02F040020692069A07941A6B42F01A
:1013900008021A631B6B03F008030793224604211B
:1013A000079B03F057F822468F484FF4405103F053
:1013B00051F8012602274FF0040889480F940DA91F
:1013C000CDE90D86109702F055FF4FF44073864823
:1013D0000F970DA9CDE90D3402F04CFF0DA94FF484
:1013E00040538148CDE90D36CDE90F4702F042FF69
:1013F0007E487F4B036002F01DFD7E4A7E4B2C62CF
:10140000C5E9002328464FF48043C5E90434C5E903
:101410000244C5E9064403F0FFF91021284603F011
:101420003BFC2146284603F056FC7448744984620C
:101430004FF48273C0E900134FF400751823C0E91C
:1014400006530A236F4DC362C0E90244C0E9044455
:10145000C0E9084404F09EFA6B4B0D974FF0100C56
:10146000C5E900364023C5E904C34FF4C073C5E99C
:1014700006344FF40063C5E908344FF40053AB62FF
:101480004FF0030A07230DA92846CDE90E38109323
:101490004FF00809C5E90248CDE911A7139704F0F8
:1014A0009FF94FF6FF7209A92846CDE90A960894DC
:1014B00009960C9404F0B4F9304602F041FC4FF662
:1014C000FF7209A92846CDE90979CDE90B6404F03A
:1014D000A7F94FF6FF7209A92846CDE909A9CDE978
:1014E0000B8404F09DF94FF40C730893089B0C9344
:1014F0004FF6FF7209A92846CDE909890B9604F039
:101500008FF940F26A51284604F0A1F934222146AD
:101510000DEB020019F0B4FF3C4D3D4BAC86C5E924
:1015200000340923C5E905361D2340F20D1EC5E927
:10153000073A40F24313C5E909E3284640F247134E
:1015400040F21718C5E90B83C5E902442C6185F800
:10155000364003F065FCFF21F022CDE912144FF470
:10156000806905214FF4A073CDE90E24CDE91491D3
:10157000CDE916420DA922462846CDE91037254D62
:1015800018930D94ADF864408DF8664003F013FD98
:10159000214B2B601B6898472B68204DDB689847D0
:1015A0001F4BC5E90A47C5E90C442846C5E9003484
:1015B000C5E9027402F090FC3146284602F016FE9E
:1015C000FFF70BF804F026FE164A1748214604F0F0
:1015D0005BFE164B186004F037FEFEE70038024051
:1015E0000008024058250120000C0240042601207A
:1015F00000300240005C0040A0860100AC250120C4
:1016000000500140F8260120400100A00C260120D6
:1016100000680140F414002018000020B8260120C2
:1016200000B00240CCCA0108DF050008B426012042
:10163000704770477FB5094B8DF817201B680293E0
:101640000DF117020123009201930A460146044856
:1016500003F08AF907B05DF804FB00BF100000201A
:10166000582501207FB500238DF81730084B1B68E3
:1016700002930A4601230DF11701009101930146DF
:10168000044803F001FA9DF8170007B05DF804FB69
:1016900010000020582501201FB5084C2468009236
:1016A000CDE901340A4601230146054803F0ECF96F
:1016B000003818BF012004B010BD00BF100000208A
:1016C0005825012002F03CBB08B506480022042141
:1016D00002F0C0FEBDE8084002480122042102F0E9
:1016E000B9BE00BF0008024038B50B4D04460122C8
:1016F0000A484FF4005102F0ADFE002204212846B2
:1017000002F0A8FE2046FFF787FD28460122BDE82B
:101710003840042102F09EBE00080240000C024046
:1017200038B50B4D044600220A484FF4005102F030
:1017300091FE00220421284602F08CFE2046FFF78D
:101740006BFD28460122BDE83840042102F082BE2C
:1017500000080240000C0240F7B5144E144F054635
:101760000C4630460022042102F074FE00224FF4A1
:101770000051384602F06EFE2846FFF74DFD0D4B36
:101780000D481B68224601A904F0D4FA384601220C
:101790004FF40051019C02F05DFE3046012204210D
:1017A00002F058FE204603B0F0BD00BF0008024022
:1017B000000C024014000020AC25012002F0C0BA49
:1017C0000268034B9A4201D102F0A8BA704700BFE9
:1017D0000010004082B00E4B00220092596C41F480
:1017E00080415964596C01F4804100910099019243
:1017F000196C41F0805119641B6C03F08053019304
:10180000019B0F216FF0010002B002F0BFBA00BFD0
:10181000003802400268094B9A4282B00BD1002383
:101820000193074B1A6B42F480521A631B6B03F44B
:1018300080530193019B02B0704700BF003002400B
:101840000038024007B50F4B02689A4216D10022B9
:10185000A3F5F0430192196B41F4000119631B6B6E
:1018600003F40003019305215A20019B02F08EFA34
:101870005A2003B05DF804EB02F0BABA03B05DF889
:1018800004FB00BF00B002400268064B9A4207D139
:10189000054A136B23F4000313635A2002F0B6BA0F
:1018A000704700BF00B00240003802402DE9F0430D
:1018B000044689B01422002103A819F0E1FD226832
:1018C000244B9A4243D1244C244800250095236B95
:1018D00043F004032363236B03F004030093009B92
:1018E0000195236B43F001032363236B03F0010392
:1018F0000193019B4FF012094FF400734FF0010860
:101900000327042603A9CDE90339CDE90587079606
:1019100002F0B0FC4FF480731148079603A9CDE99B
:101920000339CDE9058702F0A5FC0295236C43F449
:1019300000032364236C03F400030293029B236AD5
:1019400043F400032362236A23F40003236209B0F3
:10195000BDE8F083005C004000380240000802400F
:1019600000000240F0B504468DB01422002107A803
:1019700019F086FD2268574B9A4240F0A98003F582
:101980005043002400945A6C534842F080625A64D9
:101990005A6C02F080620092009A01941A6B42F035
:1019A00020021A631A6B02F020020192019A02943B
:1019B0001A6B42F001021A631A6B02F001020292E2
:1019C000029A03941A6B42F002021A631A6B02F035
:1019D00002020392039A04941A6B42F040021A63C3
:1019E0001A6B02F040020492049A05941A6B42F0BA
:1019F00004021A631A6B02F004020592059A069417
:101A00001A6B42F008021A631B6B03F0080306937B
:101A100002250E26069B0B964FF4806307A9CDE99D
:101A20000735CDE9094502F025FC41F658032B485E
:101A30000B9607A9CDE907350927CDE9094502F03D
:101A400019FC032326480B9707A9CDE90735CDE9F3
:101A5000094502F00FFC4FF4706321480B9607A96B
:101A6000CDE90735CDE9094502F004FC4FF40C63DC
:101A70001C480B9607A9CDE90735CDE9094502F0C9
:101A8000F9FBC02318480B9607A9CDE90735CDE926
:101A9000094502F0EFFB082314480B9607A9CDE98E
:101AA0000735CDE9094502F0E5FB4FF4A0530D4899
:101AB0000B9707A9CDE90735CDE9094502F0DAFB17
:101AC00058202246052102F061F9582002F090F9D1
:101AD0000DB0F0BD0068014000140240000002405B
:101AE000000402400018024000080240000C0240BE
:101AF00010B5044688B01422002103A819F0C0FCD8
:101B00002268154B9A4224D103F5684300220192C2
:101B1000596C41F480115964596C01F480110191A0
:101B200001990292196B41F0200119631B6B059218
:101B300003F0200302934FF46071029B0223CDE96E
:101B4000031303200523CDE9060303A9034802F08C
:101B500091FB08B010BD00BF0050014000140240CE
:101B60002DE9F041214B1C6886B0002C3AD14FF092
:101B70000108C3F800801E4B00949A6B1D4842EA8E
:101B800008029A639B6B039403EA080300930227FD
:101B900003260C25009B01A94FF63F03CDE9013731
:101BA000CDE9046502F066FB1348059501A9CDE96E
:101BB0000187CDE9034602F05DFB48F233130F487D
:101BC000059501A9CDE90137CDE9034602F052FBA5
:101BD00060230B48059501A9CDE90137CDE90346FE
:101BE00002F048FB06B0BDE8F08100BFF814002009
:101BF0000038024000140240000802400018024071
:101C00000004024030B5014689B00022362002F0BF
:101C1000BDF8362002F0ECF80025154B02951A6C41
:101C2000144C42F010021A641B6C03F01003029370
:101C300001A903A8029B03F08BFC03F079FC0E4B77
:101C4000236040F2E733E36040000C4BB0FBF3F05D
:101C50000138606020462561A56004F01FFA20B9B4
:101C6000204604F0FFF809B030BD0120FBE700BFBB
:101C7000003802402C2701200010004040420F0095
:101C80007047FEE7FEE7FEE7FEE77047014804F015
:101C9000FDB800BF2C270120014803F02FB900BF79
:101CA0000C260120014802F017BA00BFB826012017
:101CB0000120704708B519F089FB162303604FF027
:101CC000FF3008BD08B519F081FB16230360FEE75D
:101CD00070B50E4614460025A54201DB204670BDB6
:101CE000AFF3008070550135F6E770B50E46144627
:101CF0000025A54201DB204670BD705DAFF300807A
:101D00000135F6E74FF0FF3070474FF400534B605A
:101D100000207047012070470020704708B50A4B2B
:101D20001968024609B909491960186869460244E8
:101D30008A4206D919F04AFB0C2303604FF0FF30AA
:101D400008BD1A60FCE700BFFC140020C02701207A
:101D5000704710B50421044619F0D8FA204610BD8A
:101D600008B503290FD8DFE801F0020A060A01F0DE
:101D7000C9F9006808BD01F0C5F98068FAE701F00B
:101D8000C1F94068F6E70020F4E70000004870471A
:101D900004CB01081120704713B5002451B103682A
:101DA00001948DF8034001AA9C680DF10303A0473C
:101DB00002B010BD0846FBE7408970478089704734
:101DC0008088704783798088184480B27047C079D2
:101DD00000F07F007047C079C0097047704710B5A8
:101DE0000821044619F092FA204610BD704770474A
:101DF00000F596730868496803C3704770477047D9
:101E00004160704770470000064BC0F8483100231E
:101E1000C0F84C3100F5A073C0F84401C0F83C3163
:101E2000704700BFCD200008012303727047704740
:101E3000704710B4C26841685410034601EB620059
:101E4000D20748BF0A599B685DF8044B48BFD35876
:101E5000184743682BB183682BB9C06800F00100B4
:101E60007047184670470120704710B50C21044692
:101E700019F04CFA204610BD10B51021044619F097
:101E800045FA204610BD10B54FF4AC71044619F068
:101E90003DFA204610BD08B50AF0DEF8BDE808405E
:101EA0000AF0B8BC10B50446D0F83C0158B103683C
:101EB000DB68984738B1D4F83C0103689B689847C1
:101EC0000023C4F83C3110BDF8B5044617460E4651
:101ED0000AF0F8F8104B0025C4E954760F4E1C6048
:101EE000C4E952550E4B306823600E4BC4E950359F
:101EF000036801219B68C4E94E559847284601F0C4
:101F0000B5F8336893F876200AB1D86C00B99868B0
:101F100012F0ABF82046F8BD08230120BC220120B6
:101F2000A8D1010890D10108064BC0F84831002320
:101F3000C0F84C3100F5A073C0F84401C0F83C3142
:101F4000704700BFCD200008064BC0F84831002381
:101F5000C0F84C3100F5A073C0F84401C0F83C3122
:101F6000704700BF31220008064BC0F848310023FB
:101F7000C0F84C3100F5A073C0F84401C0F83C3102
:101F8000704700BF9523000803685B6A184700008C
:101F90002DE9F84F07469068DDF828A099460368B8
:101FA0001B6A884614469847DB2805D8414B424AAD
:101FB000A321424819F0D8F9606803681B6A984762
:101FC0000F2803D83E4B3C4AA421F2E7E06803689F
:101FD0001B6A98470B2803D83A4B374AA521E8E7F4
:101FE0000AF03AF80AF054F8D9F8000010B1036882
:101FF000DB689847D9F8000010B103681B68984760
:10200000386810B103685B699847D8F8000010B1D0
:1020100003685B689847386810B103681B68984785
:10202000D8F8000010B103689B689847E068002169
:10203000FFF7AAFF4FF0000B234B03600546C0F8E3
:1020400004B080F808B0A068036859465B6A9847F6
:10205000064601F091FB6068036859465B6A984741
:102060003146044601F06EFBC9F80050C8F8004044
:102070003E60E4B1231DCAF800303368C4F808A0FC
:102080003046DB68F4639847236820461B6898470E
:10209000294630460BF0D0FB2B6828461B69984731
:1020A0002B6828465B6998472046BDE8F88F234691
:1020B000E1E700BF68CC0108F6CC0108F6CD0108C5
:1020C0003DCE0108E0CE0108F4D1010807B5D0F8F3
:1020D00054310093D0F85021044B00F59C71044812
:1020E000FFF756FF03B05DF804FB00BFFC220120A0
:1020F000F82201202DE9F84F07469068DDF828A066
:10210000994603681B6A884614469847B0F5447F91
:1021100005D2414B414AA321414819F025F9606895
:1021200003681B6A98470F2803D83E4B3B4AA421FB
:10213000F2E7E06803681B6A98470B2803D83A4B1C
:10214000364AA521E8E709F087FF09F0A1FFD9F891
:10215000000010B10368DB689847D9F8000010B19F
:1021600003681B689847386810B103685B69984733
:10217000D8F8000010B103685B689847386810B160
:1021800003681B689847D8F8000010B103689B6883
:102190009847E0680021FFF7F7FE4FF0000B234B54
:1021A00003600546C0F804B080F808B0A068036872
:1021B00059465B6A9847064601F03EF96068036835
:1021C00059465B6A98473146044601F0E5F8C9F87C
:1021D0000050C8F800403E60E4B1231DCAF800304A
:1021E0003368C4F808A03046DB68F4639847236876
:1021F00020461B689847294630460BF01DFB2B688C
:1022000028461B6998472B6828465B6998472046F3
:10221000BDE8F88F2346E1E768CC010883CF0108C9
:10222000F6CD01083DCE0108E0CE0108F4D1010849
:1022300007B5D0F854310093D0F85021044B00F585
:102240009C710448FFF756FF03B05DF804FB00BF24
:10225000FC220120F82201202DE9F84F0746906862
:10226000DDF828A0994603681B6A884614469847FB
:10227000B0F5887F05D2414B414AA321414819F06E
:1022800073F8606803681B6A98470F2803D83E4BB1
:102290003B4AA421F2E7E06803681B6A98470B28D1
:1022A00003D83A4B364AA521E8E709F0D5FE09F0F4
:1022B000EFFED9F8000010B10368DB689847D9F841
:1022C000000010B103681B689847386810B10368B4
:1022D0005B699847D8F8000010B103685B689847BD
:1022E000386810B103681B689847D8F8000010B12F
:1022F00003689B689847E0680021FFF745FE4FF0B0
:10230000000B234B03600546C0F804B080F808B00A
:10231000A068036859465B6A9847064601F024F8AE
:102320006068036859465B6A98473146044601F085
:1023300001F8C9F80050C8F800403E60E4B1231D20
:10234000CAF800303368C4F808A03046DB68F4638C
:102350009847236820461B689847294630460BF06B
:102360006BFA2B6828461B6998472B6828465B69DF
:1023700098472046BDE8F88F2346E1E768CC01087E
:1023800081D00108F6CD01083DCE0108E0CE01085C
:10239000F4D1010807B5D0F854310093D0F850219A
:1023A000044B00F59C710448FFF756FF03B05DF83D
:1023B00004FB00BFFC220120F822012090F8252018
:1023C00012B103685B69184770470020704781802D
:1023D0007047C180704701817047418170477047E5
:1023E000704770477047704710B4C4880368121B69
:1023F00084885B6D091B12B25DF8044B09B2184763
:102400004FF6FF7383814FF0FF3303621368C3619C
:10241000106070477047704770477047704790F87A
:1024200025201AB190F8242002B118607047704737
:102430007047704730B4C26844685510034604EBD7
:102440006200D20748BF62599B6830BC48BFD3586E
:10245000184743682BB183682BB9C06800F00100AE
:102460007047184670470120704710B51021044688
:1024700018F04CFF204610BD10B54FF4887104468B
:1024800018F044FF204610BD08B500F198039942AA
:1024900005D109F0E1FDBDE80840FFF755BDCC309E
:1024A000814205D109F0D8FDBDE80840FFF73CBDE9
:1024B00008BD0000074A02600022C0E90122C0E90D
:1024C0000322C0E90522C0E907224FF4807282840A
:1024D000704700BF04E9010870B5036804461B6B30
:1024E000154698472368294620465B6BBDE8704037
:1024F0001847000010B526220446002118F0C0FF3E
:102500002046FFF7D7FF0023A36284F82C30012375
:1025100084F82430044B23604FF6FF73E385238651
:1025200084F83230204610BD04E501082DE9F0435F
:10253000044685B0254600260AF0D2FF494BE663E3
:1025400045F8403B31462622284618F099FF284698
:10255000FFF7B0FF04F16C074FF0FF08424B236414
:1025600026224FF6FF73314684F86680A666384609
:10257000ADF80C3018F084FF3846FFF79BFF3B4B5B
:10258000E366BDF80C30A4F8923003A904F1980971
:1025900084F89480384607F0ECFF04F1CC084846F4
:1025A000FFF7A8FF4046FFF7A5FF314BC4E94034D1
:1025B000304B3246C4E9423631462846FFF78CFF9D
:1025C0002846F021FFF707FF28464FF4A071FFF7D8
:1025D00004FF4FF07F433246A36631463846FFF78B
:1025E0007BFF0E2303A93846ADF80C3007F0C1FF7E
:1025F0004846A0226121FFF76FFF04F5807605238E
:1026000003AA02A94846ADF80830ADF80C3007F02F
:10261000CBFD4046C4F8C060D5226121FFF75CFFC6
:10262000062303AA02A94046ADF80830ADF80C30E5
:1026300007F0BAFD201D2946C4F8F460019006F0A9
:1026400017F80198394606F013F80198494606F044
:102650000FF80198414606F00BF8204605B0BDE89A
:10266000F08300BF30D2010838E40108DCE501083E
:1026700018D2010889240008006A7047406A704730
:1026800070478B8880690A68DB0A50F82300104481
:10269000704710B5C2B1137BB3B1547BD27A240218
:1026A00004F4E0641443C26998B202EB8402138814
:1026B0008B4202D192F9020010BD05D8013880B2D8
:1026C00004320028F3D1F7E70020F5E710B5282100
:1026D000044618F01BFE204610BD000030B589B03E
:1026E0000446BDF850500695BDF84C5005959DF830
:1026F000405004959DF83C5003959DF83850029544
:102700009DF8345001959DF8305000950AF0F4FC86
:10271000064B2360119BA361129BE361159B23620F
:10272000169B6362204609B030BD00BF64D2010829
:1027300008B590F828300BB1FFF740FE08BD30B562
:102740000368018185B06D460146D3F884300446A4
:102750002846984795E807003C3484E8070005B010
:1027600030BD30B50368418185B06D460146D3F870
:10277000843004462846984795E807003C3484E8AE
:10278000070005B030BD0022028042808280C280F6
:10279000704780F83610704770B5036804461B6BAD
:1027A000154698472368294620465B6EBDE8704071
:1027B000184700207047806C70477047704770471B
:1027C0007047704770477047704730B4C2684468BC
:1027D0005510034604EB6200D20748BF62599B685C
:1027E00030BC48BFD358184743682BB183682BB916
:1027F000C06800F00100704718467047012070471C
:1028000081857047808D704710B54C21044618F0C3
:102810007DFD204610BD10B54421044618F076FD1C
:10282000204610BD10B51021044618F06FFD20465B
:1028300010BD10B54FF43C71044618F067FD2046FA
:1028400010BD00000368828D70B55E6B114B1B6874
:1028500004468DB22BB9104B104AAE21104818F027
:1028600083FD10490988914203D80F4B0B4AAF21D1
:10287000F4E713F812200D4B1B6853F8220003688D
:10288000DB6A9847281A01B233462046BDE87040FB
:10289000184700BF0C230120B4D20108F6D201086A
:1028A00024D30108102301206BD301081423012035
:1028B00000F5DC72914210B504D103681B6BBDE8D2
:1028C0001040184700F5F672914202D10368DB6AA6
:1028D000F5E700F50872914202D103685B6BEEE701
:1028E00000F51573994205D109F0B6FBBDE810401B
:1028F000FFF73ABB10BD90F829302DE9F0410446AE
:10290000002B40D0438D858D01339BB2AB42438574
:1029100039D35B1B828E866B9DB2038ED21A12B2A4
:10292000C38D00212846B047638EE28EE76BD21A32
:102930000646E38D12B200212846B847628E218EEA
:102940000244314412B209B22046FFF74DFDA38D77
:10295000E18D628D0B449A4215D3002384F829300F
:10296000638509F079FB214609F07CFB206C50B1AE
:102970000368DB68984730B1206C036821469B6888
:10298000BDE8F0411847BDE8F08100224FF0FF316B
:10299000C0E900218260704770B504461D46BDF94C
:1029A0001060FFF799FD2368294620469B6B9847E6
:1029B000236831462046DB6BBDE8704018470000B5
:1029C00038B5262204460D46002118F059FD204650
:1029D000FFF770FD064B23602B88E384FF2320461E
:1029E00084F82830294607F0C4FD204638BD00BFD2
:1029F000DCE501082DE9F04F2DED088B04468BB086
:102A0000274600250AF06CFDC54BE56347F8403BBF
:102A100026222946384618F033FD3846FFF74AFD8E
:102A2000C04B2364FF2384F8663004F16C0318461E
:102A3000A5660BEE903AFFF73DFDBB4BE36604F154
:102A400098034FF6FF7A08A91846C4F8945008EE88
:102A5000103AADF820A0FFF7B3FF04F1C40308A9B2
:102A6000184608EE903AADF820A0FFF7A9FF04F150
:102A7000F00308A9184609EE103AADF820A0FFF7B8
:102A80009FFFAA4BC4F8F03004F59A7308A91846C2
:102A9000C4E94755C4E94955C4E94B5584F819516F
:102AA000A4F81A5109EE903AADF820A0FFF788FF7C
:102AB00004F5B07308A918460AEE103AADF820A044
:102AC000FFF77EFF04F5C67308A918460AEE903A90
:102AD000ADF820A0FFF774FF04F5DC73184604F589
:102AE000F67B0BEE103A04F50879FFF703FD584624
:102AF000FFF700FD04F515784846FFF7FBFC04F5E9
:102B000022764046FFF7F6FC26222946304618F08A
:102B1000B7FC3046FFF7CEFC854BC4F8B0324FF41B
:102B20007F03C4F8BC32834BC4F888324FF0FF33C4
:102B3000C4E9B235804BA4F8B4A2C4E9B8347F4BE1
:102B4000C4F8B8524FF4A07AC4E9BA35CDF800A061
:102B5000F0232A4629463846A4F8C052C4F8C45285
:102B6000C4F8D052FFF718FF4FF07F431BEE900AD6
:102B7000A366CDF800A0F0232A462946FFF70CFFF4
:102B80006F4A18EE100A2946FFF7A6FC18EE100A45
:102B900008A9ADF8205007F0ECFC2A4618EE900A80
:102BA0002946FFF799FC18EE900A08A9ADF82050C5
:102BB00007F0DFFCBB2219EE100A6721FFF78CFC3F
:102BC0000B2319EE100A08A9ADF8203007F0D1FC4C
:102BD0005C4A19EE900A0921FFF77EFC102319EEDA
:102BE000900A08A9ADF8203007F0C3FC6FF0480246
:102BF0001AEE100A3C21FFF76FFC4FF00C0A1AEE98
:102C0000100A08A9ADF820A007F0B3FC4E4A1AEE4E
:102C1000900A6721FFF760FC1AEE900A08A9ADF848
:102C200020A007F0A6FC1BEE100A4FF48272B4211C
:102C3000FFF752FC022304F5387A1BEE100AADF8B8
:102C40001C3008AA4FF0030307A9ADF8203007F0A5
:102C5000ABFAC4F8E0A14FF4827229465846FFF758
:102C60003BFC0223ADF81C3008AA4FF0030307A970
:102C70005846ADF8203007F097FAC4F814A2122293
:102C800009214846FFF728FC042308AA07A948465B
:102C9000ADF81C30ADF8203007F086FAC4F848A231
:102CA0000E22BB214046FFF717FC062308AA07A9FE
:102CB0004046ADF81C30ADF8203007F075FA2E23F1
:102CC0000E22C4F87CA20093382181233046FFF7FE
:102CD00063FE4FF07F43C4F8B832D4F88832A4F8CA
:102CE000BC520DF1080A5046D3F88430314698475B
:102CF0009AE8070004F5317383E80700134B1B685B
:102D000004F5357A2BB9124B124AAE21124818F04D
:102D10002BFB124B1B882BBB114B0E4AAF21F5E747
:102D2000D0D4010838E401088CDB010844D4010840
:102D300060CC0108B4D30108B8D40108B128000858
:102D4000C0FEFFFF46FEFFFFF8FEFFFF0C23012041
:102D5000B4D20108F6D2010824D3010810230120BF
:102D60006BD301082C4B2946186800F0BBF92B4A9D
:102D70000346052150460CF0BFF8294B0893251D4A
:102D8000012308A93046C4F8D0A2ADF8243007F0DA
:102D9000ADF93946284605F06BFC1BEE901A284623
:102DA00005F066FC18EE101A284605F061FC18EED6
:102DB000901A284605F05CFC19EE101A284605F01A
:102DC00057FC19EE901A284605F052FC1AEE101A1C
:102DD000284605F04DFC1AEE901A284605F048FCEE
:102DE0001BEE101A284605F043FC5946284605F00C
:102DF0003FFC4946284605F03BFC4146284605F085
:102E000037FC2846314605F033FC20460BB0BDECBC
:102E1000088BBDE8F08F00BF18230120A9D301085B
:102E200060CC01087047000030B5154D2C78BFF319
:102E30005B8F14F001048DB01ED1284618F068FA9B
:102E4000D0B13F2307930F4B06930F4B0F49104808
:102E500008940122CDE904430423CDE90132CDE9F0
:102E600009440A2303940094FFF738FC284618F01D
:102E70005BFA084818F096FA05480DB030BD00BF5F
:102E800000150020FC0D0208080E0208400D020883
:102E900004150020252E00087047000030B5154DA0
:102EA0002C78BFF35B8F14F001048DB01ED128463F
:102EB00018F02EFAD0B13F2307930F4B06930F4B18
:102EC0000F49104808940122CDE904430423CDE9B9
:102ED0000132CDE90944142303940094FFF7FEFB6B
:102EE000284618F021FA084818F05CFA05480DB099
:102EF00030BD00BF2C150020000E02080C0E020889
:102F0000500D020830150020992E0008704700006F
:102F100030B5154D2C78BFF35B8F14F001048DB0E4
:102F20001FD1284618F0F4F9D8B13F2307930F4B6F
:102F300006930F4B0F4910480894CDE9044304222F
:102F40000123CDE9012300930B222823CDE9094475
:102F50000394FFF7C3FB284618F0E6F9074818F07A
:102F600021FA05480DB030BD58150020040E0208A6
:102F7000100E0208600D02085C1500200D2F0008DD
:102F800000207047002070470EB403B503AB00214A
:102F900053F8042B019309F0E1FE02B05DF804EB55
:102FA00003B070470CB407B504AB53F8042B01937E
:102FB00009F0D4FE03B05DF804EB02B070470000E6
:102FC000436C10B5044673B3038F2BB9184B194AE1
:102FD000C021194818F0C8F9C38E00EB43035B8C7D
:102FE0000BB30BF0C1F9238F012B03D8134B144AF9
:102FF000C521EEE7E28E531C9BB2092B194688BF10
:10300000A3F10A0104EB410140F63F10498C8142D3
:1030100009D10A2B04EB420228BF002304EB43032F
:10302000508C588451842046BDE810400BF080B885
:1030300008D5010811D50108BCD5010806D601083C
:1030400014D601080BF02CB810B586B002AC84E899
:1030500006001A460AAB05930193099B009321468B
:10306000089B08F01BFB06B010BD000038B518BB6C
:10307000124B13481B681349B3B11A689C681A4471
:1030800002605A681A440A601C440F4B00221A80DE
:1030900000F038F8054600F033F80C4B1C600C4B80
:1030A0001D600C4B188007E00B4B03600B4B0B6053
:1030B0000B4B1C68002CE8D138BD00BF84150020E4
:1030C000881500208C150020901500200C2301206D
:1030D00014230120102301201C0E0208140E0208E4
:1030E000280E0208044B1B6853F82100034B1B6891
:1030F00003EB4000704700BF8C15002088150020AE
:1031000002207047004870479415002010B5FFF763
:10311000C5FE044C2060FFF7FBFE6060FFF784FEF5
:10312000A06010BD9415002070477047704730B400
:10313000C26844685510034604EB6200D20748BFDA
:1031400062599B6830BC48BFD358184743682BB1BD
:1031500083682BB9C06800F00100704718467047BB
:103160000120704710B51021044618F0CFF8204612
:1031700010BD10B5DC21044618F0C8F8204610BD7B
:103180009830884208B505D108F066FFBDE80840D0
:10319000FEF7DABE08BD00002DE9F043044685B015
:1031A000264600250AF09CF9464BE56346F8403B6D
:1031B00029462622304618F063F93046FFF77AF99F
:1031C00004F16C07404B23644FF0FF084FF6FF7982
:1031D0002622294684F86680A5663846ADF80C900C
:1031E00018F04EF93846FFF765F9384BE366BDF83D
:1031F0000C30A4F8923084F8948003A904F1980864
:10320000384607F0B6F929462622404618F038F924
:103210004046FFF74FF9012384F8BC302C4BC4F82B
:1032200098302C4BC4F8C050C4E933342A4B84F88E
:10323000C450C4E935352A4629463046A4F8C6901C
:10324000A4F8C89084F8CA90FFF746F93046F021F8
:10325000FFF7C1F830464FF4A071FFF7BEF84FF00A
:103260007F432A46A36629463846FFF735F90F23E0
:1032700003A93846ADF80C3007F07BF940468F22A1
:103280005721FFF729F903AA0A2302A94046ADF8FE
:103290000830ADF80C3006F087FF04F1CC03C4F819
:1032A000C030201D3146019005F0E2F90198394601
:1032B00005F0DEF90198414605F0DAF9204605B03F
:1032C000BDE8F08308D7010838E40108DCE501080F
:1032D00004E50108F0D6010881310008704710B5F7
:1032E0004FF4AC71044618F011F8204610BD10B52B
:1032F0000446D0F8540100F016FA2046BDE810400C
:1033000008F02ABD10B50446FEF7DEFD014B236030
:10331000204610BD3CD701087047043870477047FD
:1033200010B51021044617F0F1FF204610BDA0F1A2
:103330000400F5E710B500228260044AC16002F182
:10334000080420320460426010BD00BF80D701082D
:1033500070477047FFF76CB810B54FF4887104469A
:1033600017F0D4FF204610BD10B50446FFF7DEF875
:10337000014B2360204610BDB0D7010870470438C8
:103380007047704710B51021044617F0BFFF204664
:1033900010BDA0F10400F5E710B500228260044AD8
:1033A000C16002F1080420320460426010BD00BF19
:1033B000DCD701087047704790F8083383F00103A9
:1033C00080F808337047FFF7FCB910B54FF444712B
:1033D000044617F09BFF204610BD034607B593F83F
:1033E0000823F0305AB1B3F9F4102D31E52906DC89
:1033F000B3F9F620019009B2FEF7F6FF019803B089
:103400005DF804EB09F0CBBD034607B593F808233C
:10341000F0305AB1B3F9F4102D39002906DDB3F9B3
:10342000F620019009B2FEF7DFFF019803B05DF8C6
:1034300004EB09F0B4BD000010B50446FFF7DAFA5A
:103440000D4B23600D4BC4F8F8320423A4F8FC3272
:103450000B4B1A68C4F8FE225A681B89A4F806337D
:1034600000210123A4F8F012C4F8022384F80833E1
:10347000C4F80C13204610BD10D801080200FFFF4D
:10348000F4C4010810B50B460446064A052100F5B0
:1034900035700BF031FD04F52270BDE8104009F0E5
:1034A0007EBD00BF04D80108CB8810B51A440B6854
:1034B0000C4620469B6DB1F9041012B29847236860
:1034C00020465B69BDE81040184770B505460C46BC
:1034D00018F076FB052290FBF2F303EB8303C31A8B
:1034E000164605EB4303B3F9FE12B5F938318B42AA
:1034F00007D118F065FB90FBF6F303EB8303C31AC7
:10350000EFE7236820469B6D6FF0230298472368FE
:1035100020465B69BDE87040184770B505460C460B
:1035200018F04EFB052290FBF2F303EB8303C31A62
:10353000164605EB4303B3F9FE12B5F964318B422D
:1035400003D0B5F990318B4207D118F039FB90FBCD
:10355000F6F303EB8303C31AEBE7236820469B6D66
:103560006FF009029847236820465B69BDE8704008
:103570001847000038B590F8083304460D467BB371
:10358000B0F99E30B0F99C102B44B3F5A07F0ADB54
:10359000B0F8F0320133A0F8F032D0F80C33013338
:1035A000C0F80C330F4B1AB204F19800FEF71CFF61
:1035B000B4F9CA30B4F9C8105A19B2F5A07F0ADBC1
:1035C000B4F8F032074A0133A4F8F032D4F80C33DF
:1035D0000133C4F80C3312B204F1C400FEF704FF47
:1035E00038BD00BFC0FEFFFF10B50446B0F9F012B1
:1035F000FFF748FFD4F80C33092B07DDB4F8FC3291
:103600000133A4F8FC320023C4F80C3394F80833D7
:10361000002B73D0B4F96631B3F5A07F04F5B07117
:1036200072DAB4F9FC222046FFF73EFFB4F992317A
:10363000B3F5A07F04F5C6716ADAB4F9FC2220461E
:10364000FFF732FFB4F93A31B3F5A07F04F59A7170
:1036500062DA04222046FFF727FFB4F9F430B4F908
:1036600064219B1A002BB8BF5B42222B10DCB4F9FB
:10367000F630B4F966219B1A002BB8BF5B42482B89
:1036800006DC002384F8083308F0E6FCFEF76CFC47
:10369000B4F9F430B4F990219B1A002BB8BF5B4207
:1036A000222B10DCB4F9F630B4F992219B1A002BCE
:1036B000B8BF5B42482B06DC002384F8083308F0CF
:1036C000CBFCFEF751FCB4F9F430B4F938219B1A65
:1036D000002BB8BF5B42092B10DCB4F9F630B4F90B
:1036E0003A219B1A002BB8BF5B42212B06DC00233A
:1036F00084F8083308F0B0FCFEF736FC20460421BD
:10370000BDE81040FFF736BF2046FFF7DEFE8DE72D
:103710002046FFF7DAFE95E72046FFF7FEFE9CE71E
:103720000022026070477047704704387047704746
:1037300010B51021044617F0E9FD204610BDA0F198
:103740000400F5E710B500228260044AC16002F16E
:10375000080420320460426010BD00BF48D8010850
:1037600070477047FFF7E1BC10B5DC21044617F045
:10377000CDFD204610BD000010B50446FFF70CFD3E
:10378000014B2360204610BD78D80108F020704717
:103790004FF4A07070472920FDF7C2BF2820FDF725
:1037A000BFBF08B5FDF790FFCA20FDF7B9FFC320E2
:1037B000FDF79AFF0820FDF797FF5020FDF794FFD3
:1037C000CF20FDF7ADFF0020FDF78EFFC120FDF7F4
:1037D0008BFF3020FDF788FFED20FDF7A1FF64206F
:1037E000FDF782FF0320FDF77FFF1220FDF77CFF2E
:1037F0008120FDF779FFE820FDF792FF8520FDF796
:1038000073FF0020FDF770FF7820FDF76DFFCB20E0
:10381000FDF786FF3920FDF767FF2C20FDF764FFD9
:103820000020FDF761FF3420FDF75EFF0220FDF769
:103830005BFFF720FDF774FF2020FDF755FFEA201E
:10384000FDF76EFF0020FDF74FFF0020FDF74CFF56
:10385000B120FDF765FF0020FDF746FF1B20FDF7B7
:1038600043FFB620FDF75CFF0A20FDF73DFFA220D5
:10387000FDF73AFFC020FDF753FF1020FDF734FF9E
:10388000C120FDF74DFF1020FDF72EFFC520FDF7ED
:1038900047FF4520FDF728FF1520FDF725FFC7202E
:1038A000FDF73EFF9020FDF71FFF3620FDF738FFA4
:1038B000C820FDF719FFF220FDF732FF0020FDF7C9
:1038C00013FFB020FDF72CFFC220FDF70DFFB6203F
:1038D000FDF726FF0A20FDF707FFA720FDF704FFED
:1038E0002720FDF701FF0420FDF7FEFE2A20FDF74B
:1038F00017FF0020FDF7F8FE0020FDF7F5FE002081
:10390000FDF7F2FEEF20FDF7EFFE2B20FDF708FF9D
:103910000020FDF7E9FE0020FDF7E6FE0120FDF79F
:10392000E3FE3F20FDF7E0FEF620FDF7F9FE012063
:10393000FDF7DAFE0020FDF7D7FE0620FDF7D4FEE6
:103940002C20FDF7EDFEC820FDF738FF2620FDF7FF
:10395000E7FE0120FDF7C8FEE020FDF7E1FE0F20A5
:10396000FDF7C2FE2920FDF7BFFE2420FDF7BCFEB7
:103970000C20FDF7B9FE0E20FDF7B6FE0920FDF77D
:10398000B3FE4E20FDF7B0FE7820FDF7ADFE3C20E3
:10399000FDF7AAFE0920FDF7A7FE1320FDF7A4FE00
:1039A0000520FDF7A1FE1720FDF79EFE1120FDF773
:1039B0009BFE0020FDF798FEE120FDF7B1FE002000
:1039C000FDF792FE1620FDF78FFE1B20FDF78CFE03
:1039D0000420FDF789FE1120FDF786FE0720FDF784
:1039E00083FE3120FDF780FE3320FDF77DFE42206F
:1039F000FDF77AFE0520FDF777FE0C20FDF774FE3B
:103A00000A20FDF771FE2820FDF76EFE2F20FDF73E
:103A10006BFE0F20FDF768FE1120FDF781FEC82028
:103A2000FDF7CCFE2920FDF77BFEBDE808402C20E9
:103A3000FDF776BE08B5FDF747FE0321D320FDF75D
:103A40008BFE80B208BD10B5C4B20222032120460D
:103A5000FDF7F0FD0A20FDF735FE20460022032188
:103A6000FDF7E8FDBDE810400220FDF72BBE38B59C
:103A70000446E4B2FDF7DCFD00212046FDF7F2FD2F
:103A8000012105462046FDF7EDFD40EA052080B204
:103A900038BD10B5C4B240212046FDF7E3FD030652
:103AA00007D54C212046FDF7DDFD003818BF012069
:103AB00010BD01224B212046FDF7BCFD204600220F
:103AC0004B21FDF7B7FD0020F2E773B50423C4B224
:103AD0000E461546D7210DEB03022046FDF7DCFD0F
:103AE000019B1BBA1A0DC3F30B23328020462B8097
:103AF00001224B21FDF79EFD00224B212046FDF7C0
:103B000099FD02B070BD000010B50A4B1A789042C2
:103B100004460DD0597888420AD00AB141B9012231
:103B20009C54FDF785FD2046BDE81040FFF78BBF94
:103B300010BD00BFA015002010B5C4B20921204659
:103B4000FDF790FD40F00100C2B209212046BDE81A
:103B50001040FDF76FBD10B5C4B209212046FDF736
:103B600081FD092100F0FE022046BDE81040FDF76E
:103B700061BD38B5C4B20D4620460A21FDF772FD7D
:103B800040EA0502D2B220460A21BDE83840FDF7DE
:103B900051BD07B50190FDF74CFD01981F21FFF7BE
:103BA000E8FF019803B05DF804EBFFF7C5BF38B537
:103BB000C4B20D4620460A21FDF754FD20EA050255
:103BC000D2B220460A21BDE83840FDF733BD10B51A
:103BD0000446FFF7C0FF20461F21BDE81040FFF755
:103BE000E6BF10B5C0B20C460B21FDF73BFD2040EF
:103BF00010BD1F21FFF7F5BF0A46C0B20B21FDF72C
:103C000019BD1F21FFF7F8BF38B5C4B20D462046D5
:103C10001721FDF727FD20EA0502D2B22046172121
:103C2000BDE83840FDF706BD70B5C4B206460421B4
:103C30002046FDF717FD042100F0FB020546204653
:103C4000FDF7F8FC3046F021FFF7DEFF05F0F80243
:103C500020460421FDF7EEFC492220212046FDF7F5
:103C6000E9FC0220FDF72EFD204601222121FDF76F
:103C7000E1FC20469A224121FDF7DCFC204601228E
:103C80004A21FDF7D7FC204601224B21FDF7D2FC4B
:103C9000204600224B21FDF7CDFC20460122562173
:103CA000FDF7C8FC204601225821FDF7C3FC204641
:103CB00001224021FDF7BEFC2046FF220B21FDF72B
:103CC000B9FCBDE870400220FDF7FCBC054BD3F801
:103CD000882042F47002C3F888204FF000629A6096
:103CE000704700BF00ED00E008B50B4B1A6842F4C6
:103CF00000721A601A6842F480621A601A6842F40C
:103D000080721A60032000F02FF80020FDF77AFF80
:103D1000FDF760FD002008BD003C0240034A044B53
:103D200011681B780B441360704700BF6C2701209B
:103D30007C000020014B1868704700BF6C270120F1
:103D400038B50446FFF7F6FF631C1CBF054B1B7814
:103D5000054618BFE418FFF7EDFF431BA342FAD353
:103D600038BD00BF7C0000200749CA6822F4E06229
:103D70000302120403F4E063120C134343F0BF6325
:103D800043F40033CB60704700ED00E0164B30B5D4
:103D9000DC68C4F30224C4F10705231D042D28BFE9
:103DA0000425062B4FF0FF338CBF033C002403FA9D
:103DB00005F521EA0501A34022EA0302A1400028FB
:103DC00041EA0203ACBF00F16040084A4FEA031326
:103DD000B8BF00F00F00DBB2AABF00F5614013547A
:103DE00080F8003330BD00BF00ED00E014ED00E0CE
:103DF000002808DB4209012300F01F0003FA00F04D
:103E0000014B43F82200704700E100E000280DDB81
:103E10004309012200F01F0002FA00F02033044A97
:103E200042F82300BFF34F8FBFF36F8F704700BF7F
:103E300000E100E010B5044650B1437903F0FF0201
:103E400013B90271FDF7E6FC01236371002010BD78
:103E50000120FCE770B50468049D666C45EA0343E5
:103E600006F04046334363644368E263B3F5403F82
:103E700030D186681EB1012E03D121F07F41A163AC
:103E800070BD022E01F47F0301F47F45C8B207D153
:103E9000DB0CAD0ADB0243EA451343EAD001EEE74F
:103EA000032E01F07F420AD1DB0CED0A9B0243EAAC
:103EB000451343EAD003D10F43EAC131DFE7190DBF
:103EC0002D0B090241EA051141EA1011130F41EAD5
:103ED0000331D4E7E160D3E710B5044630B390F87E
:103EE000393003F0FF021BB980F83820FDF7AAFC37
:103EF00022686168022384F83930136823F4403360
:103F00000B431360536BA16823F007030B43536308
:103F1000136CE16823F47F5323F03F030B431364D6
:103F200000200123E06384F8393010BD0120FCE754
:103F300073B590F83850012D04464FF0020513D0A8
:103F400080F839500126069D80F838600095FFF70B
:103F500081FF23681A6842F40C521A601A683243CF
:103F60001A60002002B070BD2846FBE773B5164604
:103F70001A4690F83830012B04464FF0020517D04E
:103F8000012380F83830036880F839505E61079B60
:103F90000093069BFFF75EFF23681A6842F40C52F9
:103FA0001A601A6842F001021A60002002B070BD67
:103FB0002846FBE7026838B5136823F0050343F091
:103FC000040313600446FFF7B5FE05462268136834
:103FD00013F0010309D1116821F40C511160012281
:103FE00084F8392084F838300FE0FFF7A3FE401B37
:103FF000B0F57A7FEAD9E36B43F02003E363002254
:10400000032384F8393084F83820184638BD70B559
:1040100005682A6842F004022A600129044614BF98
:1040200024351C35FFF786FE06462B6813F0200367
:104030000AD121680A6822F464520A60012284F8D5
:10404000392084F838300FE0FFF774FE801BB0F59C
:104050007A7FEAD9E36B43F02003E3630022032372
:1040600084F8393084F83820184670BD38B50546D4
:1040700008B9012038BD164B1B6B190213D42B68ED
:1040800000243F221C6028469A601C619C61DC6110
:104090005C625C63FDF7F8FBEC6385F8384085F8FB
:1040A00039402046E6E70368196811F0010104D0A1
:1040B000FFF780FF0028E2D0DBE75A6A920602D5BC
:1040C000FFF7A5FFF6E7DB699B06D8D50121F7E7E7
:1040D0000038024070477047036870B55E681D681D
:1040E000F207044614D5E90512D51A6822F4807245
:1040F0001A60C26B42F00102C26301229A6004237B
:1041000080F83930002380F83830436903B198478C
:10411000B20616D5AB0414D523681A6822F40052EF
:104120001A6020229A60E36B43F00203E3630423E6
:1041300084F83930002384F8383063690BB12046A5
:104140009847300716D5290514D523681A6822F434
:1041500000621A6008229A60E36B43F00403E36391
:10416000042384F83930002384F8383063690BB1B4
:104170002046984772070BD56B0509D523681A6846
:1041800022F480621A6004229A602046FFF7A2FFA0
:10419000B00714D5A90512D523681A6822F4007255
:1041A0001A6002229A60E36BE363012384F83930DA
:1041B000002384F8383023690BB120469847F20673
:1041C00013D5EB0411D523681A6822F480521A60C3
:1041D00010229A60E36BE363012384F839300023F3
:1041E00084F838302046FFF776FF70BDF0B590F8C0
:1041F0003830012B4FF002032BD0012280F83930E8
:1042000080F8382000EB0113D3E907425D6A184FAC
:1042100044EA0242093C012C9CBF05F07F431A434B
:104220004FEA0116036888BF42EA056299B9596AE4
:1042300039400A435A62012C82699A6103D8426A62
:1042400022F07F429A62012380F83930002380F8FF
:1042500038301846F0BDD96939400A43DA6182190D
:10426000012C92691A619CBF25F07F451D62EAE727
:10427000F0FFFC002DE9F74FDFF8C4816E4ADFF84C
:10428000C49100230D6801249C4004EA0506AC4358
:1042900040F0B8804C6824F0100C4FEA430E032520
:1042A0000CF1FF3705FA0EF5012F6FEA050511D85D
:1042B000876807EA050ACF6807FA0EF747EA0A0790
:1042C0008760476827EA060AC4F300179F4047EA59
:1042D0000A074760C76807EA050A8F6807FA0EF7FA
:1042E00047EA0A07BCF1020FC76016D14FEAD30AAA
:1042F00000EB8A0A03F0070BDAF820704FEA8B0B09
:104300004FF00F0C0CFA0BFC27EA0C0C0F6907FAA4
:104310000BF747EA0C07CAF8207007683D4004F025
:10432000030707FA0EFE4EEA05050560E50069D5AC
:104330004FF0000BCDF804B0D8F844703F4D47F46F
:104340008047C8F84470D8F8447007F48047019754
:10435000019F23F0030707F1804707F59C3703F01F
:10436000030ED7F808A04FEA8E0E4FF00F0C0CFA90
:104370000EFCA8422AEA0C0C4BD005F58065A84239
:1043800049D005F58065A84247D005F58065A8426B
:1043900045D005F58065A84243D0484543D005F592
:1043A0000065A84241D005F58065A8423FD005F5DB
:1043B0008065A8423DD005F58065A8420CBF09255F
:1043C0000A2505FA0EF545EA0C05BD601568F743A8
:1043D00014F4803F0CBF3D4035431560556814F41C
:1043E000003F0CBF3D4035435560956814F4801F75
:1043F0000CBF3D4035439560D568A40254BF3D4095
:104400003543D5600133102B7FF43CAF03B0BDE8DA
:10441000F08F5D46D5E70125D3E70225D1E70325D7
:10442000CFE70425CDE70525CBE70625C9E7072516
:10443000C7E70825C5E700BF003C01400000024077
:1044400000380240001402400369194214BF0120E1
:10445000002070470AB1816170470904FBE70168D9
:104460004B6913F480634FF0000210D06FF4806347
:104470004B612023026380F83D3080F83E20036CBE
:1044800080F83C2043F00403036401207047184681
:1044900070472DE9F04104460F46164698462568B8
:1044A000686927EA000080B2B8B16B695A0516D571
:1044B0002B6843F400732B606FF480636B612022E0
:1044C0000023236384F83D2084F83E30226C42F0C0
:1044D0000402226484F83C300120BDE8F081731CA2
:1044E000DED0FFF727FCA0EB0800B04201D8002E79
:1044F000D5D100232022236384F83D2084F83E3068
:10450000226C42F02002E4E770B504460D461646E0
:1045100023685B695B0701D5002070BD2046FFF76B
:104520009EFFA8B96A1CF3D0FFF704FC801BA842C9
:1045300001D8002DECD100232022236384F83D20F4
:1045400084F83E30226C84F83C3042F02002226431
:104550000120E2E770B504460D46164621684B6916
:1045600013F0400301D0002010E04A69D2060ED5B6
:104570006FF010024A612022236384F83D2084F802
:104580003E30226C226484F83C30012070BDFFF77D
:10459000D1FB801BA84201D8002DDFD100232022AF
:1045A000236384F83D2084F83E30226C42F02002E0
:1045B000E8E72DE9F84606460F4691461D464FEAC4
:1045C000114A3368BAF1010F0CBF5C699C6927EA94
:1045D0000404A4B2B4FA84F46409A14501D0002013
:1045E00017E06A1CEED0FFF7A5FB089BC01AA84293
:1045F00001D8002DE5D100232022336386F83D2029
:1046000086F83E30326C86F83C3042F0200232644C
:104610000120BDE8F88670B504460D4616462368AD
:104620005B691B0601D5002070BD2046FFF717FF10
:10463000A8B96A1CF3D0FFF77DFB801BA84201D804
:10464000002DECD100232022236384F83D2084F840
:104650003E30226C84F83C3042F02002226401207B
:10466000E2E700002DE9F0431546026885B0DDE978
:104670000C789946136843F4807313600E463B46EA
:10468000CDF8008000224FF001110446FFF791FFA2
:10469000236838B11B68DB0502D54FF4007323642F
:1046A00003200AE006F0FE061E61194943463A4619
:1046B0002046FFF7EEFE18B1012005B0BDE8F083FB
:1046C000236803905A6903929B69039342463946D3
:1046D0002046039BFFF79FFF40B1236C042B01BFD3
:1046E0002268136843F400731360E5E7B9F1010F22
:1046F000236802D1EDB21D61DFE72A0A1A6139464B
:1047000042462046FFF787FF0028E6D12368F1E7FD
:10471000020001002DE9FF479A46036815461A6812
:1047200042F480621A601A68DDE90C7842F4807203
:104730001A600E463B46CDF8008000224FF0011172
:104740000446FFF736FF236848B11B68DB0502D536
:104750004FF400732364032004B0BDE8F0875FFAD0
:1047600086F906F0FE061E612A4943463A4620466F
:10477000FFF78FFE08B10120EEE7236803905A6926
:1047800003929B690393424639462046039BFFF7F9
:1047900042FF40B1236C042B01BF2268136843F42D
:1047A00000731360E7E7BAF1010F23681AD1EDB285
:1047B0001D61424639462046FFF72DFF0028E9D10A
:1047C0002268136843F4807313604FF001110246AE
:1047D000CDF800803B462046FFF7EBFE226860B133
:1047E0001368B3E72A0A1A61394642462046FFF7A2
:1047F00012FF0028CED12368D9E749F001031361E5
:10480000044943463A462046FFF743FE003818BFA6
:104810000120A1E70200010070B5044608B901209B
:1048200070BD90F83D3003F0FF021BB980F83C20CA
:10483000FDF73CF8242384F83D3023681A6822F001
:1048400001021A601A6842F400421A601A6822F4DF
:1048500000421A6000F06CFE3F4A6368934294BFC6
:104860003E4A3F4A90428CBF00220122002AD6D104
:1048700021683C4E4A68B0FBF6F622F03F02324314
:104880004A60354A0D6A934284BF4FF49672724370
:1048900025F03F0591BF721C4FF47A76B2FBF6F219
:1048A00001322A430A62CD69421E2B4825F44F4546
:1048B000834225F0FF0532D85B00B2FBF3F340F6EC
:1048C000FC720133134242D0C3F30B032B43CB6181
:1048D000D4E907300A68034322F0C00213430B6097
:1048E0008A68D4E9030322F40342034322F0FF025F
:1048F00013438B60D4E90530CA68034322F0FF02FA
:104900001343CB600B6843F001030B6000202023AE
:10491000206484F83D30206384F83E0080E7A0687E
:1049200050B903EB4303B2FBF3F30133C3F30B03BF
:104930007BB143F40043C9E719204343B2FBF3F3CF
:104940000133C3F30B0323B143F44043BEE7042315
:10495000BCE70123BAE700BFA08601007F841E00E8
:10496000FF083D0040420F002DE9F74304469946F9
:104970000C9E0F469046FFF7DDF994F83D30202B52
:10498000054603D0022003B0BDE8F08300903C4907
:10499000192301222046FFF70CFE0028F2D194F8DB
:1049A0003C30012BEED02068012384F83C300368B2
:1049B000D9075EBF036843F001030360036823F473
:1049C00000630360212384F83D30402384F83E30A7
:1049D000002323640A9B6362BDF82C306385638DDA
:1049E0002385284BE362CDE900654B4642463946B4
:1049F0002046FFF737FE00282AD00120C3E7FFF743
:104A00000AFE40B1236C042B01BF2268136843F4F3
:104A100000731360F1E7636A27681A4612F8011BF6
:104A200039616262628D218D013A92B262857A6942
:104A3000481E80B2520720850AD548B15A783A619B
:104A400002336362638D013B02399BB2218563852A
:104A5000238D2A4631462046002BD0D1FFF754FD46
:104A60000028CFD12268136843F400731360202319
:104A700084F83D3084F83C0084F83E0083E700BFB2
:104A8000020010000000FFFF2DE9F043044687B04C
:104A90009946109F0D469046FFF74CF994F83D302B
:104AA000202B064604D00225284607B0BDE8F08337
:104AB00000907649192301222046FFF77AFD00284D
:104AC000F1D194F83C30012BEDD02068012384F81B
:104AD0003C300368DB075EBF036843F001030360FB
:104AE000036823F400630360222384F83D304023ED
:104AF00084F83E30002323640E9B6362BDF83C3093
:104B00006385638D2385624BE3622946CDE9007698
:104B10004B4642462046FFF7FDFD054608B10125FC
:104B2000C2E7228D2368B2B902905A6902929A694B
:104B30000292029A1A6842F400721A60DFF85481F5
:104B4000238D002B2CD1202284F83D2084F83C308A
:104B500084F83E30A8E7012A0AD11A6822F480625C
:104B60001A6003905A6903929A690392039AE1E7E3
:104B7000022A0ED11A6822F480621A601A6842F47E
:104B800000621A6004905A6904929B690493049B22
:104B9000D4E705905A6905929B690593059BCDE77B
:104BA000032B56D8012B15D1324639462046FFF744
:104BB000D1FC0028B3D123681A69636A1A70636A4A
:104BC00001336362238D013B2385638D013B9BB2DF
:104BD0006385B5E7022B00963B464FF00002414645
:104BE000204619D1FFF7E5FC002898D123681A6800
:104BF00042F400721A601A69636A1A70626A531C7E
:104C00006362238D013B2385638D013B9BB26385EA
:104C100023681B695370D2E7FFF7CBFC00287FF4B1
:104C20007EAF23681A6822F480621A601A69636A88
:104C30001A70636A009601336362238D013B2385FA
:104C4000638D013B9BB2638502463B46414620464D
:104C5000C8E7324639462046FFF77CFC00287FF43F
:104C60005EAF23681A69636A1A70626A531C6362D2
:104C7000238D013B2385638D013B9BB263852368B4
:104C8000596949077FF55CAFC3E700BF0200100018
:104C90000000FFFF0400010010B590F83D30202B0C
:104CA000DCB216D1242380F83D3003681A6822F064
:104CB00001021A605A6A22F010025A625A6A1143BB
:104CC00059621A6842F001021A6080F83D400020E3
:104CD00010BD0220FCE730B590F83D30202BDCB24F
:104CE00016D10268242380F83D30136823F00103B5
:104CF0001360556A4FF6F0732B40194389B2516225
:104D0000136843F00103136080F83D40002030BD7C
:104D10000220FCE72DE9F043D20104684F68E56802
:104D2000D1F800C0D1F818908432A3180CF1010614
:104D3000586800F470405860E068C5F30B45C0F354
:104D40000B4030443D4440EA05405860E068CD687F
:104D5000C0F30A000544986800F470409860E66863
:104D60008868C6F30A060130304440EA054098607E
:104D700018690E6920F0070018614FF0000E1E61DF
:104D80009D6991F8320091F83180C3F818E091F8EC
:104D9000305045EA096545EA082545EA00459D6128
:104DA000586920F0FF00586148695861D86920F4BB
:104DB000E06020F00700D861D1E907500543DD61CC
:104DC000986A486AC3F828E098621EB3012E23D07F
:104DD000B01E022822D9072E0CBF02200120DD6A56
:104DE00005F0E025DD628D6AC96AA7EB0C07454333
:104DF0007843033040EA0540D862186B20F4FF6026
:104E000020F0070018631963A35843F00103A3506F
:104E1000BDE8F0830420E2E70320E0E70220DEE7BC
:104E200038B50446002863D090F8A13003F0FF02A3
:104E30001BB980F8A020FCF795FD022384F8A1306F
:104E400023689A6922F070429A61D4E901200243F2
:104E5000E06899690243206902430A439A619A68AB
:104E6000244960690A409A609A6842EA0042A0694F
:104E700002439A60DA68E0690A40DA60DA6842EA76
:104E80000042206A0243DA601A69606A0A401A61C5
:104E90001A6942EA0042A06A02431A615A69114043
:104EA00059615A69E16A42EA0142216B0A435A6137
:104EB000D96A94F8360094F8355001F07F41D962F0
:104EC000D96A94F834200A4342EA052242EA0042B1
:104ED000DA625A6B42F006025A639A6942F00102A2
:104EE0009A6100200123C4F8A40084F8A13038BDE1
:104EF0000120FCE700F800F070477047036870B5C8
:104F00009E6B5D6B7207044614D5690712D55A6B08
:104F100022F004025A630422DA63D0F8A43043F08A
:104F20000103C0F8A430002380F8A12080F8A0304D
:104F3000FFF7E2FFB20716D5AB0714D523685A6B0B
:104F400022F002025A630222DA63D4F8A430134337
:104F5000C4F8A430042384F8A130002384F8A030DE
:104F60002046FFF7C9FFF00710D5E9070ED52368E3
:104F70005A6B22F001025A630122DA63002384F89B
:104F8000A12084F8A0302046FCF716F9320711D58D
:104F90002B070FD523685A6B22F008025A630822A8
:104FA000DA63012384F8A130002384F8A03020467E
:104FB000FFF7A3FF70BD2DE9F04190F8A030012B61
:104FC00006460F4694464FF002001FD04FF00108EE
:104FD00086F8A08086F8A10034240D4604FB026404
:104FE0000FCD38340FC40FCD0FC40FCD0FC42B68B5
:104FF0002360304662463946FFF78CFE3368002056
:10500000C3F8248086F8A18086F8A000BDE8F0816E
:1050100090F8A030012B4FF0020312D080F8A1309D
:1050200003685A6B22F001025A63074A11645A6BF3
:1050300042F001025A63012380F8A130002380F876
:10504000A0301846704700BF006801402DE9F341C9
:10505000044640B30368DD0710D4236898075ED484
:1050600023681A0700F1A08023685B0700F1BE8067
:10507000A069002840F01F8100202BE0A64B9A6811
:1050800002F00C02042A07D09A6802F00C02082AE7
:105090000BD15A68510208D59F4B1B689A03DCD587
:1050A0006368002BD9D1012014E06268B2F5803F1B
:1050B00013D11A6842F480321A60FEF73BFE964E16
:1050C000054633689B03C8D4FEF734FE401B6428B2
:1050D000F7D9032002B0BDE8F0818F4DB2F5A02FC3
:1050E0002B6807D143F480232B602B6843F4803373
:1050F0002B60E2E723F480332B602B6823F48023BA
:105100002B60002AD9D1FEF715FE06462B689F03B7
:10511000A3D5FEF70FFE801B6428F7D9D9E77E4B95
:105120009A6812F00C0F07D09A6802F00C02082A55
:1051300011D15B685E020ED4774B1A68950702D5D1
:10514000E268012AAFD11A68216922F0F80242EA26
:10515000C1021A6084E7E268704BB2B101221A60A2
:10516000FEF7E8FD6C4D06462B68980707D52B68BF
:10517000226923F0F80343EAC2032B6070E7FEF7CD
:10518000D9FD801B0228EFD9A3E71A60FEF7D2FDF4
:10519000614E0546336899077FF562AFFEF7CAFD99
:1051A000401B0228F6D994E762695D4B7AB101226F
:1051B0001A60FEF7BFFD584E0546736F9F073FF517
:1051C00053AFFEF7B7FD401B0228F6D981E71A60FE
:1051D000FEF7B0FD504E0546736F98077FF544AF5C
:1051E000FEF7A8FD401B0228F6D972E74A4B1A6C5D
:1051F00012F0805228D101921A6C42F080521A6447
:105200001B6C03F080530193019B0127454D2B68D4
:10521000D9051BD5A368404D012B27D12B6F43F037
:1052200001032B67FEF786FD3B4E054641F28838A9
:10523000336F9B0739D5002F3FF41AAF364A136CF2
:1052400023F08053136413E70027DFE72B6843F450
:1052500080732B60FEF76EFD06462B68DA05D9D405
:10526000FEF768FD801B0228F7D932E7052B04D131
:105270002B6F43F004032B67D0E72A6F22F0010263
:105280002A672A6F22F004022A67002BCAD1FEF790
:1052900051FD41F2883806462B6F9807CBD5FEF7B3
:1052A00049FD801B4045F7D913E7FEF743FD401B3E
:1052B0004045BDD90DE7184DAB6803F00C03082B32
:1052C00047D0194E00230228336035D1FEF732FD56
:1052D00007462B68990129D4D4E907321343626A3F
:1052E00043EA8213E26A43EA0263A26A5208013A7D
:1052F00043EA02436B6001233360FEF71BFD064D5A
:1053000004462B689A013FF5B7AEFEF713FD001B6C
:105310000228F6D9DDE600BF00380240000047420F
:10532000800E47420070004060004742FEF702FDD9
:10533000C01B0228CDD9CCE6FEF7FCFC04462B6846
:105340009B017FF599AEFEF7F5FC001B0228F6D90C
:10535000BFE601283FF4BEAE6B68E26903F480014A
:1053600091427FF4A0AE216A03F03F028A427FF4AB
:105370009AAE616A47F6C0721A408A427FF493AED1
:10538000A16A03F440328A427FF48DAEE26A03F0F0
:10539000706393423FF470AE85E600BF134908B5D1
:1053A0008B6803F00C03042B1CD0082B1CD14A681B
:1053B0004B68496813F4800314BF0D480D48C1F3CE
:1053C000881118BF002302F03F02A1FB0001FAF789
:1053D0005FFF064B5B68C3F3014301335B00B0FB27
:1053E000F3F008BD0248FCE70248FAE70038024043
:1053F00000127A000024F4002DE9F0410D46044625
:1054000010B90120BDE8F081444B1A6802F00F0288
:105410008A4228D3226897072DD4D00741D43F4B26
:105420001A6802F00F02AA4266D8226851076CD4AB
:10543000130707D53A4A2169936823F4604343EA86
:10544000C1039360FFF7AAFF354B364A9B68C3F34D
:105450000313D35CD840344B1860344B1868FCF706
:10546000D1FB0020CEE7CAB21A701B6803F00F030D
:105470008B42C6D1CEE72A4B12F0040F1EBF9968AB
:1054800041F4E0519960160742BF996841F46041C8
:1054900099602349A0688B6823F0F00303438B6075
:1054A000BBE762681E4B012A1CD11B6813F4003F46
:1054B000A7D01B4EB36823F003031343B360FEF77A
:1054C00039FC41F288380746B368626803F00C0380
:1054D000B3EB820FA3D0FEF72DFCC01B4045F3D9E0
:1054E00003208FE7911E01291B6802D813F0007F6B
:1054F000DEE713F0020FDBE7EAB21A701B6803F075
:105500000F03AB427FF47DAF8FE70549E0688B68FE
:1055100023F4E05303438B608AE700BF003C024062
:1055200000380240A4D80108780000208000002044
:10553000044B054A9B68C3F38223D35C034A10687B
:10554000D840704700380240B4D8010878000020E5
:105550000F2303600B4B9A6802F0030242609A68C3
:1055600002F0F00282609A6802F4E052C2609B6826
:10557000DB0803F4E0530361034B1B6803F00F03E4
:105580000B60704700380240003C0240036813F093
:10559000430FF7B5044640F08A80236813F00C0FE0
:1055A00044D0894D894E00232B60FEF7C3FB07468C
:1055B00033689B0000F1CC8021684F0715D5D4E9F2
:1055C0000403D6F888201B0602F0E04243EA801369
:1055D0001343C6F88830D6F88C30226A23F4F85387
:1055E000013A43EA0223C6F88C300E0714D5774AF5
:1055F000A369D2F8881020691B0701F0706143EAA3
:1056000080130B43C2F88830D2F88C30616A23F4DF
:1056100040330B43C2F88C3001232B60FEF78AFB2A
:105620006A4E05463368980040F1998023689A06CF
:1056300033D500230193654B654D1A6C42F08052BF
:105640001A641B6C03F080530193019B2B6843F495
:1056500080732B60FEF76EFB06462B68D90540F180
:1056600085805A4D2B6F13F4407340F08680A36AF7
:1056700003F44072B2F5407F544A40F0A080916834
:1056800023F0704021F4F81120F440700143916040
:10569000116FC3F30B030B431367206810F0100066
:1056A0001FBF4C4B94F82C201A6000204EE04A4D4E
:1056B000464F00232B60FEF73DFB06463B681A0170
:1056C0003ED42168CB0741BFD4E901231B0743EA3D
:1056D0008213C7F884308E0715D53C4AE368D2F8A8
:1056E000840066681B0600F0E04043EA861303432B
:1056F000C2F88430D2F88C00E36920F01F00013B2F
:105700000343C2F88C3048060AD5E36862681B067A
:1057100043EA8213A26843EA02732C4AC2F8843037
:1057200001232B60FEF706FB284E0546336819015E
:105730003FF533AFFEF7FEFA401B0228F6D904E02E
:10574000FEF7F8FA801B0228B8D9032003B0F0BD99
:10575000FEF7F0FAC01B02287FF62AAFF5E7FEF746
:10576000E9FA401B02287FF65DAFEEE7FEF7E2FAAA
:10577000801B02287FF671AFE7E7A26A02F440724D
:1057800093423FF474AF2B6F144A0121116023F44C
:105790004073002111602B672B6FDA077FF567AF2D
:1057A000FEF7C8FA41F2883706462B6F9B073FF594
:1057B0005EAFFEF7BFFA801BB842F6D9C5E7916825
:1057C00021F4F81163E700BF70004742003802403F
:1057D00000700040E011474268004742400E4742D7
:1057E00038B50D460446C8B190F82C3003F0FF02DE
:1057F0001BB980F82D20FCF7B3F9022384F82C3074
:10580000211D206800F066FC62682068294600F0CF
:1058100097FC012384F82C30002038BD0120FCE7E0
:1058200038B590F82C30022B04460D46D8B20DD076
:10583000022384F82C30206800F0BEFC2B68022B79
:105840000CBF0523012384F82C30002038BD10B58F
:1058500090F82C30022B0446D8B209D0022384F8E9
:105860002C30206800F0CFFC012384F82C3000207D
:1058700010BDF8B504460E4615461F4622689368CB
:1058800036EA030301D000202DE06B1CF7D0FEF7B1
:1058900051FAC01B8542F1D823685A6822F0E00211
:1058A0005A606268B2F5827F0AD1A268B2F5004FF1
:1058B00002D0B2F5806F03D11A6822F040021A605C
:1058C000A26AB2F5005F07D11A6822F400521A608A
:1058D0001A6842F400521A60012384F85130002300
:1058E00084F850300320F8BD38B513464268B2F54D
:1058F000827F04461FD18268B2F5004F02D0B2F514
:10590000806F07D125682868B2F5806F20F04000CD
:10591000286007D00A4680212046FFF7AAFF20B959
:10592000002038BD0A460121F6E7636D43F02003ED
:1059300063650320F5E70A460121EEE737B5134614
:10594000124A134D1268B2FBF5F54FF47A726A43AE
:1059500001924268B2F5827F04460BD10A4680214B
:10596000FFF787FF78B1636D43F020036365032081
:1059700003B030BD019B33B1019B013B0193236810
:105980009B681B06F6D40020F2E700BF78000020D9
:1059900000366E0110B50446002836D0002383621D
:1059A00090F8513003F0FF021BB980F85020FCF74B
:1059B0009FF82168A269022384F851300B6823F014
:1059C00040030B60D4E901300343E06803432069DE
:1059D000034360690343E0690343206A0343A06A09
:1059E000034302F4007003430B60120C636A02F07D
:1059F00004021A434A60CB6923F40063CB610020A0
:105A00000123606584F8513010BD0120FCE72DE9C9
:105A1000F3411E4690F85030012B04460D461746C0
:105A200000F09780012380F85030FEF783F994F856
:105A30005130012B8046D8B240F08980002D5AD0D9
:105A4000002F58D0032384F85130A2682563002327
:105A50006365C4E91033E786A363E387A3872368FC
:105A6000A786B2F5004F08BF1A68E16804BF42F488
:105A700080421A601A6852065EBF1A6842F04002FD
:105A80001A60B1F5006F62683ED10AB1012F07D1EB
:105A900035F8022BDA602563E38E013B9BB2E38687
:105AA000E38E9BB2A3B9424631462046FFF746FF3C
:105AB000002849D1A36833B901932368DA680192B9
:105AC0009B680193019B606D003818BF012012E0B4
:105AD00022689368980705D5236B33F8021BD160C1
